:020000023000CC
:10C00000807F002085E40300CDE40300CFE403003B
:10C010000000000000000000000000000000000020
:10C02000000000000000000000000000D1E4030058
:10C030000000000000000000D3E40300D5E403008A
:10C04000D7E40300D7E4030025DB030091D9030004
:10C050001DD2030000000000D9D90300D7E403007B
:10C06000D7E4030095D90300D7E40300D7E4030025
:10C07000D7E40300D7E40300D7E40300D7E40300C8
:10C08000D7E40300B5C60300D7E40300D7E40300F8
:10C0900095C2030015DB03002DD30300D7E4030092
:10C0A000D7E40300D7E40300000000000000000014
:10C0B0000000000000000000000000000000000080
:10C0C00000C0030054E60300000006006700020001
:10C0D0000000000000000000164B002B00D1144BA4
:10C0E0009D46402292029A1A924600218B460F46A4
:10C0F0001348144A121A02F02BFA0F4B002B00D0EF
:10C1000098470E4B002B00D09847002000210400D8
:10C110000D000D48002802D00C4800E000BF02F0DE
:10C12000F1F92000290000F0C9FB02F0D5F9C04662
:10C1300000000800807F00200000000000000000D8
:10C14000603200206032002000000000000000008B
:10C150008022D221184B9202DA67184B184A8900C4
:10C160005A5040395A5001212F225960101C013871
:10C17000C046C046C046C046C046C046C046C0468F
:10C18000C046C046C046C046F1D1996000230D4963
:10C19000101C0B600138C046C046C046C046C046B1
:10C1A000C046C046C046C046C046C046C046F1D1A3
:10C1B000054A13707047C04604E100E000100140DA
:10C1C000020001007C2C0020842C002037DF704707
:10C1D00036DF704718DF704760DF704713DF704746
:10C1E0000F4A70B5151C137804780130002C15D057
:10C1F0000C4B1A78012AFBD11A78D2B2012A08D145
:10C200001E780949022E00D08A60084A8C5002220A
:10C210001A700278231C0130141CE7E72B7070BDE4
:10C2200031300020AC310020002000401C0500000F
:10C2300038B5144C04252278131CAB4321D00228B6
:10C240001DD003281DD1104B1B681B0717D40F49A5
:10C250000B6801330B60032B04D0022A0CD101F0D0
:10C2600069F90EE018220A4B0D2019785143C918BC
:10C27000043101F04FF9257001F088FA01E001F076
:10C28000FFF838BD9430002080300020B03100200D
:10C29000A8300020F0B5C249C24A0B68C2488BB032
:10C2A000039300781378984211D00133DBB2022B4C
:10C2B00000D1002313701378BC4A9B009F58039B46
:10C2C000FB181B021B0A0B600123049301E00027EB
:10C2D0000497B74B1B680593B64B1B780193B64B7D
:10C2E000019A1B6802920993B44B1B680093AC4BF4
:10C2F0001B680893B24B1B780793059B029A013A7F
:10C30000D2B20292FF2A68D0029AD500099A551932
:10C3100029786A788A42F1D018224A43AC780131F0
:10C320006868C9B2641A8218601E84411078644239
:10C330002140022803D01A1C03284CD141E02420BC
:10C34000526850439446009A8018027D0692069CDB
:10C350001A1C002C3FD01E1C1C1C721C08D06645E9
:10C3600008D024227243009C1219341C166AF4E788
:10C370001A1C23E01A1CB4420DD124225343009A04
:10C380009B181A6A531C06D101268E4B9E60069B91
:10C390000793002308934368066A9C4624235C4362
:10C3A000009BE4182662741C08D024237343009C6D
:10C3B0001B195E686446B44664445C6000230375E0
:10C3C00009E0531C07D024235A43009BD2180023B2
:10C3D0001375126AF5E7131C9BE7754A08991360F9
:10C3E0006F4A11606946764A097F1170049A002AE3
:10C3F00009D1059A9B1A5A1E9341DBB2029301237D
:10C400005B429C462BE06D4A002015680122524297
:10C4100094465A1C1FD024225A43AA1851688F42AE
:10C4200005D26348C91B03605160012316E07F1ADF
:10C4300040180021146951601175166A8C4208D0A9
:10C440000399D46041180902090A916061469C462B
:10C450001162331CDDE7564A136002330293544BDA
:10C460001B680393544B1B680693544B1B68009343
:10C470004B4B1B680593524B1B780793039B019A08
:10C48000013AD2B20192FF2A00D19FE0019A0699A7
:10C49000D2008A186146013108D060462421414308
:10C4A000009864464118086A844628E0117850785C
:10C4B0008842E4D018204843546801312018947809
:10C4C000C9B211708C4201D1002111700178446809
:10C4D0001D1C012961D123316143009D69180E7D26
:10C4E0001D1C002E59D185688D60C568CD60056919
:10C4F0000D614069C8610798002800D08E60886887
:10C50000059D314F451B2D022D0ACE68BD4202D834
:10C51000AD194D600AE0059D281A0002000A864206
:10C5200002D9361A4E6001E0002048600020886081
:10C53000C86001300875023808622530061C664361
:10C540000099251C8E19591C27D05843009D7168ED
:10C5500028184568A94204D8691A4160251C33622D
:10C560001BE01D1C049324206843009F3818476873
:10C57000B94206D9006AC91B0495471C05D0051CA1
:10C58000F1E77F1A4760281C049D716024214D4308
:10C59000009930624D192C621D1C2B1C7AE7C04695
:10C5A0007C2C00209C2C0020782C0020682C002063
:10C5B000882C002030300020702C0020802C00209F
:10C5C000792C002000100140FEFF7F002F4A1360ED
:10C5D000039A934202D1029A002A51D05A1C4DD09C
:10C5E0002B4A2C48116824225343CB185D682A49F2
:10C5F0002A4B0C581B682A4EE21A1202120A37788C
:10C60000033200920190002F1ED1D1272548BF0090
:10C61000C851403FC851C02280272348BF02520062
:10C620008750076001272F200F600138C046C046A1
:10C63000C046C046C046C046C046C046C046C046CA
:10C64000C046C046F1D13770009AAA4200D22A1CD7
:10C65000D318A8221B021B0AD2008B50019A8958BA
:10C66000091B0902090A1C1B24020331240AA142E6
:10C6700006D980220D4B92025A6001E0FFF768FD57
:10C6800000220B4B1A700BB0F0BDC046882C002066
:10C69000802C002004050000001001407C2C0020AC
:10C6A000842C00200200010000E100E0FCE100E039
:10C6B000792C002070B5274B9A68002A04D02649AF
:10C6C0000A780132D2B20A7000245C649C64DC6493
:10C6D0001C655C609C60214B1E68731C38D0204A2E
:10C6E000204BD358204A15685D1B2D022D0A2423A8
:10C6F0001E4A73431268D3185A68954214D3AD1A70
:10C70000A4181B4A1E6A1268002A08D09869D969C1
:10C710009047002806D000210A1C00F0ADFC9A6961
:10C72000D8699047731CE2D1124B134A19781378D9
:10C730008B4205D10133DBB2022B00D100231370F1
:10C7400013780E4A9B009C5080220D4B52035A6076
:10C7500070BDC046FC1001407C300020882C0020B9
:10C7600000100140040500007C2C0020802C0020DB
:10C77000902C00209C2C0020782C0020682C00207D
:10C78000FCE100E0F0B585B002ABDF1D00233B709B
:10C79000404B009001925B680E1CDB05DB0D04250D
:10C7A000002B1ED0103BD9B24AB2002A0BDA0F225E
:10C7B0000A40083A384B92089200D21803230B40E3
:10C7C0005268DB0007E092083449C03292005258A8
:10C7D00003210B408B40DA40D3B29B09DDB2012B21
:10C7E00009D0381CFFF7F4FC022801D172B603E02F
:10C7F000002801D027E01D1C294B2A492A4A187815
:10C800000B781288DBB2C0B20024934201D201330C
:10C81000DCB284420CD00C780B780021DBB293425E
:10C8200001D20133D9B21F4B1970012D03D112E08F
:10C83000012D2BD01D4C62B63878FFF7C7FC0223C0
:10C84000021C9A4303D000210A1C00F015FC174B70
:10C8500004209C421BD0164BE5001B685D19019B10
:10C860002B60009B002B0ED0002E0CD0114B00999A
:10C870001888114B44431868321C001901F0F8FD68
:10C88000AE80002003E00020A88000E0042005B076
:10C89000F0BDC04600ED00E018ED00E000E100E072
:10C8A0007D300020942C0020862C0020FFFF00000B
:10C8B000982C0020A0310020742C00208023F0B59B
:10C8C0000025E04ADB059B588BB000AFBB60DE4B18
:10C8D000DE4A1D70DE4BA0261A600122DD4B52425B
:10C8E0001A80A123DB009C4680236146F6055B008D
:10C8F0007350E42303210820DB00F1500931103389
:10C90000F150D54CD54B1851D548D64C1950D64975
:10C91000D6481950A0210420C9001D515850D449AF
:10C92000CD600D621959081C0121884318516046D9
:10C930005C3C1A501A51C448CE4C99601960017081
:10C94000217801312170C22189005A50C1228439D5
:10C9500092009950C0230422C74C5B00E250C022D1
:10C960009200A158C54BC6480B40C02109040B4397
:10C97000A35004232360FFF733FCB749331CF9604D
:10C98000BA4903227960B968B12903D18021AD4841
:10C99000C9050D50BB49A0265A5004395A50BA490E
:10C9A000F6055A508022A1211203C9005A50802254
:10C9B000D2025A50802292025A50B44B1B68BB607C
:10C9C000F023BA689B029A4202D00020011C37E192
:10C9D00080235B051A698023DB009A42F5D100258C
:10C9E000AB4B1D70FFF7B4FBAA4AAB4B03211A6097
:10C9F0000322AA4BFF201A70A94BAA4A1D7013608C
:10CA00005A1DD5771A1C383215701A1C4832157009
:10CA10001A1C5C321570A44A1D7511701A1CA349AA
:10CA20006C320A6015701A1C191C6D3215700522C3
:10CA30006E310A70191C84311967191C74310D701C
:10CA4000191C75310D70191C76310A70191CFC31D6
:10CA50009967191C7C310D70191C7D310D70191CE2
:10CA60007E310A701A1D7533FF33D3670122904B54
:10CA700052421A608F4B80221D708F4BC5211D7052
:10CA8000C02352035B00E2508900635883433F3860
:10CA900003436350A1232260884ADB00D550043948
:10CAA0006058874B0340C020000203436350854B0E
:10CAB000291CD258844B1A60844A854BF2501022AC
:10CAC0000823BA18D018102201F042FD02231022C8
:10CAD000BB61BA180633D018FFF77CFB041EAC42CA
:10CAE00000D08BE0B868FFF779FB002800D08BE01E
:10CAF000784A794B08201A604822784B78491A8086
:10CB0000784A794B1A6000F029FC041E7AD1012280
:10CB1000764B16201A7000F023FC041E72D10123FC
:10CB2000034338613B7410237861F818FFF754FB16
:10CB3000051E69D16E4A6F4B6F4C1A606F4B704A7D
:10CB4000A12113606F4AA833136008226E4BC900FD
:10CB500018706E4B18706E4B1A806E4B0C321A8028
:10CB60006D4B103AA3626D4B1A70231D2063A08693
:10CB7000E086A063A087E087D887A31CD887221C03
:10CB8000231C4C3244331870A0641070221C4D32A8
:10CB90001070221C4E32107080220320120272503C
:10CBA0005F497050A121C9007250E522D200B050F7
:10CBB0005C4AA121B0501432B5500F221A70A36AFA
:10CBC000053AC9005A50A36AF968013A5A50A2239B
:10CBD0000E21A26ADB00D1508021A36A7A68490540
:10CBE0009950A26A504BD550A36AFC33DD604B4B81
:10CBF000187840B200F094FB061E08D0291C2A1CAD
:10CC000000F03AFA201C1AE0211C221CF8E7434BE2
:10CC10000121187840B200F081FB002802D0311CBD
:10CC2000321CEDE7C1230421A064A26A9B00D1500D
:10CC30003A4B187840B200F077FB002876D00021FC
:10CC40000A1CDDE71C050000AC31002069DC030094
:10CC5000B4310020022C00200C0500000020004010
:10CC6000140500006C05000000509D002405000024
:10CC7000FC200040002C002000E100E0FFFF00FF4E
:10CC80007CE503004C07000044070000141000106E
:10CC90007C300020F9D60300902C00208C2C002042
:10CCA000F02D0020802C002030300020702C00203F
:10CCB000882C00209C2C0020782C002000100140A3
:10CCC000FF00FFFF040500007C2C00200C00030087
:10CCD0001C0700003430002098300020A4300020D1
:10CCE00011D2030075CF030090300020883000205F
:10CCF00031C20300A831002004320020A02C002003
:10CD0000982C0020742C0020942C00207D300020D2
:10CD1000A0310020862C002000400040303200204E
:10CD20003C0700002407000054050000A023012157
:10CD3000A26ADB00D150231C02224C331A70704BC4
:10CD40008026A364A024A125FB68E4053602ED003B
:10CD5000E650042001F07AF86651FB689F20E65007
:10CD600001F074F8FF2001F071F8B860FF2001F0C5
:10CD70006DF87860FF2001F069F86651BB681D040A
:10CD80007B681B021D435F4B2843984203D05E4BD8
:10CD9000C018012816D8A125FB68ED00E6508020B8
:10CDA00001F054F86651FB685020E65001F04EF84F
:10CDB0006651FB680120E65001F048F8002001F0C0
:10CDC00045F86651FC2380209B021B8840013B8371
:10CDD00001F0A2F9102208238021BA18D0184901C5
:10CDE000022201F021F900F075FFFD219922474B45
:10CDF00089029D449200684601F03AFB8020800140
:10CE000001F08AF98021992268468901920001F097
:10CE10000BF900F05FFFFE219422CAB08902520094
:10CE2000684601F025FBC020800101F075F9C021A2
:10CE30009422684689015200802401F0F5F800F040
:10CE400049FF2402201C01F067F980235B01E418EC
:10CE500094239B029C42F5D12D4BC0249D446D46EA
:10CE600064028022211CD200281C01F001FB8022D8
:10CE7000284B281CE118D20001F0D6F88023DB00F3
:10CE8000E418D4239B029C42EBD100F023FF2248FC
:10CE9000FFF7A6F90021FF200A1C00F0F1FE002197
:10CEA000FF200A1C00F0ECFEFA2000F017FE002024
:10CEB000FF21021C00F0E4FEFA2000F00FFE00202B
:10CEC000FF22011C00F0DCFEFA2000F007FEFF202C
:10CED0000022011C00F0D4FEFA2000F0FFFDFF202C
:10CEE0000021021C00F0CCFEFA2000F0F7FDFF202C
:10CEF000011C021C00F0C4FEFA2000F0EFFDCEE79A
:10CF00002DDC03004125BF0074DA40FF98FDFFFFD0
:10CF100000FCFFFF00C0FEFF87E5030061DF7047F4
:10CF200051DF7047802208B55205116918220E485A
:10CF300089B203785343C3181A1C9B685069C318FD
:10CF4000D068013B181801F011F9084A031C126857
:10CF500001209A4207D300209A4204D1044B1B6857
:10CF600058425841C0B208BDA83000209C30002073
:10CF700084300020002008B5011C024AFFF702FCA3
:10CF800008BDC046EDD10300182208B507490B784B
:10CF90005343CB181B79042B02D000F0CFFC04E0E4
:10CFA0000122034B1A7000F0F1FB08BDA8300020ED
:10CFB0009430002008B580235B0518695A69196907
:10CFC000054B80B21B6889B2013B5843034B514368
:10CFD0001A6800F0A3FB08BD9C300020A43100209B
:10CFE000182270B50D490B785343CB181A1C9D6855
:10CFF0005B69ED18D368ED1880235B051969281C5F
:10D0000089B25C691E6901F037F9B6B27443044B0A
:10D01000281C09191A6800F081FB70BDA830002097
:10D0200084300020802310B55B055C69186919699C
:10D030001A69054B80B21B6889B292B260435943AA
:10D04000920800F06BFB10BD9C30002008B5024B2D
:10D05000186800F06DFC08BD9C300020802208B5E7
:10D06000520553691069116980B2584389B201F0C1
:10D070007DF800F05DFC08BDFF2270B5061C02259E
:10D08000294B12041A60032400F066FE642000F0AD
:10D0900025FD013C00F080FE642000F01FFD002C07
:10D0A000F2D1FA2000F01AFD033400F055FEFA2008
:10D0B00000F014FD013C00F06FFEFA2000F00EFDC0
:10D0C000002CF2D1FA2000F009FD033400F044FEF8
:10D0D000642000F003FD013C00F05EFE642000F0DF
:10D0E000FDFC002CF2D1FA20800000F0F7FCB442E5
:10D0F0000BD000F031FEFA2000F0F0FC00F04CFE06
:10D10000FA2000F0EBFC0134F1E7084800F0E6FCFF
:10D11000012D01D00125B6E7BFF34F8F044A054B1F
:10D12000DA60BFF34F8FFEE7F4310020B80B000048
:10D130000400FA0500ED00E008B5002804D1002045
:10D14000011C021CFFF798FF0029F8D000230360A0
:10D150000B8008BDF0B5214E85B035686B425D414E
:10D160001F4BEDB21B681C1C019363425C41E4B28F
:10D17000002D2FD103A8FFF7D3FE052808D00028E3
:10D1800002D0291C2A1C16E003983368984700E057
:10D190000125002C1BD1134B03A91B880B80124BBC
:10D1A0001F68381CFFF7BAFE041E052C09D00028A2
:10D1B00003D000210A1CFFF75FFF381C019B984732
:10D1C00000E00124002DD3D0002CD1D004E0002DAC
:10D1D00002D1CDE7002CDED005B0F0BDA831002093
:10D1E000A0300020A43000209830002008B500298D
:10D1F00004D00020011C021CFFF73EFF034B1B78EC
:10D20000002B01D0FFF7A6FF08BDC04688300020E4
:10D2100008B50148FFF730FFEFBEADDE73B5354B03
:10D22000D868012865D1C122334992008A58520733
:10D230005FD50022314CDA60211C221DD38F4D3185
:10D2400001339BB2D3870B78DBB2002B0BD1087074
:10D25000D28FA16C92B2002905D001A90B704A802F
:10D26000A36C01989847A323A26ADB00D058A16B56
:10D27000A38FE28F9BB292B2002907D09A4205D2C7
:10D28000E38F9BB25A1C92B2E287C854A21C206B57
:10D29000A58EE38ED28F9BB292B2ADB293420CD2E6
:10D2A000A66A011E03D00021AB4200D2C15C144B20
:10D2B000F150E38E01339BB2E386231DDB8F934253
:10D2C00017D310481049E58EFFF736FF0F48104975
:10D2D000FFF732FF231C02224C331A70A36CADB24D
:10D2E000002B06D001AB013A1A705D800198A36C47
:10D2F000984773BDFC4000400040004004320020CD
:10D300001C05000034320020383200203C3200205E
:10D310004032002037DF704736DF704733DF704719
:10D3200032DF70472FDF70472EDF704708B5094B9B
:10D330001B68002B06D09847002809D000210A1C42
:10D34000FFF79AFE044B1B78002B01D0FFF702FF7A
:10D3500008BDC046903000208830002010DF7047A4
:10D360002EDF70471822F0B5404980260B7885B033
:10D370005343CB181A1C19695C699B6802917605A6
:10D3800031690393D3683A4F0193039B89B21D1906
:10D39000019B201CED1800233B6000F06DFF321C48
:10D3A00000290AD1336903999BB2994208D0002D14
:10D3B00040D1019B002B4BD102E0029B032B08D1F3
:10D3C0001169201C89B200F0D1FE2A4B186003239A
:10D3D0002AE03169019B89B2181900F04DFF264BF4
:10D3E000890819603169002D1DD089B2281C00F010
:10D3F00043FF002917D08026760533693169281C40
:10D4000089B200F0B3FE002803D16D42AD083D6043
:10D4100009E034693169281C89B200F02DFFA4B2FB
:10D42000641AA4083C600223144A137000F0AEF999
:10D4300005B0F0BD029B032BC2D03169019B89B2BC
:10D44000181900F019FF0C4B890819603169CCE7F5
:10D45000029B032BB4D03169019B89B2181900F0EB
:10D460000BFF054B890819603369DCE7A830002001
:10D47000843000209C300020A43100209430002013
:10D4800008B51D4B1B78022B2ED0032B17D0012B78
:10D4900030D10821194A13680B4220D118221849AB
:10D4A0000B785343174ACB18996812688A1A9A6006
:10D4B00002D100F043FA1DE000F036F91AE008212D
:10D4C0000E4A13680B420AD10F4A136801331360E6
:10D4D000FFF728FD002804D1FFF756FD0AE08B4333
:10D4E000136000F053F905E0084B094A1B789B00D4
:10D4F0009B58984708BDC0469430002080300020DB
:10D50000A83000208C3000209C300020A231002068
:10D5100090E5030013B5021C0B1C081C044C097891
:10D5200024680C3000945B690024A04713BDC046FA
:10D530009C31002008B5034B034A1B789B009B5885
:10D54000984708BDA2310020A4E5030008B50823D0
:10D55000034A116899431160FFF7ECFF08BDC0460C
:10D560008030002008B5064B1B681B0705D401223C
:10D57000044B1A70FFF7DEFF01E0FFF7E7FF08BD7D
:10D5800080300020A231002008B5094A136819072D
:10D590000AD4990702D501210B4313600222054BDF
:10D5A0001A70FFF7C7FF01E0FFF7D0FF08BDC046C4
:10D5B00080300020A231002038B5154D2C6823079B
:10D5C00023D4144A136801331360134B04221B68DD
:10D5D000002B04D1FFF7A6FC002802D002220F4B3B
:10D5E0000CE00F4B1B68002B0CD00121221C0B4BB5
:10D5F0000A4002D10C432C6000E003221A70FFF7AE
:10D6000099FF04E0FFF7C0FC01E0FFF79FFF38BD82
:10D61000803000209C300020A4310020A231002066
:10D620008430002008B5054B1B681B0702D4FFF7A8
:10D63000ABFC01E0FFF78AFF08BDC0468030002048
:10D64000F8B508241E4E35682C4024D118221D49F7
:10D650000B785343CB185A69D86894469A6880234C
:10D660005B051969184B1F68002F17D0131C634402
:10D67000013B181889B200F079FD144B1B688342F6
:10D680000CD1134B1C6001231D43124B35601C70E1
:10D69000FFF750FF13E0FFF759FF10E0FFF742FCE0
:10D6A000002804D000220A4B1A60023202E0002F48
:10D6B00003D00322074B1A70EAE7FFF765FCF8BDB9
:10D6C00080300020A8300020843000209C300020D2
:10D6D000A4310020A231002028DF704729DF7047E5
:10D6E00008B5082904D00020011C021CFFF7C4FC67
:10D6F00003684068984708BD07B5064B00901B8833
:10D7000001910920072B04D968460821024AFFF736
:10D7100039F80EBDA0310020E1D6030008B5FFF7AF
:10D72000DDFF00F0E5F808BDF8B51823154A80269E
:10D73000147876055C431419271C231C3169A268F0
:10D7400089B208371033104D8A4210D931697C688C
:10D7500088B2111A3269F8689B68201892B2401892
:10D7600092085918FFF7DAFF33699BB207E079682E
:10D77000F868920808189968FFF7D0FFA3682B6033
:10D78000F8BDC046A83000208C300020F0B54F4BCB
:10D790004F4F1B783A68181C4E4B85B09C464E4D37
:10D7A00000926A781B6801922A78039502924B4A8C
:10D7B000464C126861463E1C484D032803D800F0D1
:10D7C000CBFC0B2E37794149087061460B60009BFA
:10D7D0003B60424B1A6077E0019B002B04D16B4603
:10D7E0001B792370019B0EE01823029A5343039A7E
:10D7F000D31818799A680023032808D0042806D083
:10D8000001280BD023700B6033602A605CE023702A
:10D810000B6033602A60FFF7A5FD55E000930120FF
:10D820000B60009B207033602A60FFF77DFF4BE0A8
:10D8300002200B600099264B20701960284C274B62
:10D8400080271A6023687F0500930123009A9A437A
:10D85000182301922260204A15785D4355196B699F
:10D8600002933969181C89B200F080FC1D4B061C1C
:10D870001860A868029B39691818013889B200F04D
:10D8800075FC864203D10222019B134303E003236C
:10D89000009A9A43131C2360134B1A68134B002AF7
:10D8A00003D121680232114200D000221A70FFF722
:10D8B00041FE09E003200B60009B20703B60094B98
:10D8C0002A60186800F034F805B0F0BD94300020EC
:10D8D0008C300020B0310020A83000209C31002086
:10D8E000803000209C300020A4310020A231002094
:10D8F00008B5002814D0112805D10823094A116859
:10D900000B4313600CE01822074B19785143C918D8
:10D910000431FFF7FFFD0422044B1A70FFF736FFB6
:10D9200008BDC04680300020A83000209430002080
:10D9300008B5FFF7D1FEFFF7DBFF08BD38B51824A7
:10D94000114D00202978614349190431FFF7E2FDA8
:10D95000297800224C432B19181C02241A719A6052
:10D960001C615A619A61C2606B780131013B6B7036
:10D97000CBB20A2B01D02B7000E02A70034B1A7037
:10D98000FFF704FF38BDC046A830002094300020C7
:10D990007047000010B50024201C0D4B5030E218D9
:10D9A00092001368800080B2002B0CD0C12309497B
:10D9B0009B00C95880235B02A340194203D0002377
:10D9C0001360191C98470134042CE5D110BDC046E2
:10D9D0005024001000900040F8B501220025394B7A
:10D9E0001968012908D1C1213748890041581142DD
:10D9F00002D00021154319603449043352008B4290
:10DA0000EED1334B00241A68012A08D11C60802310
:10DA10001B061D43A022A223D205DB00D4582B07EE
:10DA200002D1002D4DDA16E0012700263D420DD02F
:10DA3000254AB3009918A222D20088588958254A4D
:10DA4000C0048903C00E890F9B58984701367F0098
:10DA5000042EEBD1E5E71F4A131C343319784BB27F
:10DA600001332ED0C9B2C023081C984313181B7D64
:10DA70005BB29B009E58002E23D0A0220127D20526
:10DA800083009B18E0228740D2009D588909AD038E
:10DA9000AD0F274202D0022D13D102E0032D10D189
:10DAA00003E003290CD10C1C02E0032908D1022455
:10DAB0009F58094D24043D409D509D582C439C5037
:10DAC000B047F8BD006100400060004010610040B8
:10DAD0007C610040B8310020FFFFFCFF82B0019064
:10DAE000019B002B12D0019B0948013B0193013897
:10DAF000C046C046C046C046C046C046C046C046F6
:10DB0000C046C046C046C046F1D1E9E702B0704702
:10DB1000E70300000121024A13784B40137070475D
:10DB2000F031002013B52D4C2D4BE268002A14D0A3
:10DB3000C12292009958042211420ED00021E160C6
:10DB4000A321C9005B582749DBB20B8069460B71E2
:10DB5000254B0A701B6868469847226A204B002AAA
:10DB600022D0C12292009A5812061DD500201B4ACD
:10DB70001E4910620A78D2B2824215D0022A09D90F
:10DB8000032A11D1023A0870DA605A60A022D2004A
:10DB9000985009E00122DA6003230A706A46137084
:10DBA000114B68461B689847A26A0D4B002A13D098
:10DBB000C12292009A5892050ED50021074A684664
:10DBC00091629021C9005A585A50022369460B703D
:10DBD000054B01921B68984713BDC046FC200040CE
:10DBE00000200040022C0020B4310020AC31002085
:10DBF00030B50D4C227813049D1AFF23020C1A40F5
:10DC00006A432578120C0A802A04551B020A1A401E
:10DC10006A432478120C4A802204121B03405343A7
:10DC20001B0C8B8030BDC046042C0020C0B282B0DB
:10DC3000012801D1014B187002B07047F13100206A
:10DC400008B5002904D10020011C021CFFF714FABA
:10DC5000002AF8D0002BF6D00860411E884180B21F
:10DC6000108000221A8008BD08B50378022B01D06D
:10DC7000012B04D1002140680A1CFFF7FDF908BD03
:10DC800030B5A0238024DB052403002801D00F4DEC
:10DC900001E0A125ED005C518024E402002901D0BF
:10DCA0000A4D01E0A125ED005C51A0238024DB0595
:10DCB000A402002A01D0054D01E0A125ED005C5130
:10DCC000034B188059809A8030BDC0460C05000077
:10DCD000FC310020002008B5011CFF22FFF7D0FF17
:10DCE000C820FFF7FBFE0020011C021CFFF7C8FF45
:10DCF000C820FFF7F3FEE1204000FFF7EFFE08BD6C
:10DD0000F7B5041C00886188A288FFF7B9FF0F4BA4
:10DD10001F68002F18D020880D49000200F0B6FAC5
:10DD2000C6B260880A49000200F0B0FAC5B2A08805
:10DD30000749000200F0AAFA00220092054AC3B285
:10DD4000311C10682A1CB847F7BDC0465832002065
:10DD5000FFFF0000F831002007B50A4B1B78002BAD
:10DD600001D0094B00E0094B18686946FFF740FFF6
:10DD70006846FFF7C5FF6322054B1A70054B9C32BE
:10DD80001A7007BDF331002054320020F431002016
:10DD9000062C0020052C002007B500206946FFF75F
:10DDA00027FF6846FFF7ACFF0022034B1A70034BB6
:10DDB00001321A7007BDC046062C0020052C002039
:10DDC00010B51B4A1378111C012B19D1194B1B6874
:10DDD0001B0715D1184BE0241A68F023101C1840BB
:10DDE00022420BD1154A12681A4209D1144A154B26
:10DDF0001A608022144B12021A6001E03028F1D020
:10DE00000B68DBB2012B12D10A4A126812070ED13D
:10DE1000F021094A12680A40402A08D1074A1268CC
:10DE20000A4204D1C1228021D200C9058B5010BD05
:10DE3000E00F00F0E40F00F0E80F00F0EC0F00F04E
:10DE4000DFFF07C004050040186C0040F0B587B044
:10DE500004AB4A4CDF1D4A4B20700026181C494970
:10DE6000494A0E7016703E704E3005780294EDB23D
:10DE7000019103921C1CB54207D0381CFFF74CFAE5
:10DE8000B0420DD0311C321C08E02C33187840B25F
:10DE9000FFF748FA002803D0291C2A1CFFF7ECF8EA
:10DEA000221C4C3213781125022B44D10025013B52
:10DEB0001370221DD587221C4D321570A21CD387EA
:10DEC000211C221C231C3031343236330298FFF7D8
:10DED000B7FE211C221C231C38313C323E330198F2
:10DEE000FFF7AEFE216BA08EE68E80B2B6B2A26ABC
:10DEF0000B1EAB4203D02B1C864200D28B5D234D00
:10DF000053511F4BAC46DA8E9C1C013292B2DA861A
:10DF1000E48F0025A2420ED29E6A0C1EAC4203D0B2
:10DF20002C1C824200D28C5C62460025B450DA8EF2
:10DF3000013292B2DA86124B1A1C4E321478E4B2D5
:10DF4000002C07D03878FFF7E5F900280CD0002125
:10DF50000A1CA3E72C33187840B2FFF7E5F9002834
:10DF600002D0211C221C99E7002D03D1039B1B78B2
:10DF7000002BFBD0019B187807B0F0BD5C3200206D
:10DF800004320020F2310020F13100201C05000095
:10DF900010B58022A024094BE4051202E2500520AE
:10DFA000FFF754FFFF20FFF751FFC307FAD4802289
:10DFB000A1231202DB00E25010BDC0460C05000098
:10DFC00038B5A0248025054B2D02E405E550062038
:10DFD000FFF73CFFA123DB00E55038BD0C05000036
:10DFE000F8B5A0258026041C0F1CFFF7E9FF0D4B98
:10DFF000ED053602EE500220FFF728FF2002000E4A
:10E00000FFF724FF2004000EFFF720FFE0B2FFF728
:10E010001DFF381CFFF71AFFA123DB00EE50FFF7AE
:10E02000B7FFF8BD0C050000F0B587B001900C1CDF
:10E030000292CB0709D5451C0178201CFFF7D0FFC1
:10E04000029B0134013B029301950123029A9A43FA
:10E05000039252D0A0268027FFF7B2FF2D4BF60582
:10E060003F02F750AD20FFF7F1FE2002000EFFF750
:10E07000EDFE2004000EFFF7E9FEE0B2FFF7E6FE3A
:10E08000019B1878FFF7E2FE019B5878FFF7DEFE50
:10E09000039B023B0493A123DB00F750FFF778FFBB
:10E0A000019B9D1C1B4B0593A0278026049BFF050D
:10E0B0003602002B14D0059BAD20FE50FFF7C6FEA4
:10E0C0002878FFF7C3FE6878FFF7C0FE049B02358F
:10E0D000023B0493A123DB00FE50FFF759FFE3E767
:10E0E000A125ED007E51059B0420FE50FFF7AEFEFA
:10E0F0007E51029B039A9B1A0293029B002B06D02F
:10E10000039B039A1819019B995CFFF769FF07B0FD
:10E11000F0BDC0460C05000070B5A0258026041C8B
:10E12000FFF74EFF0B4BED053602EE502020FFF7B8
:10E130008DFE2002000EFFF789FE2004000EFFF77F
:10E1400085FEE0B2FFF782FEA123DB00EE50FFF771
:10E150001FFF70BD0C05000002B47146490849005C
:10E16000095C49008E4402BC7047C0460022430847
:10E170008B4274D303098B425FD3030A8B4244D38F
:10E18000030B8B4228D3030C8B420DD3FF220902D1
:10E1900012BA030C8B4202D31212090265D0030B90
:10E1A0008B4219D300E0090AC30B8B4201D3CB0386
:10E1B000C01A5241830B8B4201D38B03C01A5241C8
:10E1C000430B8B4201D34B03C01A5241030B8B42CA
:10E1D00001D30B03C01A5241C30A8B4201D3CB02B5
:10E1E000C01A5241830A8B4201D38B02C01A52419A
:10E1F000430A8B4201D34B02C01A5241030A8B429D
:10E2000001D30B02C01A5241CDD2C3098B4201D3B4
:10E21000CB01C01A524183098B4201D38B01C01A32
:10E22000524143098B4201D34B01C01A52410309A9
:10E230008B4201D30B01C01A5241C3088B4201D358
:10E24000CB00C01A524183088B4201D38B00C01A05
:10E25000524143088B4201D34B00C01A5241411A2C
:10E2600000D20146524110467047FFE701B5002039
:10E2700000F0FCF802BDC0460029F7D003B5FFF757
:10E2800075FF0EBC4243891A1847C04603460B432C
:10E290007FD4002243088B4274D303098B425FD39F
:10E2A000030A8B4244D3030B8B4228D3030C8B42CB
:10E2B0000DD3FF22090212BA030C8B4202D31212B1
:10E2C000090265D0030B8B4219D300E0090AC30B86
:10E2D0008B4201D3CB03C01A5241830B8B4201D333
:10E2E0008B03C01A5241430B8B4201D34B03C01A1C
:10E2F0005241030B8B4201D30B03C01A5241C30A94
:10E300008B4201D3CB02C01A5241830A8B4201D304
:10E310008B02C01A5241430A8B4201D34B02C01AEE
:10E320005241030A8B4201D30B02C01A5241CDD293
:10E33000C3098B4201D3CB01C01A524183098B42DE
:10E3400001D38B01C01A524143098B4201D34B01C7
:10E35000C01A524103098B4201D30B01C01A52412A
:10E36000C3088B4201D3CB00C01A524183088B42B1
:10E3700001D38B00C01A524143088B4201D34B009A
:10E38000C01A5241411A00D201465241104670470C
:10E390005DE0CA0F00D04942031000D34042534011
:10E3A00000229C4603098B422DD3030A8B4212D3D1
:10E3B000FC22890112BA030A8B420CD38901921103
:10E3C0008B4208D3890192118B4204D389013AD040
:10E3D000921100E08909C3098B4201D3CB01C01A15
:10E3E000524183098B4201D38B01C01A5241430928
:10E3F0008B4201D34B01C01A524103098B4201D316
:10E400000B01C01A5241C3088B4201D3CB00C01A82
:10E41000524183088B4201D38B00C01A5241D9D29A
:10E4200043088B4201D34B00C01A5241411A00D21B
:10E430000146634652415B10104601D34042002B17
:10E4400000D54942704763465B1000D3404201B596
:10E45000002000F00BF802BD0029F8D003B5FFF74B
:10E4600015FF0EBC4243891A1847C0467047C04684
:10E47000002310B5934203D0CC5CC4540133F9E7B8
:10E4800010BD000003210A4802680A4302600948DF
:10E4900002680A4302600849084A094B9B1A03DDD7
:10E4A000043BC858D050FBDC06488047064800476C
:10E4B000240500405405004058E60300682C002065
:10E4C000682C0020C1DD0300D9C00300FEE7FEE791
:10E4D000FEE7FEE7FEE7FEE7084B10B5041C002B45
:10E4E00002D0002100E000BF054B1868836A002BB2
:10E4F00000D09847201C00F033F8C0460000000010
:10E50000BCE503000E4B70B500251E1C0D4CE41A33
:10E51000A410A54204D0AB00F35898470135F8E7A2
:10E5200000F020F8084B00251E1C084CE41AA4102B
:10E53000A54204D0AB00F35898470135F8E770BD09
:10E54000682C0020682C0020682C0020682C0020FB
:10E55000031C8218934202D019700133FAE7704706
:10E56000FEE7C046F8B5C046F8BC08BC9E467047FA
:10E57000F8B5C046F8BC08BC9E467047535441529B
:10E5800054494E47210A00446F6E650A000000009E
:10E5900065D5030089D50300B9D5030025D603004E
:10E5A00041D603005DD0030025D003004DD0030009
:10E5B000E1CF0300B5CF030043000000082C00208A
:08E5C00018DBFF7F01000000E1
:10E5C8000100FFFF60FF6300000000000000000082
:10E5D8000000000000000000000000000000000033
:10E5E8000000000000000000B8E503000000000083
:10E5F8000000000000000000000000000000000013
:10E608000000000000000000000000000000000002
:10E6180000000000000000000000000000000000F2
:08E628000000000000000000EA
:10E6300000000102030405060708090A0B0C0D0E71
:10E640000F101112131415161718191A1B1C1D1E62
:04E650001F2028005F
:04E6540078563412AE
:020000020000FC
:020000041000EA
:0410140000C0030015
:040000033000E48560
:00000001FF
