:020000021000EC
:1080000000700020C1820100098301000B83010080
:108010000000000000000000000000000000000060
:108020000000000000000000000000000D830100BF
:1080300000000000000000000F8301001183010018
:1080400013830100138301000D050200FD3D0200B2
:10805000992D0200000000009D1D0200DDED0100D1
:1080600013830100792D0200892D02001383010082
:1080700013830100138301001383010013830100A4
:10808000C12D0200C5FC0100138301001383010010
:1080900095FD0100F9170200293C0200138301003D
:1080A00013830100138301000000000000000000A2
:1080B00000000000000000000000000000000000C0
:1080C000008001009806030000000800670004011A
:1080D000000000000000000004F50200D0020300D0
:1080E000B4F7020080CE0200C0CE02008CF702007E
:1080F00054F8020020F602004CF7020088F6020055
:1081000010F80200F4F602003CCF020010CF02008B
:108110001CF60200E8F50200D8F5020010B5064C86
:108120002378002B07D1054B002B02D0044800E038
:1081300000BF0123237010BD442100200000000077
:108140002405030008B5084B002B03D00748084955
:1081500000E000BF07480368002B00D108BD064BB4
:10816000002BFBD09847F9E700000000240503002E
:10817000482100204421002000000000164B002B65
:1081800000D1144B9D46402292029A1A9246002139
:108190008B460F461348144A121A11F04AFB0F4B34
:1081A000002B00D098470E4B002B00D098470020A2
:1081B000002104000D000D48002802D00C4800E00A
:1081C00000BF11F0BBFA2000290006F04DFC11F0B1
:1081D0009FFAC04600000800007000200000000068
:1081E00000000000442100200438002000000000AE
:1081F0000000000008B5024B1B681B68019308BD16
:108200001830030008B5024B1B685B68019308BD7A
:108210001830030008B5024B1B689B68019308BD2A
:108220001830030008B5024B1B68DB68019308BDDA
:1082300018300300031E00D0987B7047FF230028EE
:1082400000D0C37B181C7047002801D0808900E053
:1082500000487047FFFF000043680068181A704725
:108260007047000008B506F020FC054B1870002888
:1082700002D0FFF7BFFF02E004200EF011FF08BD9F
:108280000420002008B5034B1B78002B01D0FFF71A
:10829000B9FF08BD0420002008B5034B1B78002B54
:1082A00001D0FFF7B7FF08BD0420002008B5034B3D
:1082B0001B78002B01D0FFF7B5FF08BD042000207C
:1082C00003210A4802680A430260094802680A4317
:1082D00002600849084A094B9B1A03DD043BC85851
:1082E000D050FBDC06488047064800472405004084
:1082F000540500402C0503000020002044210020EC
:10830000715202007D810100FEE7FEE7FEE7FEE715
:10831000FEE7FEE7F7B5C02A08D080235B009A424B
:1083200006D0F63B802A00D0C4E002E00C2300E037
:108330000E230360031C0026083352114360019290
:10834000019A964210DAB700CD196C7801362402F2
:10835000A4466246AC78ED7824041443CA5D2D0629
:1083600014432C43DC51EBE702680C2A2DD00E2A73
:108370005AD00A2A00D09DE000244F49186861585D
:10838000DA684140FF204D4F150A05407E5D150E0D
:1083900071407E5D0434360471400D1C111C014097
:1083A000795C09066940150C2840385C00024140A0
:1083B0005868196141409868596141404A40996143
:1083C000DA611033282CD8D174E000243A491868B7
:1083D00061585A694140FF20384F150A05407E5DBB
:1083E000150E71407E5D0434360471400D1C111C65
:1083F0000140795C09066940150C2840385C000290
:1084000041405868996141409868D9614140D868B5
:10841000196241401869596241404A409962DA62E2
:108420001833202CD2D145E00026FF20224ADD69F6
:108430001968B258214C4A40290A0140675C290E4C
:108440007A40675C04363F047A40111C2A1C0240C3
:10845000A25C12064A40290C0140615C09024A40B4
:1084600059681A624A4099685A624A40D9689A62C1
:108470004A40111C0140675C1969DA624F40110ED5
:10848000615C09067940170A0740E75D3F024F40EB
:10849000110C0A1C0240A25C596912047A401A634A
:1084A0004A4099695A634A409A636A40DA632033C2
:1084B0001C2EBAD1F7BDC04670E0020070CF02009A
:1084C000F0B5C9B0C02A07D080235B009A4205D01E
:1084D000F63B802A57D102E00C2300E00E23036014
:1084E000031C041C0833436002A8FFF713FF029B20
:1084F000039A1B01D3181A68A2605A68E2609A684E
:108500002261221CD9681832616121680139019108
:108510000199103B002928DD002019581B4D0C0E35
:108520002E5D0F1CFF242740EF5DB600BF00BC4648
:108530006446174FF659174FE759FF247E400F0A3C
:108540002740EF5D144CBF003F59FF24090C214028
:10855000695C124C890009597E404E401650043027
:108560001028DAD110320199D0E7196802A81160F9
:108570005968516099689160DB680021D3608C2252
:10858000520011F056F949B0F0BDC04670CF02005C
:1085900070DC020070D0020070D4020070D80200BB
:1085A000F0B589B0061C039343685078D57807026C
:1085B00090782D060004384317781C683843284308
:1085C000444000949079547917790004D5792402B5
:1085D00004433C432D0658682C4360400190547A74
:1085E000907A240200040443107A557B0443D07A25
:1085F0002F020006957B04439868444028043D1CE4
:108600000543107B02942843D57B1A1C2D06DB689A
:1086100005435D40336810325B10013B079300292E
:1086200000D09BE10799FF23002900DCD0E00099EE
:10863000C5481940890047581168C44E4F400199F8
:10864000C348090E89008959029C4F40290A1940E4
:10865000890009584F40BC46270C6446BD491F405D
:10866000BF007F587C40019F04941F40B64CBF0060
:10867000E75954686740029C240EA400A4597C402A
:10868000A446009C270A64461F40BF003F587C4018
:108690002F0C1F40BF007F587C40029F05941F4055
:1086A000A94CBF00E759946867402C0EA400A45958
:1086B0001D407C40A446019CAD00270A64461F4033
:1086C000BF003F587C40A446009C270C64461F40D6
:1086D000BF007F587C40A4469B4C6559D4686540D8
:1086E000009C270E029CBF00240ABF591C40A40016
:1086F0006F402558019C7D40270C1F40BF007C58CF
:10870000049F6540059C06951F408F4D240EBF00B9
:10871000A400EF59A45915697C406C40069D2F0AAE
:1087200065461F40BF003F587C402F0C1F40BF00D4
:108730007F587C40059F00941F402C0E824DBF0047
:10874000A400EF59A45955697C406C40049D2F0A40
:108750001F40BF003F58069D7C402F0C1F40BF00AC
:108760007F587C40674601941F402C0E764DBF0019
:10877000A400EF59A45995697C406C40059D2F0ACF
:108780001F40BF003F58049D7C402F0C1F40BF007E
:108790007F58069D7C400294049C1D40270E6A4C25
:1087A000BF00AD00BE596559D46975406540644647
:1087B000270A1F40BF003E5805987540070C1F4010
:1087C000BF007B5820325D40079B013B079329E7A0
:1087D0005E4900988C465C4C1840800020586446E6
:1087E00001995B4F090E890009595A4E484011689A
:1087F000554C4840290A19408900C95948400299F6
:10880000090C19408900895948400490019802993F
:108810001840800020586446090E890009594A4CC6
:108820004840516848400099090A19408900C959CF
:108830004840290C19408900895948400590029800
:10884000290E1840800020586446890009591D40AF
:1088500041409068AD0041400198000A18408000F6
:10886000C05941400098000C184080008059414098
:108870000098354C000E655964468000005945400B
:10888000D06845400298040A1C40A400E059049CAA
:10889000454001981C40070C1F40BF00B8592E4F9F
:1088A000684016693D5D059C6E40351C240E3C5D9C
:1088B00024066540040A1C403E5D2C1C0D0C1D4026
:1088C000360274407E5D556936046640059C1C4046
:1088D0003C5D65400C0E3C5D24066C40049D2D0AF9
:1088E0001D407D5D2D026C40050C1D407D5D2D04FD
:1088F00065400C1C1C403C5D00959569D269654043
:10890000040E3C5D184024066C40059D385C2D0A21
:108910001D407D5D42402D026C40049D090A2D0CD6
:108920001D407D5D04981940000E385C2D04000642
:108930004240785C059900024240080C0340F85C14
:108940006C40000442409EE170D0020070DC0200E6
:1089500070D4020070D8020098F002000799FF233B
:10896000002900DCC9E00099DA4819408900405824
:108970001168D94F4840290E8900C959D74E48403F
:108980000199090A1940890089594840844664467A
:108990000298D349000C1840800040584440019888
:1089A00004941840CB4C8000205854686040009CD0
:1089B000240EA400E45944400298000A18408000A4
:1089C00080594440280C1840800040584440029888
:1089D00005941840BF4C8000205894686040019C6A
:1089E000240EA400E4594440280A1840800080590D
:1089F0001D4044400098AD00000C184080004058D5
:108A00004440B448A4464559D06845400298040EF5
:108A1000A400E05945400098000A184080008059A1
:108A200045400198040C1C40A4006058049C45403B
:108A300006951C40280EA74DA40080002C59C05953
:108A4000604014696040059C240A1C40A400A4599D
:108A500060406446240C1C40A400645860400090B0
:108A6000059C04981C40000EA40080002C59C0599D
:108A70004440506944406046000A184080008059D4
:108A800044400698000C184080004058444001942F
:108A9000644605981C40000EA40080002C59C05963
:108AA0004440906944400698000A1840800080596C
:108AB00044400498069D000C1840800040581D401A
:108AC000444060460294000E824CAD008000C059C4
:108AD00065594540D069203245400498000A184045
:108AE0008000805945400598000C1840800043588C
:108AF0005D40079B013B079330E7009E7648754C2D
:108B00001E40290EB60089000958A659734F4E40E1
:108B100011684E400199090A19408900C9594E400F
:108B2000B446644602996E4E090C19408900895971
:108B30004C4001990494194089008C460099654C79
:108B4000090E89000591614661588C466446059975
:108B50000958614054684C400299090A194089003B
:108B6000C9594C40290C1940890089594C40029937
:108B70000594194089008C460199564C090E8900CC
:108B80000691614661588C466446069909586140D1
:108B900094684C40290A19408900C9591D404C402D
:108BA0000099AD00090C1940890089596140029C67
:108BB000240EA400A446474C655964462058049CE2
:108BC0004540D0681C4045400098000A184080008D
:108BD000C75901987D40070C1F40BF004148BF594D
:108BE00016696F40055D3C0E6E40351C045D240621
:108BF0006540059C240A1C40065D2C1C0D0C1D4084
:108C000036027440465D556936046640059C1C403A
:108C1000045D6540049C240E045D24066C400D0A2E
:108C20001D40455D2D026C403D0C1D40455D2D04F1
:108C300065400C1C1C40045D00959569090E65405B
:108C4000059C240E045D24066C403D0A1D40455DD4
:108C50001F402D026C40049DD269C75D2D0C57400A
:108C6000425C1D4012065740049A455D110A1940A6
:108C7000425C2D0412025740059A6C40110C0B40C7
:108C8000C25C12047A40039B03991E70330A4B7036
:108C9000330C360E8B70CE700B1C69460978197137
:108CA000009B03991B0A4B71009B0C721B0C8B7170
:108CB000009B0A731D0E230A4B72230C8B72130A3E
:108CC000240E4B73130C120ECD71CC728B73CA73BE
:108CD00009B0F0BD98E0020098EC020098E40200B0
:108CE00098E8020070CF0200F0B589B002900391BD
:108CF000171C0193161C151C002935D10F9B7C1BDA
:108D00001C19002D39DD0E99102204A810F074FDF5
:108D10000E9A02980021231CFFF742FC0022019BBF
:108D2000995CA35C4B40A3540132102AF7D10198FF
:108D300004A910F061FD0E9B103D10330E93DDE78A
:108D4000019B595D535D4B4063550135102DF7D1A3
:108D500002980399221C231CFFF722FC0198211C76
:108D60002A1C10F049FD103E0E9BBC1B1A190F9BCC
:108D70001C19002E01DD0025E2E709B0F0BD131C2F
:108D8000303B10B5DCB2092C00D9FF230360131C63
:108D9000413B052B01D80A330360131C613B052BB3
:108DA00001D8573A0260036800208B4201D30620A5
:108DB000404210BD0023F0B5161C1D1C854211DA7F
:108DC00034689C42BF41E41A3460AB00CB587F4208
:108DD0009C469C429B415B42DB196746E41B10C6E4
:108DE0000135EBE7C143C917084080001218002B7A
:108DF00006D01168C81A99429B4101C25B42F6E74E
:108E0000F0BDF0B54F464646C0B487B0019300238D
:108E1000844603910292059363460F2B00DCDFE149
:108E200003980299059A019B1F0CB9461F043F0C39
:108E3000B84640C8370C3604360C444674434B469B
:108E40005E434D467D4343465F43330CED183B0C78
:108E5000ED18A418002255413304E41855413B0491
:108E6000E41855410B68E4186A4110C140C8370C3A
:108E70003604360C444674434B465E434D467D43B0
:108E800043465F43330CED183B0CED18A418002249
:108E900055413304E41855413B04E41855410B682F
:108EA000E4186A4110C140C8370C3604360C4446F9
:108EB00074434B465E434D467D4343465F43330C0C
:108EC000ED183B0CED18A418002255413304E418AA
:108ED00055413B04E41855410B68E4186A4110C140
:108EE00040C8370C3604360C444674434B465E4348
:108EF0004D467D4343465F43330CED183B0CED1864
:108F0000A418002255413304E41855413B04E418E9
:108F100055410B68E4186A4110C140C8370C36044B
:108F2000360C444674434B465E434D467D434346B0
:108F30005F43330CED183B0CED18A418002255418B
:108F40003304E41855413B04E41855410B68E41818
:108F50006A4110C140C8370C3604360C444674438D
:108F60004B465E434D467D4343465F43330CED180D
:108F70003B0CED18A418002255413304E418554168
:108F80003B04E41855410B68E4186A4110C140C81D
:108F9000370C3604360C444674434B465E434D460C
:108FA0007D4343465F43330CED183B0CED18A4188A
:108FB000002255413304E41855413B04E41855415F
:108FC0000B68E4186A4110C140C8370C3604360CEF
:108FD000444674434B465E434D467D4343465F43A0
:108FE000330CED183B0CED18A41800225541330446
:108FF000E41855413B04E41855410B68E4186A41F4
:1090000010C140C8370C3604360C444674434B46F6
:109010005E434D467D4343465F43330CED183B0CA6
:10902000ED18A418002255413304E41855413B04BF
:10903000E41855410B68E4186A4110C140C8370C68
:109040003604360C444674434B465E434D467D43DE
:1090500043465F43330CED183B0CED18A418002277
:1090600055413304E41855413B04E41855410B685D
:10907000E4186A4110C140C8370C3604360C444627
:1090800074434B465E434D467D4343465F43330C3A
:10909000ED183B0CED18A418002255413304E418D8
:1090A00055413B04E41855410B68E4186A4110C16E
:1090B00040C8370C3604360C444674434B465E4376
:1090C0004D467D4343465F43330CED183B0CED1892
:1090D000A418002255413304E41855413B04E41818
:1090E00055410B68E4186A4110C140C8370C36047A
:1090F000360C444674434B465E434D467D434346DF
:109100005F43330CED183B0CED18A41800225541B9
:109110003304E41855413B04E41855410B68E41846
:109120006A4110C140C8370C3604360C44467443BB
:109130004B465E434D467D4343465F43330CED183B
:109140003B0CED18A418002255413304E418554196
:109150003B04E41855410B68E4186A4110C140C84B
:10916000370C3604360C444674434B465E434D463A
:109170007D4343465F43330CED183B0CED18A418B8
:10918000002255413304E41855413B04E41855418D
:109190000B68E4186A4110C140C8370C3604360C1D
:1091A000444674434B465E434D467D4343465F43CE
:1091B000330CED183B0CED18A41800225541330474
:1091C000E41855413B04E41855410B68E4186A4122
:1091D00010C105920291039010235B429C441BE650
:1091E0006346072B00DCF7E003980299059A019B80
:1091F0001F0CB9461F043F0CB84640C8370C360454
:10920000360C444674434B465E434D467D434346CD
:109210005F43330CED183B0CED18A41800225541A8
:109220003304E41855413B04E41855410B68E41835
:109230006A4110C140C8370C3604360C44467443AA
:109240004B465E434D467D4343465F43330CED182A
:109250003B0CED18A418002255413304E418554185
:109260003B04E41855410B68E4186A4110C140C83A
:10927000370C3604360C444674434B465E434D4629
:109280007D4343465F43330CED183B0CED18A418A7
:10929000002255413304E41855413B04E41855417C
:1092A0000B68E4186A4110C140C8370C3604360C0C
:1092B000444674434B465E434D467D4343465F43BD
:1092C000330CED183B0CED18A41800225541330463
:1092D000E41855413B04E41855410B68E4186A4111
:1092E00010C140C8370C3604360C444674434B4614
:1092F0005E434D467D4343465F43330CED183B0CC4
:10930000ED18A418002255413304E41855413B04DC
:10931000E41855410B68E4186A4110C140C8370C85
:109320003604360C444674434B465E434D467D43FB
:1093300043465F43330CED183B0CED18A418002294
:1093400055413304E41855413B04E41855410B687A
:10935000E4186A4110C140C8370C3604360C444644
:1093600074434B465E434D467D4343465F43330C57
:10937000ED183B0CED18A418002255413304E418F5
:1093800055413B04E41855410B68E4186A4110C18B
:1093900040C8370C3604360C444674434B465E4393
:1093A0004D467D4343465F43330CED183B0CED18AF
:1093B000A418002255413304E41855413B04E41835
:1093C00055410B68E4186A4110C10592029103905F
:1093D00008235B429C4403E76346002B2CDD039883
:1093E0000299059A019B1F0CB9461F043F0CB84611
:1093F00040C8370C3604360C444674434B465E4333
:109400004D467D4343465F43330CED183B0CED184E
:10941000A418002255413304E41855413B04E418D4
:1094200055410B68E4186A4110C1059202910390FE
:1094300001235B429C44CFE7029A059913685B18AD
:109440001360029A059908CA8B429B415B420593BF
:109450000292002BF0D107B00CBC90469946F0BDAB
:10946000002804D001230360002343608360704719
:1094700010B5002810D0041C8068002807D063684D
:1094800000219A0010F0D5F9A06810F091F901239D
:10949000236000236360A36010BDF7B54368002517
:1094A00000938B4225DA8E00041C301C019110F0D1
:1094B00075F9071EAF421BD0321C291C10F0B9F9F8
:1094C000A668AE420FD0009B311C9B001A1C381CB2
:1094D000009310F091F9301C291C009A10F0A9F9A2
:1094E000A06810F065F9019BA7606360002500E0AB
:1094F0000125281CFEBDF8B50027884221D04B6805
:109500005A1E9300002A04DD8C68E458043B002CAA
:1095100015D00B68541C0E1C0360211C051CFFF7A2
:10952000BCFF071E0DD16B68391C9A00A86810F0AB
:1095300080F9A868A200B16810F05EF901E0013A74
:10954000E0E7381CF8BD7FB5061C0C240D1C221C5E
:10955000311C01A810F050F9291C301C221C10F0FD
:109560004BF9281C01A9221C10F046F97FBD70B5EB
:109570000C1C0121051CFFF790FF061E0ED16B6825
:10958000311C9A00A86810F054F9E117AB68621812
:109590004A401A600123E4171C432C60301C70BD44
:1095A00000231A1CF0B54768BA4213DA84689100A8
:1095B0000E591C1C20341D1CA446341C591BCC40C5
:1095C000211CC90704D401336345F6D10132EBE70E
:1095D000181C00E00020F0BD10B54368013B9A0064
:1095E0008168002B03DD8C58043A002C03D09A00CC
:1095F0008A581F2003E0013BF2E7013803D3111C16
:10960000C140C907F9D55B011818013010BD08B574
:10961000FFF7E2FF0730C01008BDF7B5061C0F1CAE
:10962000151C0024AC4202DA3B5D002B0BD02B1B37
:109630000333D917890FC9188910301CFFF72DFF84
:10964000011E23D101E00134ECE7301CFFF78FFF4E
:109650006A1E011E1AD1681E831A9C46A24215DB9F
:109660006346B0689B109B00C3180093BB5C03204B
:10967000019363461840019BC0008340181C009B67
:10968000013A1B681843009B1860E4E7081CFEBD04
:10969000F7B5061C0F1C151CFFF7B9FF041C85420B
:1096A0001DDB381C00212A1C10F0C3F8231CE21A11
:1096B0009446002B11DD61462A1B9A18013A01924B
:1096C0008810624603211140B26880008058C900AA
:1096D000C840019A013BB854E9E7002001E00820A6
:1096E0004042FEBDF7B51F27CD17061CED0E0C1C22
:1096F0006D180F40FFF770FF736804196D115B015F
:10970000A34202DB002D0EDC0AE01F34E117C90E74
:1097100009194911301CFFF7C0FE0028F2D034E0CF
:10972000002F19D116E07268A900531E4942920019
:10973000043AAB4205DBB068013B8418645884509E
:10974000F6E79A00002BEBDB0021B068013B81506B
:10975000043AF7E7002018E00022A90073689D4250
:10976000F8DA2020B368C01B5B181C680190201C2D
:10977000B8401860B36801355B18186804310243BB
:109780001A60221C019BDA40E8E7FEBDF7B51F22F4
:10979000CB17DB0E5B18114000225B11934206DCF5
:1097A000002930D0436800265C1E9B0015E0446809
:1097B000E51A9400AA4206DA8668D518AD00AD59BC
:1097C00001323551F3E7231C4468A242E8DA002451
:1097D00085680132EC500433F6E7043B002C12DBC1
:1097E000202582686D1AD218176801953D1CCD405E
:1097F00015608268013CD21815682E4316603E1C25
:10980000019A9640E9E70020FEBDF0B5051C4368CB
:10981000013B9A00002B04DBA8688058043A00281A
:1098200004D04A681C1C013A900007E0013BF1E7B4
:109830008E6837580438002F03D1013A002AF7DA2E
:109840001BE00120002B01DA404218E0934216DCB5
:109850009A4210DC9B00002C09DBAA68D158F25810
:10986000914206D8043B914205D3013CF3E7002026
:1098700005E0012003E00120E6E7D843C00FF0BD7A
:10988000F0B58BB0109F09937B6806910292061C7D
:109890009A00B86800210FF0CCFFBB680593029BCB
:1098A0005C68069B5B680393A34200DD0394631C22
:1098B0009B0008930023059D0193019BB068A34280
:1098C00024DA019B9B00C35803980493069B049AD7
:1098D00099680B6853432A689B18099A5A43049B5A
:1098E00007922A1CFFF78DFA029B2A1C9968201CFC
:1098F000079BFFF786FA0022049B2B60089BEB185E
:109900005A60019B043501330193D6E7E143C9173F
:10991000059B2140621C8900591892000FF06CFFD2
:10992000301C0299FFF771FF002804DB029B201C0A
:109930009968B26802E0201CB168BA68FFF73AFA89
:109940000BB0F0BDF0B54368013B9A00002B04DB7F
:109950008468A458043A002C04D04A681D1C013ABB
:10996000940007E0013BF1E78E683759043C002F73
:1099700003D1013A002AF7DA27E00468002B01DA64
:10998000624225E0934201DD026821E09A42F7DC61
:10999000221E096801DD002915DB002901DC9B007E
:1099A0000DE0002CFBDA0122524211E08168CF5811
:1099B000F1588F420CD8043B8F42E1D3013D002D7A
:1099C000F4DA002204E0012202E000229342DBDA12
:1099D000101CF0BD1FB5CA178B185340009301230C
:1099E000C917194302936B46019101A90393FFF72D
:1099F000A9FF05B000BDF7B5051C141C904206D0A8
:109A0000884205D0FFF777FD061E01D045E00C1C0B
:109A100063685F1EBB00002F04DBA268D258043BC2
:109A2000002A0AD0791C281CFFF737FD061E34D106
:109A3000A068AB68341C311C01E0013FEBE7B94280
:109A400011DC1A680131A218A242A4411A606442D2
:109A500001940468121904C310C8A2429241019CE7
:109A600052421419EBE78F00002C16D04A1C0192C9
:109A70006A68914207DB281C0199FFF70EFD002858
:109A80000AD1AB68DB191A680199A218A242A44155
:109A90001A6064420437E7E7061C301CFEBDF0B5CF
:109AA000051C85B00F1C081C111C141CFFF7ADFE13
:109AB00000282DDB01230193002302930393A54289
:109AC00006D101A8291CFFF716FD061E1BD101AC0B
:109AD000BD4203D16368581E83000CE0281C391C6A
:109AE000FFF709FD061E0ED1F4E7A268D258043B29
:109AF000002A02D101380028F7DA0130A168AA68EB
:109B0000FFF758F9002601A8FFF7B2FC301C01E06E
:109B10000A20404205B0F0BDF8B50D681368041C7A
:109B20006B430F1C161C002B14DA081C111CFFF7CA
:109B30006CFE002805DB201C391C321CFFF7AFFF30
:109B40000AE0201C311C3A1CFFF7A9FF6D420028D7
:109B500004D004E0FFF74FFF002800D12560F8BDD6
:109B6000F8B50D681368041C6B430F1C161C002B02
:109B700014DD081C111CFFF748FE002805DB201C23
:109B8000391C321CFFF78BFF0AE0201C311C3A1CE9
:109B9000FFF785FF6D42002804D004E0FFF72BFF9C
:109BA000002800D12560F8BD1FB5D41713196340F4
:109BB00000930123D2171A4302936B46019201AA24
:109BC0000393FFF7A9FF04B010BD1FB5D4171319F5
:109BD000634000930123D2171A4302936B4601920C
:109BE00001AA0393FFF7BCFF04B010BDF0B500233A
:109BF000161C01228BB0051C0F1C049205930693C2
:109C0000079208930993884207D104A8291CFFF7FB
:109C100072FC019000284FD104AFB54207D107A8CC
:109C2000291CFFF768FC0190002845D107AE7B682E
:109C3000013B02939B00029A002A04DBBA68D258C7
:109C4000043B002A03D073685C1EA30009E0029A5B
:109C5000013A0292EFE7B268D258043B002A02D1DF
:109C6000013C002CF7DA029B281C191902310394DD
:109C7000FFF713FC019000281ED1281C0199FFF763
:109C800076FC0190002817D1029BA40001330293B7
:109C9000039B002B0CDBAB6802981A19B368B968F8
:109CA0001B59FFF7AEF8039B043C013B0393EFE71E
:109CB0003A68336853432B6007A8FFF7D9FB04A821
:109CC000FFF7D6FB01980BB0F0BD1FB50123019340
:109CD00002936B46009201AA0393FFF787FF05B03A
:109CE00000BDF0B58B1E87B00E2B76D801230091F6
:109CF00000210393009B161C051C04910591102B59
:109D00003AD1101C0FF0F2FF81001F314909281CC5
:109D1000FFF7C3FB041E5BD1211C281CFFF727FCA7
:109D2000041E55D1301C0FF0E1FF431E1F1C009391
:109D3000009BDB1B0193002F28DB05D133782D2BF3
:109D400002D12E3B2B6043E0F25D02A81021FFF709
:109D500016F800283BD1019BAA68DB109B00D318A2
:109D600007220199013F0A400299920091400A1C82
:109D700019680A431A60DBE7FFF7F9FB041C071EAA
:109D800026D1301C0FF0B2FF874201DB00241FE018
:109D9000002F05D133782D2B02D12E3B2B6014E000
:109DA000F25D02A80099FEF7EAFF041E10D103A895
:109DB000291C009AFFF789FF041E09D1281C03A95A
:109DC000029AFFF7F1FE041E02D10137D9E7041C05
:109DD00003A8FFF74DFB201C01E00420404207B020
:109DE000F0BD0000F0B5A1B006900391181C002151
:109DF00005920B93FFF7EEFD002800D1D3E100257B
:109E0000012405980B9911941295139514941595A6
:109E100016951794189519951A941B951C951D94D1
:109E20001E951F95FFF7F1FCA84217DA069BAB427F
:109E300003D1039B002B08D10EE0291C0698FFF7E5
:109E400096FB051E00D09DE1F3E703980599FFF707
:109E500052FB051E00D095E10020A6E111A805994E
:109E6000FFF749FB051E00D08CE114A80B99FFF702
:109E700042FB051E00D085E1059B17A85B68149482
:109E8000991C11940093FFF708FB051E00D079E19F
:109E9000291C17A8FFF76BFB051E00D072E11AA85A
:109EA0000221FFF7FAFA051E00D06BE11DA803217D
:109EB000FFF7F3FA051E00D064E114A8FFF78CFB4E
:109EC000BB4B184004D5202301385B4218430130B6
:109ED0001F2811D01F231B1A191C11A80793FFF765
:109EE00001FC002800D04CE114A80799FFF7FAFB09
:109EF000002800D045E101E000230793129F159C44
:109F00007B1E0193631E0893089A019B14A89B1A59
:109F10005E01311C0093FFF7E5FB009B9B00009363
:109F200011A814A9FFF70EFD00280BDB199B009A5E
:109F300011A89B181A68011C01321A6014AAFFF7B5
:109F40000FFEEDE714A8311CFFF720FC089B9B00D7
:109F50000C93043B0F93019B1C1BA3000093630114
:109F60000A93944BFF18BB000493089A019B9342F9
:109F700000DCD9E0049B139F04330D93FE580C9A28
:109F8000169B9C58A64205D30123199A00995B425F
:109F900053503AE0A3B20E93230C301C191C0993C2
:109FA00010F0E8FF031C099A02905343F61A049B31
:109FB0003604FF580E9A3B0C1E43031C5343021CED
:109FC0009E4208D2013A36190292A64203D39E421B
:109FD00001D2029AF6E7F61A301C099910F0CAFF6E
:109FE000099B4343F61A3604BBB21E43371C0E9B33
:109FF00043439F4203D23F190138A742F9D2029B43
:10A00000009A1C04199B04439C50199B009A9B18AE
:10A010001A6801321A60049B1C1F199B009A1AA827
:10A020009B181A680021013A1A60FFF7A0FA00286D
:10A0300000D0A6E0089A1C9B002A02DD169A0F9910
:10A0400050581860169A0C991C9B52581AA85A60BE
:10A05000199B009A011C9A58FFF737FE011E00D089
:10A060008DE01DA8FFF783FA002800D089E0019A4F
:10A070001F9B012A01DD139A1059186000230199D2
:10A080001F9A994202DD139B04995B585360139AFF
:10A090000D991F9B029252581AA89A601DA9FFF7AA
:10A0A00051FC0028B9DC199B009A1AA814A99A58E7
:10A0B0000293FFF70AFE002863D11AA80A99FFF756
:10A0C00011FB00285DD111A8011C1AAAFFF748FD59
:10A0D000011E54D111A8FFF77DFC002818DA1AA838
:10A0E00014A9FFF708FA00284BD11AA80A99FFF71C
:10A0F000F9FA002845D111A8011C1AAAFFF70CFD96
:10A1000000283ED1199B009A9B181A68013A1A60E0
:10A11000019B013B0193009B043B00930A9B203B66
:10A120000A93049B043B1FE7069B002B0CD0181CD2
:10A1300017A9FFF7E0F9059B1B6800930B9B009A9A
:10A140001B685343069A1360039B002B1AD0079990
:10A1500011A8FFF71BFB11A90398FFF7CCF9059B8A
:10A1600000211B680093009A039B1A60181CFFF7DC
:10A1700031FC002806D10123039A136002E00D1C74
:10A1800000E0051C11A8FFF773F914A8FFF770F998
:10A1900017A8FFF76DF91AA8FFF76AF91DA8FFF7CE
:10A1A00067F9281C01E00C20404221B0F0BDC046F8
:10A1B0001F000080FEFFFF3F70B50B1C041C161C27
:10A1C00000201A1C211C331CFFF70CFE051E1CD19D
:10A1D000201C0021FFF7FEFB00280EDA201C211CAA
:10A1E000321CFFF799FC0028F2D00DE0201C211C46
:10A1F000321CFFF7B5FC002806D1201C311CFFF7EC
:10A20000A1FB0028F2DA00E0051C281C70BDF0B5A7
:10A2100085B0002A34D0D317D4185C400023012C19
:10A2200005D0022C05D18B681A6801231340036006
:10A2300024E003900E1C00204D686F1EAD00043D0D
:10A24000002F19DBB36800045B59211C01931B0C20
:10A250001843029010F08EFE6043029B211C181AD6
:10A260006B469B8800041843019010F083FE604306
:10A27000019B013F181AE2E7039B1860002001E0F0
:10A280000C20404205B0F0BDF0B5D44C0F1CA544E5
:10A2900004900021181C08921C1CFFF79BFB00284F
:10A2A00000DA9FE10126A3681D68354200D199E1DB
:10A2B000C0220021920014A80C910D910F911091D1
:10A2C0000B960E960FF0B5FA0898FFF785F906235E
:10A2D0000393C34B98420CDC05230393EF2808DC5F
:10A2E000013B03934F2804DC013B0393172800DC58
:10A2F0000396636804985E1C311CFFF7CEF8029049
:10A30000002800D04AE117A8311CFFF7C6F80290D8
:10A31000002800D042E171000EA8FFF7BEF80290BD
:10A32000002800D03AE1DA9B0BA8002B04D09B68F0
:10A33000DA990293002B1DD10121FFF718F9029041
:10A34000002800D02AE163680BA89901FFF7CAF939
:10A350000290002800D021E10BA8011C221CFFF76D
:10A360002BFF0290002800D018E1DA9B002B04D0CC
:10A37000181C0BA90C220FF03FFA381C211CFFF708
:10A38000E1FA002805DB17A8391C221CFFF714FF8F
:10A3900003E017A8391CFFF7AEF80423AA1C1340EA
:10A3A0005B005A192B1C02215343CB1A53432A1C1E
:10A3B0005A438A1A53435D436D1A5D430EAB0093B3
:10A3C00017A80BA9221C2B1C0595FFF759FA049816
:10A3D0000BA9FFF790F80290002800D0DEE00127DB
:10A3E0000AAB13930EAB00930498059B11A9221C92
:10A3F0000A9711971297FFF743FA039BBB4206D1C6
:10A400000025089B06955E6807952F1C5FE0039B5F
:10A410000C25013B9F407D43069314AB5D19636897
:10A42000281C591CFFF739F8002800D0B5E0281C7B
:10A4300017A9FFF760F8002800D0AEE0029E0EAB2F
:10A440000093281C059B291C221CFFF719FA069B68
:10A4500001369E42F3DB01230C25039A013793401A
:10A460007D43069314AB5D19069B9F42C8DA63686F
:10A47000281C591C2E1CFFF710F8002800D08CE077
:10A48000291C281C0C39FFF736F80C35002800D0A1
:10A4900083E00EAB0093301C17A9221C059BFFF72D
:10A4A000EFF90137E0E71E1C20230793079B013BD0
:10A4B0000793089B9B680993099AB3009B58079AD6
:10A4C000D340012213401A1C2A430CD1151C079BB0
:10A4D000002BEBD1731E002EE5D10123039A351C0E
:10A4E0009340079347E0002B0AD1012D08D104982F
:10A4F0000EAB0093011C221C059BFFF7C1F9E6E798
:10A50000069A0225013206920699039A521A93403E
:10A51000039A1F439142DAD1002504980EAB0093B1
:10A52000011C059B221CFFF7ABF9039B01359D42E3
:10A53000F3D10C214F4314ABD91900270EAB009374
:10A540000498221C059BFFF79BF901250697BEE79F
:10A550000498059B0096011C221CFFF791F9079BAC
:10A560007F001F4206D00096049817A9221C059B65
:10A57000FFF786F90135069B0EAE9D42E8DB01230D
:10A580000A93119312930AAB13930096049811A99E
:10A59000221C059BFFF774F900E002900125039B44
:10A5A0005C1E2B1CA3401C1C039B9D40AC4207DA85
:10A5B0000C20604314AB1818FEF75AFF0134F5E77E
:10A5C00017A8FEF755FF0EA8FEF752FFDA9B029C74
:10A5D000002B09D10BA8FEF74BFF05E0ACFCFFFFF9
:10A5E0009F02000004246442201CD5239B009D444C
:10A5F000F0BDC04670B50023151C01228AB0061CB0
:10A6000004A8019202930393049205930693079280
:10A6100008930993FEF76FFF041E5FD107A8291C5A
:10A62000FEF769FF041E59D104A8FEF7B9FF041C08
:10A6300007A8FEF7B5FF051EA54200DD251C04A8EE
:10A64000291CFFF7A3F8041E48D107A8291CFFF70F
:10A650009DF8041E42D101230793049304A800210E
:10A66000FFF7B8F900282ED004A8FEF799FF011CC7
:10A6700004A8FFF78BF8041E30D107A8FEF790FF5F
:10A68000011C07A8FFF782F8041E27D104A807A918
:10A69000FFF758F9002808DB04A8011C07AAFFF7F8
:10A6A000FEF9041E1AD104A807E007A8011C04AA99
:10A6B000FFF7F5F9041E11D107A80121FFF766F88D
:10A6C000041ECBD00AE007A8291CFFF70BF8041ED4
:10A6D00004D1301C07A9FEF70EFF041C07A8FEF7E3
:10A6E000C7FE04A8FEF7C4FE01A8FEF7C1FE201CA9
:10A6F0000AB070BDF0B59FB001900F1C101C002176
:10A70000161CFFF767F9002800DC39E1002301255A
:10A7100003A8391C321C06950793089309950A93E0
:10A720000B930C950D930E930F9510931193039526
:10A7300004930593129513931493159516931793F9
:10A74000189519931A931B951C931D93FFF752FFAD
:10A75000041E00D0F7E003A8291CFFF73BF90028EE
:10A7600000D0EEE006A8391C321CFFF725FD041EC0
:10A7700000D0E8E009A806A9FEF7BDFE041E00D03F
:10A78000E1E012A8311CFEF7B6FE041E00D0DAE0AC
:10A7900015A8311CFEF7AFFE041E00D0D3E00CA8B4
:10A7A000291CFEF7E4FE041E00D0CCE0211C0FA8FB
:10A7B000FEF7DDFE041E00D0C5E0211C18A8FEF740
:10A7C000D6FE041E00D0BEE01BA8291CFEF7CFFE5B
:10A7D000041E00D0B7E001250B9B1B682B4245D11E
:10A7E00009A8291CFEF7D2FF041E00D0ABE00E9B87
:10A7F0001B682B420FD1119B1B682B420BD10CA85D
:10A800000121FEF7C3FF041E00D09CE00FA8012128
:10A81000FEF7BCFFDCE70CA8011C12AAFFF77CF9CD
:10A82000041E00D08FE00FA8011C06AAFFF798F9BC
:10A83000041EE4D087E015A8291CFEF7A7FF041E1C
:10A8400000D080E01A9B1B682B4215D11D9B1B6812
:10A850002B4211D118A80121FEF798FF041E72D1D6
:10A860001BA80121FEF792FF041E6CD10125179B46
:10A870001B682B42DFD00EE018A8011C12AAFFF7BC
:10A880004BF9041E5FD11BA8011C06AAFFF768F94B
:10A89000041EDFD057E009A815A9FFF753F80028D8
:10A8A0001CDB09A8011C15AAFFF75AF9041E4AD19E
:10A8B0000CA8011C18AAFFF753F9041E43D10FA8D6
:10A8C000011C1BAAFFF74CF9041E3CD109A800216A
:10A8D000FFF780F8002800D07DE718E015A8011CDC
:10A8E00009AAFFF73DF9041E2DD118A8011C0CAAD6
:10A8F000FFF736F9041E26D11BA8011C0FAAE1E7B9
:10A9000018A8011C321CFFF707F9041E1BD118A858
:10A910000021FFF75FF80028F2DB06E018A8011C11
:10A92000321CFFF71DF9041E0DD118A8311CFFF7CA
:10A9300009F80028F2DA019818A9FEF7DCFD041CDA
:10A9400001E00E2464421BA8FEF792FD18A8FEF752
:10A950008FFD15A8FEF78CFD12A8FEF789FD03A850
:10A96000FEF786FD0FA8FEF783FD0CA8FEF780FD1D
:10A9700009A8FEF77DFD06A8FEF77AFD201C01E080
:10A98000042040421FB0F0BDF0B599B00591002100
:10A99000051C0692FFF71EF8002800D1F2E0002601
:10A9A00001232A6809930492AA680A960B960C93CD
:10A9B0000D960E960F931096119612931396149669
:10A9C0001593169617962B6012681A4200D1D7E09D
:10A9D0006D4BF458002C14DD281C211CFEF7FAFFE7
:10A9E00000280CDD221C08A8291CFFF710FC041EFF
:10A9F00000D0B2E0089B0436002BE9D1C0E0002073
:10AA0000C0E009A8FEF7CCFD291C0390012209A88B
:10AA1000FFF7DBF8041E00D09FE00CA809A9FEF7A1
:10AA20006AFD041E00D098E00CA80399FEF7AEFE64
:10AA3000041E00D091E0281CFEF7CEFD534B0226E9
:10AA4000984213DC524B013698420FDC514B0136D1
:10AA500098420BDC5E23FF330436984206DC043652
:10AA6000F92803DC0636952800DC0936002302931A
:10AA700012A86968FEF711FD041E6ED1149F3C1CDC
:10AA8000139BE21B07939B009A4205DA0698059BED
:10AA9000984720700134F3E712A8FEF79DFD041CCF
:10AAA00009A8FEF799FD211A013112A8FEF76EFEE2
:10AAB000041E52D10323149A12A811680B43136089
:10AAC00015AB0093011C0CAA2B1CFFF7DDFB041E29
:10AAD00043D112A809A9FEF735FF002805D1029B32
:10AAE00001330293B342C3D137E012A80121FEF72C
:10AAF00071FF01270028F2D0039B9F4206DB12A8BA
:10AB000009A9FEF71FFF00281CD024E012A809A9FC
:10AB1000FEF718FF0028F2D012A90FA80A1CFFF7B1
:10AB200065F8002815D112A80FA92A1CFFF744FBCD
:10AB300000280ED112A80121FEF74CFF0028DED01C
:10AB40000137D9E712A80121FEF744FF0028C6D13A
:10AB500001E0041C01E00E246442049B15A82B6054
:10AB6000FEF786FC12A8FEF783FC0FA8FEF780FC18
:10AB70000CA8FEF77DFC09A8FEF77AFC201C01E07A
:10AB80000E20404219B0F0BD98F1020013050000FC
:10AB90005103000089020000F0B589B0022900DCF1
:10ABA00082E001930123059300230E1C1F314911FC
:10ABB0000392051C06930793FEF76FFC041E6ED1EB
:10ABC000211C281CFEF7D3FC041E68D1AB681F1C97
:10ABD0000293029BFA1A6B689B009A4205DA0E9860
:10ABE000019B984738700137F3E7281CFEF7F4FC07
:10ABF000B04204DA311A281CFEF774FD0EE0B042B0
:10AC000008DC0323AA6811680B431360039B002B25
:10AC100011D018E0811B281CFEF7B8FD00283DD19B
:10AC2000EFE7031C0E3339D1281C291C0222FEF742
:10AC3000BBFF002832D1281C01990E9AFFF7A4FE11
:10AC40000028EED12BE005A8291C0122FEF7BDFF4C
:10AC5000002823D105A80121FEF798FD00281DD169
:10AC6000281C01990E9AFFF78FFE002806D105A82F
:10AC700001990E9AFFF788FE002810D0031C0E33AE
:10AC80000CD105A8291C0122FEF78EFF002805D152
:10AC9000281C291C0222FEF787FFD9E7041C05A8FF
:10ACA000FEF7E6FB201C01E00420404209B0F0BDA5
:10ACB000F8B5041C0F1C161C00219C221D1C0EF054
:10ACC000B8FD231C8C331F605E609D60069B98342A
:10ACD0002360F8BDF0B50D1C041C87B003A8171C39
:10ACE000FEF7BEFB291C03A86268FEF796FC051E52
:10ACF0001ED1251C083503A8291CFEF723FE0028B9
:10AD000004DB03A8FEF7B4FB0E4819E0221C6668BA
:10AD100003A868342B1C14320094011CFFF7B4FA0A
:10AD2000051E05D103A8391C321CFEF7B1FC051C19
:10AD300003A8FEF79DFB0020854201D0024828436E
:10AD400007B0F0BD00FCFFFFC0FBFFFFF0B50C1C1F
:10AD5000051C8FB005A80392FEF782FB08A8FEF73A
:10AD60007FFB0BA8FEF77CFB211C05A86A68FEF799
:10AD700054FC041E51D1291C05A80831FEF7E2FD40
:10AD8000002804DB05A8FEF773FB2C4853E02F1CBA
:10AD90002B1C2A1C74332C37009308A805A94432B5
:10ADA0003B1CFFF771FA041E37D12E1C2B1C2A1CEA
:10ADB0008033383600930BA805A95032331CFFF7B7
:10ADC00063FA041E29D105A808A90BAAFEF7C8FE3C
:10ADD000041E22D12A1C08A805A95C32FEF706FF32
:10ADE000041E1AD105A808A93A1CFFF7E5F9041EAC
:10ADF00013D108A805A9321CFEF7F8FE041E0CD1D9
:10AE000005A80BA908AAFEF787FE041E05D105A810
:10AE100003996A68FEF73CFC041C05A8FEF728FBB2
:10AE200008A8FEF725FB0BA8FEF722FB00208442B2
:10AE300001D0034820430FB0F0BDC04600FCFFFF27
:10AE4000B0FBFFFFF0B5061C8C36376885B00A9D55
:10AE50004468002F33D1002A33DB161C0A36A64281
:10AE60002FDA0393AE1C02232F70371C033C019290
:10AE700002910090A41A6B70E31BF318002B07DDFE
:10AE80000EF0D2FDC0B238700028F9D00137F3E7D8
:10AE9000E0430023C0170440301903700399019A5E
:10AEA00001300EF0A9FC029B0098291C2A1C002BE3
:10AEB00002D1FFF70FFF05E0FFF748FF02E002486D
:10AEC00000E0024805B0F0BDF0FBFFFF00FCFFFF13
:10AED000FFB547680C1C3D1CF821103DFFB0490030
:10AEE0008D422FD8191C0192061C02AD002C03D1F3
:10AEF0002A1CFFF7EFFE02E02A1CFFF727FF041EC3
:10AF000025D18C363468002C1ED12B78002B1BD118
:10AF10006B78022B18D102AB991C0B78002B05D053
:10AF20007B1EEB1899420FD20131F6E701316A1A04
:10AF3000899BBA189A4209DC019B88981A600EF026
:10AF40005BFC04E0044C02E0044C00E0044C201CD8
:10AF500083239B009D44F0BD00FCFFFFF0FBFFFF3F
:10AF600090FBFFFFF0B547683F4C3D1CA544F8241B
:10AF7000103D6400A5426CD803930192041C04AEFA
:10AF8000002904D18B99321CFFF7A4FE03E08B99B2
:10AF9000321CFFF7DBFE051E60D18C342568002DC6
:10AFA00059D13378002B56D17378012B53D104AB90
:10AFB0009C1C2378002B07D07A1EB21894424AD2E8
:10AFC000FF2B48D10134F4E7621CB61ABF19029274
:10AFD000222F22D1A67B101CA373244912220EF02B
:10AFE000FCFB002839D1022E03D1019B022B26D174
:10AFF0000AE0042E03D1019B032B20D104E0052E8F
:10B000001DD1019B042B1AD1201C10228A991330C8
:10B010000EF0E3FB002821D01FE0232F0FD1019B6E
:10B02000052B0CD11149029813310F220EF0D5FBDC
:10B03000002812D1201C8A9910301422E8E7039BC3
:10B040009F4208D1019B002B05D102988A993A1C96
:10B05000DEE7074D02E0074D00E0074D281C852381
:10B060009B009D44F0BDC046ECFDFFFF38F402009C
:10B0700000FCFFFFF0FBFFFFA0FBFFFF10B5041C6F
:10B080008030FEF7F5F9201C7430FEF7F1F9201C32
:10B090006830FEF7EDF9201C5C30FEF7E9F9201C62
:10B0A0005030FEF7E5F9201C4430FEF7E1F9201C92
:10B0B0003830FEF7DDF9201C2C30FEF7D9F9201CC2
:10B0C0002030FEF7D5F9201C1430FEF7D1F9201CF2
:10B0D0000830FEF7CDF910BD031CF0B5143395B060
:10B0E000049380331B68002B00D1BFE07F2900DC74
:10B0F000BCE0022A00DCB9E0141C051C08A807917A
:10B10000FEF7AEF90BA8FEF7ABF90EA8FEF7A8F90B
:10B1100011A8FEF7A5F9211C0498FEF728FA041ED1
:10B1200000D08EE0079B01335B1005932B1C2F1C76
:10B130002C3303939837683306933B680398009346
:10B14000069B059900221B68FFF726FD041E00D010
:10B1500077E02E1C3B6838360093069B221C301C7F
:10B1600005991B68FFF718FD041E6AD10398311C6E
:10B17000FEF7E8FB002803DA0398311CFEF7E3F939
:10B180000398311CFEF7DEFB002806D111A801212F
:10B19000FEF720FC0028C9D12BE02F1C0837381CF3
:10B1A0000399321CFEF722FD041E4AD1381CFEF71B
:10B1B00013FA079B9842E9D108A803990122FEF7E8
:10B1C00004FD041E3DD10BA8311C0122FEF7FDFC3D
:10B1D000041E36D10EA808A90BAAFEF707FD041E0F
:10B1E0002FD111A804990EAAFFF704FA041ECDD09E
:10B1F00027E02F1C2037381C04990EAAFFF77AFA93
:10B20000041E1ED1281C391C443008AAFEF7D4FFA6
:10B21000041E16D1281C391C50300BAAFEF7CCFF97
:10B22000041E0ED1281C311C5C30039AFFF762FA11
:10B23000041E06D1281C0830FEF7CEF90730C010D6
:10B24000686011A8FEF714F90EA8FEF711F90BA813
:10B25000FEF70EF908A8FEF70BF90020844206D08D
:10B26000281CFFF70BFF0348204300E0024815B0FD
:10B27000F0BDC046E0FBFFFF00FCFFFFF0B50B7820
:10B2800095B01A064B78061C1B041343CA78081C99
:10B2900013438A781B251202134311930A794B79C1
:10B2A00012061B041A43CB791A438B791B021A43EB
:10B2B00012924B7A0A7A1B0412061A43CB7A1A436B
:10B2C0008B7A1B021A430B7B05921A064B7B1B04DD
:10B2D0001343CA7B13438A7B1202134306930B7CEE
:10B2E0001A064B7C1B041343CA7C13438A7C097DDA
:10B2F000120213430A06417D07930B041A43111CE3
:10B30000837DC27D1B021143027E19430891110601
:10B31000427E13040A1C1A43C37E1A43837E1B0217
:10B320001A430992027F1106427F13040A1C1A4332
:10B33000C37F1A43837F1B021A43431C0A92DA7F9E
:10B34000831C1106DA7F13040A1C1A43031DDB7FDA
:10B350001A43C31CDB7F1B021A43431D0B92DA7F87
:10B36000831D1106DA7F13040A1C1A43031C0833D9
:10B37000DB7F1A43C31DDB7F1B021A43031C2833E8
:10B380001B780C921A06031C29331B781B041343E9
:10B39000021C2B3212781343021C2A32127812023A
:10B3A00013430D93031C2C331B781A06031C2D33F7
:10B3B0001B781B041343021C2F3212781343021C08
:10B3C0002E321278120213430E93031C30331B7873
:10B3D0001A06031C31331B781B041343021C33323F
:10B3E00012781343021C32321278120213430F9365
:10B3F000031C34331A78B46811065A7813040A1CF3
:10B400001A43031C37331B781A43031C36331B784B
:10B410001B021A43031C383300921A7811065A781B
:10B4200013040A1C1A43031C3B331B781A43031CE6
:10B430003A331B781B021A43031C3C3301921A78DF
:10B4400011065A7813040A1C1A43031C3F331B7855
:10B450003E30134302780220120213430293FE4A45
:10B46000B369F1689F18B3683269EB41FB187769DB
:10B47000C1415740F268174072695740DF19119B6C
:10B48000FB180393131CF44AF34F9A1833694B408B
:10B49000234034696340D318129AE7199B18039A22
:10B4A000059CEA419B18B268A446C241BC44171CE3
:10B4B000039C4F4027401C1CEC414F406744A4466E
:10B4C0003C1C6444A446039CC441271CE24C09195B
:10B4D000069C09193C1C54401C4054400919644600
:10B4E000EC41C34109190391DB49521807995418DB
:10B4F000191C624679401140794062180399D64C74
:10B50000E941521804926246C24108990919CF19BB
:10B51000111C039C5940214059407F180499E9416E
:10B5200079188C46211CC141099CCB4FE719FB18A7
:10B530000F1C049C574027405740DB196746EF41DA
:10B54000DB19271CC7410393C34C0A9B1B199A188C
:10B550003B1C64464B4023404B40D318039ABE4CDF
:10B56000EA419B186246C24104930B9B1B19591870
:10B57000131C039C7B4023407B40CB180499E9417A
:10B580005B189C46231CC3410C99B34C0919CF1975
:10B59000191C049C51402140514079186746EF41E5
:10B5A000C919271CC7410391AB4C0D9909198A1879
:10B5B000391C64465940214059405118039AA64C01
:10B5C000EA418A186146C14104920E9A1219D318B1
:10B5D0000A1C039C7A4022407A409A18049BEB4153
:10B5E000D3189C46231CC3410F9A9B4C1219D719A0
:10B5F0001A1C049C4A4022404A40BA186746EF4150
:10B60000D2190392221CC241009F934C3F19791812
:10B61000171C64465F4027405F40C919039F019C87
:10B62000EF41C9196746C741BC468B4FE719FB1864
:10B630006746039C574027405740DB190F1CEF41DA
:10B64000C441DB190493271C029B834C1B199A18D5
:10B65000634664467B400B406340D318049AC14163
:10B66000EA419B181093059A119B049C53400B9A36
:10B670005340009A53401F22D341774A03939B18AB
:10B6800063441A1C0B1C7B4023407B40D318109A48
:10B69000EA419B18221CC241069C9446129A6240C1
:10B6A0000C9C6240019C62401F24E2416A4C04925F
:10B6B0001219D7196246109C4A4022404A40BF18CE
:10B6C0001A1CEA41BA181192271C059A079CC74117
:10B6D00062400D9C6240029C62401F24E2415E4C2D
:10B6E000059212195118624664467A401A40624027
:10B6F0008918119AC341EA4110938918069B089A48
:10B70000119C53400E9A5340039A53401F22D34139
:10B71000514A06939B18109A63447A4022407A401B
:10B720009B180A1CEA419A18231CC341079C1193D9
:10B73000099B5C400F9B5C40049B5C401F23DC41E9
:10B740000794079B454C9C466444A446119BBC440B
:10B75000109F141C5F404F40C1410A9B12910899F1
:10B76000EC415940009B67445940059BA446594011
:10B770001F23D9410B1C0891384967445918109B65
:10B780009C46119B8C441299594051408C44391C61
:10B79000C241E9410B9B61449446099A64465A4070
:10B7A000019B5A40069B5A401F23DA41131C099201
:10B7B0002A4A9A18119BD318129A62407A409B1811
:10B7C0000A1CEA410C9C9B180A9AC7416240029CE1
:10B7D00010976240079C674662401F24E2411F4C5D
:10B7E0000A921219129C1219109C67404F40D219EC
:10B7F0001F1CC141EF411191D7190B9A0D994A4075
:10B8000003994A4008994A401F21CA4113490B92A3
:10B810005218211C119C6244614059405218391C35
:10B82000C341E9419C4651180E9B0C9A5A40049B17
:10B830005A40099B5A401F23DA41131C0C92074AB5
:10B840009A18109BD318221C644662407A409A18BA
:10B850000B1CEB410F9C03E09979825AA1EBD96E46
:10B86000D2180D9BC7416340059C109763400A9C0A
:10B8700063401F24E341FE4C0D931F19119B109C44
:10B88000FB18674667404F40DF19131CC141EB416D
:10B890001191FF1800990E9B4B4006994B400B9954
:10B8A0004B401F21CB41F2490E935B18211C119C88
:10B8B0006344614051405B18391CC241E9419446E0
:10B8C0005918019A0F9B5340079A53400C9A5340C2
:10B8D0001F22D341E64A0F939A18109BD218231CBB
:10B8E000644663407B40D2180B1CC741EB41109764
:10B8F000D318009A029C67466240089C62400D9CE7
:10B9000062401F24E241DA4C00921219119C121974
:10B91000109C67404F40D2191F1CC141EF4111914B
:10B92000D7190399019A4A4009994A400E994A4009
:10B930001F21CA41CE4901925218211C119C624418
:10B94000614059405218391CC341E9419C46511885
:10B95000049B029A5A400A9B5A400F9B5A401F234D
:10B96000DA41131C0292C24A9B18109A9B18221C9F
:10B97000644662407A409B180A1CEA41059C9A186A
:10B98000039BC74163400B9C10976340009C674634
:10B9900063401F24E341B64C03931B19119C1B19F0
:10B9A000109C67404F40DB19171CC141EF411191BA
:10B9B000DF190499069B59400C9B5940019B594043
:10B9C0001F23D9410B1C0491A9495B18211C119C10
:10B9D0006344614051405B18391CC241E9419446BF
:10B9E0005918059A079B5A400D9B5A40029B5A4092
:10B9F0001F23DA41131C05929D4A9A18109BD218F6
:10BA0000231C644663407B40D2180B1CEB41089C0E
:10BA1000D218069BC74163400E9C10976340039C5D
:10BA200063401F24E341924C06931F19119B109C05
:10BA3000FB18674667404F40DF19131CC141EB41BB
:10BA40001191FF180999079B4B400F994B4004999E
:10BA50004B401F21CB41864907935B186344191C57
:10BA6000231C119C63405340CB18391CC241E9414F
:10BA7000141C5B18089A0A994A4000994A40059993
:10BA80004A401F21CA417A49089252181099511808
:10BA9000119A62407A408A18191CE941C74152182C
:10BAA000944609990B9A12975140019A5140069A6F
:10BAB00051401F22D1410A1C09916D495118119A18
:10BAC0008F18211C129A51400A1C5A40B91862461C
:10BAD000C341EA41139389180A9B0C9A6746534065
:10BAE000029A5340079A53401F22D341604A0A9357
:10BAF0009A181319139C129A62405740DA190B1CBA
:10BB0000EB41D2186346C3410D9C10930B9B6340DD
:10BB1000039C6340089C63401F24E341554C0B93F6
:10BB20001B19129C1F19131CEB41FB18109F139C2F
:10BB30000F433C40109F0F40C141274311910E9C81
:10BB40000C99DB196140049C6140099C61401F24F1
:10BB5000E141484C0C910F191399109C7F181199D1
:10BB600011430C401199114021437F18191CC24107
:10BB7000E94194467F180D9A0F99119C4A40059906
:10BB80004A400A994A401F21CA413A490D92511828
:10BB9000109A89183A1CEA41891862461A431440DF
:10BBA00062461A40C341224312938A180E9B0099A1
:10BBB00064464B4006994B400B994B401F21CB41AB
:10BBC0002C490E935918119BC918129B3B431C40DA
:10BBD000129B3B402343C918131CEB41C741C918B2
:10BBE000019C0F9B11976340079C0F1C63400C9CAA
:10BBF000EF4163401F24E3411E4C0F931B19634424
:10BC0000DB19119F129C17433C40119F1740C24102
:10BC100027439446DF19029A009B119C5340089ACF
:10BC200053400D9A53401F22D341124A10939B1840
:10BC3000129A9B1862460A43144062460A40224305
:10BC40009B183A1CC141EA4100919B18019A039943
:10BC500064464A4009994A400E994A401F21CA4108
:10BC6000044901925218119951181A1CEA4103E033
:10BC7000A1EBD96EDCBC1B8F8A18009939430C40AC
:10BC80000099394021435118049C029AC7416240EF
:10BC90000A9C119762400F9C1F4362401F24E2419F
:10BCA000FE4C02921219009C62443C40119F1F40BE
:10BCB000C34127439C46059C039BD21963400B9CC0
:10BCC0000F1C6340109CEF4163401F24E341F34C81
:10BCD000D21903931F19009B119CFB18171CEF41ED
:10BCE000DF1963460B431C4063460B40C1412343AD
:10BCF0000091069C0499FB1861400C9C6140019CDA
:10BD000061401F24E141E54C04910F1964461199EB
:10BD10007F18009911430C400099114021437F186E
:10BD2000191CC241E94111927F18059A0799009C9C
:10BD30004A400D994A4002994A401F21CA41D749B9
:10BD4000059251180A1C391CE94162445118119A94
:10BD50001A431440119A1A40C34122439C468A1840
:10BD6000069B0899119C4B400E994B4003994B4000
:10BD70001F21CB41C94906935918009BC918634636
:10BD80003B431C4063463B402343C918131CEB4113
:10BD9000099CC918079BC74163400F9C12976340D9
:10BDA000049C63401F24E341BC4C07931B19119C66
:10BDB0001F190B1CEB416446FB18129F17433C40B4
:10BDC000129F1740C241274311920A9C089ADB191F
:10BDD0006240109C6240059C62401F24E241AF4CCF
:10BDE00008921719119A129C0A431440119A674439
:10BDF0000A40C14122438C4609990B9CBF186140FF
:10BE0000019C1A1C6140069CEA4161401F24E141EB
:10BE10000094A24CBA1809910F191299119C7F181D
:10BE2000111CE9417F18614619430C4061461940D5
:10BE3000C341214312937F180A9B0C9964464B40DF
:10BE400002994B4007994B401F21CB4193490A93DC
:10BE50005918119BC918129B13431C40129B134085
:10BE60002343C9183B1CC241EB411192C9180D9ADA
:10BE70000B9B129C5340039A5340089A53401F2235
:10BE8000D341864A0B939B180A1CEA4163449B18D2
:10BE9000119A3A431440119A3A4022439B180E9C3F
:10BEA0000C9AC7416240049CBC466240099C0F4307
:10BEB00062401F24E241794C0C921219129C121913
:10BEC000119C3C4067460F40C141274312910D9998
:10BED0000F9CD2196140059C1F1C61400A9CEF41D8
:10BEE00061401F24E1416D4CD2190D910F19119938
:10BEF00064467F18111CE9417F18129919430C40C0
:10BF000012991940214379181191109C0E99C3413F
:10BF10006140069C61400B9C61401F24E1415F4CE5
:10BF20000E910F19111C129C19430C40191C114041
:10BF3000214367447F181199C241E94194467F1813
:10BF40000F9A0199119C4A4007994A400C994A401E
:10BF50001F21CA4152490F925118129A89186246FC
:10BF60005A40624089183A1CEA418918221CC24191
:10BF7000029C1192109A6240089C62400D9C6240A3
:10BF80001F24E241464C10921219D3186246119CAC
:10BF900062407A409B180A1CEA41C7419B18039CE7
:10BFA000019A12976240099C119F62400E9C624068
:10BFB0001F24E2413A4C01921219129C62446740DC
:10BFC0004F40D2191F1CC141EF418C46D71904992B
:10BFD000029A4A400A994A400F994A401F21CA4191
:10BFE0002F4902925118119A8A18211C6446614007
:10BFF000594051183A1CC341EA4111938A18039BD6
:10C000000599119C4B400B994B4010994B401F21B7
:10C01000CB41234903935918129BC91863466340C7
:10C020007B40C918131CEB41069CCB180499C741EF
:10C0300061400C9C12976140019C119F61401F243C
:10C04000E141174C04910919129C61446740574023
:10C05000C241079C9446059AC91962400D9C1F1C59
:10C060006240029CEF4162401F24E2410C4C059269
:10C070001219119CC91912196446129F67405F403A
:10C08000D2190F1CC341EF411193D719069B089A8F
:10C09000119C53400E9A534004E0C046DCBC1B8FF9
:10C0A000D6C162CA039A53401F22D3419E4A0693C7
:10C0B0009A18129BD218634663404B40D2183B1C1F
:10C0C000C141EB411291D3180999079A4A400F993F
:10C0D0004A4004994A401F21CA4193490792521885
:10C0E000211C129C6244614079405218191CE9419C
:10C0F0000A9C52180899C7416140109CBC46614097
:10C10000059C129F61401F24E141874C0891091949
:10C11000119C0919644667405F40C919171CC34147
:10C12000EF411193CF190B9B0999119C5940019B29
:10C130005940069B59401F23D9410B1C09917A494C
:10C140005918129BC918634663405340C9183B1CD9
:10C15000C241EB411292C9180A9B0C9A5340029AB1
:10C160005340079A53401F22D3416F4A0A939A18AB
:10C17000231C129C624463407B40D2180B1CEB4191
:10C180000D9CD3180B9AC7416240039CBC46624089
:10C19000089C129F62401F24E241634C13921219C3
:10C1A000119C1219644667404F40D2191F1CC141AF
:10C1B000EF410B91D7190E990C9A0B9C4A400499A8
:10C1C0004A4009994A401F21CA41574911925218C1
:10C1D000129952186146614059405218391CC341A6
:10C1E000E9410C9352180F9B0D995940059B5940FA
:10C1F0000A9B59401F23D9410B1C0D914A495918DC
:10C20000231C0C9C614463407B40C918131CEB4108
:10C21000109CC9180E9BC7416340069CBC466340F6
:10C22000139C63401F24E3413F4C0E931B190B9C4E
:10C230000C9F1B19644667405740DB190F1CC24115
:10C24000EF410592DF190F9A019B059C5A40079B0D
:10C250005A40119B5A401F23DA41131C0792324A5D
:10C260009B180C9A9B18624662404A409B183A1CE5
:10C27000C141EA4106919A181099029B5940089BC6
:10C2800059400D9B59401F23D941274BC918231CE6
:10C29000069C614463407B40C918131CEB41019C20
:10C2A000CB180399C7416140099C61400E9C6140D5
:10C2B0001F24E1411C4C0919059C0919069C7C406E
:10C2C0005440A4461C1CEC416144A446164C6144F5
:10C2D000A4460191B168029C61448C460499C24114
:10C2E00061400A9C6140079C61401F24E141069C1B
:10C2F00061440919141C7C405C400919019CC3412C
:10C30000EC410919F468B160A44601996144F160F7
:10C3100031695B1833617369D218B3697261FF18B0
:10C32000B76115B0F0BDC046D6C162CA0023036034
:10C330004360054B8360054BC360054B0361054BB0
:10C340004361054B836170470123456789ABCDEF9E
:10C35000FEDCBA9876543210F0E1D2C3F7B5041C73
:10C360000191151E32DD03683F201840D318071CC9
:10C370002360934202D2636801336360002F13D0BD
:10C380004026F61BB5420FDBE0190199321C1C3028
:10C390000DF032FA211C0027201C1C31FEF76EFF25
:10C3A000019BAD1B9B1901932E1C019BA91B5918C6
:10C3B0003F2E04DD201CFEF761FF403EF5E7002E16
:10C3C00004DDE0191C30321C0DF016FAF7BD000038
:10C3D00073B5041C6E46006863680D1CDA00430FD9
:10C3E00013431A0E32701A0C72701A0AB2703F227E
:10C3F000C100F3700B0E33710B0C73710B0AB37128
:10C40000F17102403823372A00D978239A1A201C68
:10C410001F49FFF7A3FF201C69460822FFF79EFF74
:10C42000A3681B0E2B70A3681B0C6B70A3681B0A00
:10C43000AB70237AEB70E3681B0E2B71E3681B0C67
:10C440006B71E3681B0AAB71237BEB7123691B0ED5
:10C450002B7223691B0C6B7223691B0AAB72237C42
:10C46000EB7263691B0E2B7363691B0C6B7363693F
:10C470001B0AAB73237DEB73A3691B0E2B74A3699B
:10C480001B0C6B74A3691B0AAB74A369EB7473BDBB
:10C4900074F4020070B50D1C061C141CB8B001A881
:10C4A000FFF744FF2A1C01A8311CFFF757FF01A822
:10C4B000211CFFF78DFF01A80021DC220DF0B9F946
:10C4C00038B070BDF0B5041C89B00E1C151E402D8F
:10C4D00006DD081C111C03AAFFF7DCFF142503AEC0
:10C4E000271C5C3736214022381C0DF0A2F9201C95
:10C4F00040229C305C210DF09CF93A1C0023AB4299
:10C5000010DAF05C11784140101C11704030017855
:10C5100001908C466046F15C013241400198013344
:10C520000170ECE7201CFFF701FF201C391C4022A2
:10C53000FFF714FF03A8002114220DF07AF909B0C7
:10C54000F0BD30B5041C87B00D1C01A9FFF740FFFA
:10C55000201CFFF7EBFE211C201C9C314022FFF722
:10C56000FDFE201C01A91422FFF7F8FE201C291C47
:10C57000FFF72EFF01A8002114220DF05AF907B091
:10C5800030BDF0B5071C0E1C1C1C151CB9B001A851
:10C59000391C321CFFF796FF221C01A8291CFFF74B
:10C5A000DDFE01A83E99FFF7CCFF01A80021DC22A7
:10C5B0000DF03FF939B0F0BD43780120022B0ED0C9
:10C5C00006D80230002B0AD00020012B07D005E04E
:10C5D0000220032B03D00018452B00D00520704704
:10C5E0003023007803400120102B05D00230302B7F
:10C5F00002D0581E8341580070470F2210B50368BF
:10C60000041C19780A400C2A02D8101C013314E0CB
:10C610000D2A06D15A1C02605A7802330D32101CC2
:10C620000BE000200E2A09D1587899780002021CEC
:10C630000A430E32FF32101C0333236010BD031C6B
:10C6400007B5081C009228211A1C8023FFF799FFC8
:10C6500007BD0000002337B5041C0D1C1A1C191C53
:10C660000093FEF725FB8022291C201C52006260EB
:10C6700021310830FCF7D1FF201C1021024A143070
:10C68000FDF72FFB37BDC046D6F4020030B5ABB086
:10C69000041C03A8151CFFF7DDFF002101940A1CF0
:10C6A0001423009503A8FEF75DFC041C03A8FEF705
:10C6B000E5FC201C2BB030BD0023F7B50C1C1A1C68
:10C6C000191C0093051CFEF7F3FA802201236A600F
:10C6D000677A281C1F407B427B410A27FF1A791C7E
:10C6E00061180830FCF799FF281C3E1C2A4A1430B8
:10C6F0001021FDF7F6FA01228836A35D134200D01F
:10C70000B618281C371C711C611820308022823713
:10C71000FCF783FFE35DDB0701D58336371C281C5C
:10C720003E1C791C61182C3040224236FCF775FF04
:10C73000A35DDB0700D50136281C371C711C61186E
:10C74000383040224237FCF768FFE35DDB0701D554
:10C750004336371C281C3E1C791C6118443040228B
:10C760004236FCF75AFFA35DDB0700D50136281CD3
:10C77000711C611850304022FCF74FFF311C4231D0
:10C78000635CDB0700D50131281C013161184022B0
:10C790005C30FCF742FFF7BDD6F40200031C30B555
:10C7A000ABB00C1C03A8191C151CFFF785FF8023D8
:10C7B0000293583B01930121231C02AA009503A870
:10C7C000FEF786FB041C03A8FEF758FC201C2BB0C8
:10C7D00030BD0000F0B51D27104E8BB0041C0D1CA1
:10C7E0003A1C311C02A80DF007F8F119052668461D
:10C7F000321C0DF001F802A93A1C201C0CF0FCFFC1
:10C80000291CE0190B3180220CF0F6FF201C694630
:10C81000321C9D300CF0F0FF0BB0F0BDB4F4020000
:10C8200008B503681B68984708BD70B5061C00244E
:10C830004068B3681B1A93426441E4B2002C05D0EF
:10C84000151C0CF0D9FF73685D197560201C70BD54
:10C8500070B5051C022A06D0032A0FD0012A10D178
:10C860000B6803600DE014200C680EF08FFA031CB7
:10C8700046CC46C306CC06C3286002E000680EF032
:10C8800071FA002070BD38B5051C081C0C1C0DF099
:10C890002DFA2B68021C1B68281C211C984738BDE8
:10C8A00013B56B460268D97107331468191C01224D
:10C8B000A04716BD08B5074BC15A002907D0AA23C7
:10C8C0001B01C3584A1ED0180EF054FB011C07313F
:10C8D000C80808BD2A070000021C03781806537810
:10C8E0001B040343D078184393781B021843704706
:10C8F000014BC05C7047C0462D0700000023024A70
:10C900008354024A835070472E070000240700001A
:10C91000C8239B000360082383800023084A8360A8
:10C920008354084A8354084A8354A92367221B016D
:10C93000C252064B683AC252054B1532C25270477A
:10C940002C0700002D0700002E070000920A0000AF
:10C95000940A0000F8B50F1C151C91689422041C61
:10C96000520018301E1C0CF047FF201C9922413049
:10C9700069689200FF300CF03FFF201C391C0C222C
:10C980000C300CF039FF0C4B311CE01834220CF049
:10C9900033FFD523DB00E01806993C220CF02CFF76
:10C9A000DC22064B0021E01852000CF042FF01226D
:10C9B000034BE254F8BDC04674060000BC040000FE
:10C9C0002D070000F7B5114D061C43590191171CA6
:10C9D000984700240090A74216DD019B391B1819C7
:10C9E000CF23DB00F3580022984700280DDB01D04D
:10C9F0002418F0E773599847009BC01A044B9842DB
:10CA0000E9D90120404200E0201CFEBD9406000050
:10CA1000409C0000F7B5114D061C43590191171CAD
:10CA2000984700240090A74215DD019B391B181977
:10CA30000B4B0022F358984700280DDB01D0241837
:10CA4000F1E773599847009BC01A064B9842EAD900
:10CA50000120404200E0201CFEBDC04694060000BC
:10CA60007C060000409C0000F0B5102689B0041C34
:10CA7000039204A8321C0D1C0CF0BEFEE9239B009F
:10CA8000E7180D4B381CE1188022FBF719FD0B4B02
:10CA9000381CE418231C039A009501950021FCF72B
:10CAA00023F904A9321C201C0CF0A6FE281C0399B3
:10CAB00001F042FE09B0F0BDE406000004070000EA
:10CAC00010B50C1C064A835A013399B2054B8152AA
:10CAD000C25C0132D2B2C254201C01F0CBFE10BDA8
:10CAE0001C0700001E070000F7B5184A01900091CE
:10CAF0008018002904D1DC2252000CF09AFE24E0B8
:10CB00000025041C2E1C211C00980DF0DDF8011ED0
:10CB100004D1201C58220CF08CFE12E0AE420FD043
:10CB20005827381C7043019B211C1818074B3A1CCE
:10CB3000C0180CF061FE201C00213A1C0CF079FE9C
:10CB4000013601355834052DDDD1F7BDBC04000098
:10CB5000F0B5061C0F1C002585B002930AAB1B78AC
:10CB6000019203931E4BC418236C019A934230D157
:10CB7000636C029A93422CD1231C48331B78039A8E
:10CB8000934226D14021381C0DF0DFF8391C021CDD
:10CB9000201C0DF0B2F800281BD158200B9B4543F8
:10CBA000002B0DD0181C0C210DF0CFF8021E07D061
:10CBB0000C4B7019C0180B990DF09FF8031C04E082
:10CBC000A0237619DB00F618737958425841C0B299
:10CBD00004E001355834052DC6D1002005B0F0BD64
:10CBE000BC04000005050000F0B589B005930EAB4C
:10CBF0001B78041C069300930F9B02910193059BE5
:10CC00000492FFF7A5FF00284FD1071C284BE3181B
:10CC10001A680392002A44D1402102980DF095F839
:10CC20005823051C7B430793E618224B2A1CF61851
:10CC30000299301C0CF0E0FD40227019521B039940
:10CC40000CF0F7FD9F22079B0499E318D2009A1875
:10CC5000516005990F9D9160A022D2009B186A46F1
:10CC6000127B5A71002D04D0281C0C210DF06DF898
:10CC7000051C58267E43104BA019C0182A1C0F997A
:10CC80000CF0BAFDA023A4196519DB00ED180023F0
:10CC90006B71A023DB00E4186B461B7E012023711F
:10CCA00003E001375833052FB2D109B0F0BDC046BB
:10CCB000FC040000BC0400000505000008B550237A
:10CCC00003704E3B437000238370C370B133037114
:10CCD000493B4371973383710C2207300CF08CFD74
:10CCE000132008BD70B5154B0C1CC15A061C002939
:10CCF00007D0AA231B01F358481EC0180EF03AF9BA
:10CD0000011C8DB2AC4215D2301CFFF7D3FD336845
:10CD10000122181AED23DB00C0183018E310C018E8
:10CD2000072323409A40131CC279134203D00134D5
:10CD3000A4B2E7E7024C201C70BDC0462A070000E1
:10CD4000FFFF000038B5051C0C1CFFF7B3FD021EE9
:10CD500007D02B68211C181A024B2818C0180CF099
:10CD600068FD38BD6F070000F0B54D68484A4319AB
:10CD70009B18DC7987B0631E0F2B00D985E0454AEC
:10CD80000290831804A80493FFF737FC00287CD096
:10CD90002B1B0393039A029B9D183F4BED18049B9A
:10CDA0001C180594059BAB4204D3049AA71AAB4206
:10CDB00017D321E00F211A788A43F6D105A8FFF78F
:10CDC0001CFC2F2323700599671C061C8F4203D07F
:10CDD000381C321C0CF019FD059BBC199B190593DE
:10CDE000E0E70F221B789343302B05D105A8FFF70E
:10CDF00004FC059B18180590059B0024AB420CD23F
:10CE00001A78FF2A09D1029A5C1C9446ED22039BF2
:10CE1000D20063449B180022DA710023049AD35590
:10CE2000029B1E4A9D18029A1D4B9446634403932D
:10CE30002B6C002B29D0281C40210CF086FF021CF3
:10CE400087421ED3049E281C311C0CF0C6FC00280F
:10CE500017D1144B029AD3589C46002B0BD1686C07
:10CE60002B6C002803D0311C221C984709E0301C91
:10CE7000211C984705E00090291C5820321C231CD7
:10CE8000E047039B58359D42D2D107B0F0BDC04664
:10CE900067070000750700006F070000BC04000072
:10CEA00074060000D406000070B50C4D041C4359F4
:10CEB00000200E1C834208D0094BE3589847FA2102
:10CEC0006359C900C01A0EF055F80022D3236251ED
:10CED000DB00301AE358111C984770BD240700008E
:10CEE00094060000E923F7B5041C0D1C171C9B00D9
:10CEF000C6180B4B8022C118301CFBF70BFA094BEC
:10CF0000301CE4183A1C00950195231C0121FBF705
:10CF1000EBFE291C201C10220CF06EFCF7BDC04655
:10CF2000E4060000F406000038B5051C11480C1C8E
:10CF3000295A013189B2295251202271FF222070D1
:10CF40000D3860700812A070E170201C062162711B
:10CF50001A16A2711A14E2711A12227263720A1C52
:10CF60000A300CF066FC281C211C1022FFF7BAFFC7
:10CF700038BDC0461C07000038B50D1C0021041C3C
:10CF8000094A8154103101328154084A81181A1C0F
:10CF90002B1CFFF7C9FF044B201CE1181222FFF7DE
:10CFA00011FDC043C00F38BD6F07000071070000BE
:10CFB00008B5006803790068FFF7DEFF08BD70B5AB
:10CFC0000C1C04A9051C087805A909786126A37022
:10CFD000A171FF23092126701C3E6670E07022714A
:10CFE00063710A1CE01D0CF024FC281C211C10227B
:10CFF000FFF778FF70BD70B50C1CA370FF2304A968
:10D00000051C0878059963710B16A37161260B1432
:10D01000E070E37161720B12201C062126701C3E29
:10D020006670227123720A1C0A300CF002FC281C64
:10D03000211C1022FFF756FF70BD38B50C1C051CD3
:10D040006120A370FF2304A9097820701C38637144
:10D050006070E170227106A9A01D08220CF0CCFBC3
:10D060000221201C0A1C0E300CF0E3FB281C211CA2
:10D070001022FFF737FF38BD70B50C1C061C61206D
:10D08000A370FF2304A9097820701C386070E17038
:10D09000227163710599069AA01D0CF0ADFB069BE9
:10D0A0000F2206331D1C95431035EA1AD2B2E01840
:10D0B000111C0CF0BEFB301C2A1C211CFFF712FFB8
:10D0C000281C70BDF7B50D1C131C174A041C815A8F
:10D0D000013189B28152154A8718381C2A1C01F087
:10D0E0005DF90F23021C9A43151C1035EEB20F4B4D
:10D0F0000192321AD2B22018C018111C0CF099FB00
:10D10000391C201C2A1CFFF7EDFE094B2D0AE554A3
:10D110000133E654019A064B1232E118201CFFF746
:10D1200051FCC043C00FFEBD1C070000710700008A
:10D130006F070000F7B50D1C131C174A041C815A19
:10D14000013189B28152154A8718381C2A1C01F016
:10D150003EF90F23021C9A43151C1035EEB20F4BFB
:10D160000192321AD2B22018C018111C0CF061FBC7
:10D17000391C201C2A1CFFF7B5FE094B2D0AE5546B
:10D180000133E654019A064B1232E118201CFFF7D6
:10D1900019FCC043C00FFEBD1C0700007107000052
:10D1A0006F07000070B5051C0D4BC4180D4BC61859
:10D1B000236C002B10D0221C49321378002B04D092
:10D1C000281C211CFFF77EFF06E0231C48331A7839
:10D1D000281C211CFFF7AEFF5834B442E8D170BDC3
:10D1E000BC04000074060000F0B50C1C051C612096
:10D1F000A370FF23002789B00EA9097820701C387E
:10D200006070E170227163712B685149A21D083B67
:10D21000D318059105A84F4907930692FFF733FBF2
:10D220000F9BBB4269D04C4905A8FFF72CFB4B4B29
:10D230003E1CEB5898470190019B9E421FDA002E3E
:10D2400003D005A82C21FFF72BFB222105A8FFF70F
:10D2500027FBD623DB00EB58301C9847071C0CF04B
:10D2600045FD021E0C2A00D90C22391C05A8FFF727
:10D27000DCFA05A82221FFF713FB0136DCE7384969
:10D2800005A8FFF700FBD723DB00EB5898470027E2
:10D290000190019B9F422BDA002F03D005A82C217F
:10D2A000FFF7FEFA222105A8FFF7FAFA2D4B381CEA
:10D2B000EB589847061C0CF019FDD823DB000290B0
:10D2C000EB58301C9847029A03900C2A00D90C2284
:10D2D000311C05A8FFF7A9FA234905A8FFF7D3FADF
:10D2E000039905A83031C9B2FFF7DAFA0137D0E760
:10D2F00005A87D21FFF7D4FA0127DA26F600AB59FD
:10D30000002B0DD00F9B9B070AD5002F03D005A83B
:10D310002C21FFF7C5FAAB59144805A900229847FC
:10D3200005A87D21FFF7BCFA069B06981A1B161C60
:10D330000F239E431036B21AD2B2111C0CF079FAA8
:10D34000281C211C321CFFF7CDFD301C09B0F0BD9C
:10D35000E8F40200F8F40200ECF40200AC0600006D
:10D36000F2F40200BC060000FAF4020021C8010039
:10D3700037B5041C081C0C4D0C4B655DE118127888
:10D38000E35C00950190201CFFF72EFF084B021272
:10D39000E2540133E054064B821CE118201CFFF7D5
:10D3A00011FBC043C00F3EBD7207000071070000B3
:10D3B0006F07000038B50C4A051C835A0C1C01335A
:10D3C0009BB2835240220A7000224A701A12CB701C
:10D3D0008A70081D0C210A1C0CF02BFA281C211C39
:10D3E0001022FFF77FFD38BD1C070000F7B50F23A3
:10D3F000171C9F433C1C0190101C0D1C1034E6B2FE
:10D40000B21AD2B202300818111C0CF012FAA91C80
:10D410000198221CFFF766FD381C240A6E702C70E0
:10D420001230FEBD30B50F4B0D1CC15A041C01312A
:10D4300089B2C152A9231B01E35A87B000930A4B5A
:10D44000A81CE35A019300230293039304936733C8
:10D4500001F0C2F9291C021C201CFFF7C7FF07B00E
:10D4600030BDC0461C070000920A000038B50D1CF4
:10D47000074B041CC15A0022013189B2C152A81CB9
:10D4800001F0E8F9291C021C201CFFF7AFFF38BD92
:10D490001C070000F0B58BB010AC24780594354C17
:10D4A000065D002E01D0002062E007930B78069203
:10D4B0000F1C041C002B24D0081C0CF017FC0428A3
:10D4C0001FD908AD281C391C05220CF095F9281C21
:10D4D00029496E710CF0CCFB051E12D1274BE35885
:10D4E0009847274A000C1188264B814203D11A78AD
:10D4F000FF2A02D1D7E710801D701A7801321A7006
:10D5000017E0214E336804931C4BE3589847049B63
:10D510001E4A9B0098503368051C0521581C0DF0CD
:10D520009FFE1A4B31608900CB58ED1A184B9D4273
:10D53000B9D9184B3A1CE15A013189B2E152164B64
:10D54000E018079B0093059B019300230293069B21
:10D5500001F09EF9114B021CE518291C201CFFF755
:10D5600045FF291C021C201CFFF72CFAC043C00FEA
:10D570000BB0F0BD2E070000FDF402009406000081
:10D58000602100206221002064210020082000206A
:10D59000E70300001C070000710700006F07000090
:10D5A00070B5104BC25C00239A4218D10E4B041C7C
:10D5B000C118FFF785FA0D4B021CE518291C201C29
:10D5C000FFF714FF0A4B061CE3589847094B291C28
:10D5D000E050321C201CFFF7F5F9C343DB0F181C89
:10D5E00070BDC0462E070000710700006F070000E5
:10D5F0009406000024070000F8B50F1C4021224AC1
:10D60000041C835A01339BB28352204A8154204A1E
:10D610003F3981541F4A1912815400211E4A0D1CA2
:10D620008354B1221D4BC2541D4B4E3AC2541D4B64
:10D630009C32C2540133C618201CFFF753FB1A4B0F
:10D6400098420BD0BD4209DA03123370174B707049
:10D65000E052013081B201350236EDE7002D0ED0E7
:10D66000134B6A00E6180732311C201CFFF7BEFE80
:10D67000311C021C201CFFF7A5F9002801DB281C27
:10D6800001E001204042F8BD1C07000071070000C6
:10D6900072070000730700007407000075070000A0
:10D6A0007607000077070000FFFF0000A80A0000CF
:10D6B0006F07000070B5051C13480C1C295A059E05
:10D6C000013189B22952512063700B12A370049B5F
:10D6D0002070E17022714C38002B09D0002E07D049
:10D6E000FF23A01D63710499321C0CF085F8B01D56
:10D6F0001026321A111C20180CF09BF8281C321C22
:10D70000211CFFF7EFFB70BD1C0700001FB50F24A5
:10D710006C4423700123009401934333FFF7CAFF45
:10D720001FBD13B5002400940194FFF7C3FF13BD80
:10D7300070B5041C90B04130FF3006AA0E1CFFF7F4
:10D740002DF80625002844D1301C06A901AAFEF7B1
:10D7500076FF301C211C8030183101AAFEF796FF9D
:10D76000051E35D11C4B06A9E01810220CF044F818
:10D770001A4B0AA9E01810220CF03EF8184B0AA91F
:10D78000E01810220CF038F8164B0EA9E018082209
:10D790000CF032F819231A226B44DB7F6A44D27FE3
:10D7A0001B021343104A3B21A3521B236B44DA7F15
:10D7B0000E4B6846E254694404220CF01DF8A3683D
:10D7C0000098002B01D0984703E00CF0FFF800E030
:10D7D0000825281C10B070BDE4060000F406000007
:10D7E00004070000140700001C0700001E070000CB
:10D7F00038B50C1C04A90978051CE17060200C21C7
:10D8000020706270A3700A1C201D0CF012F8281CF6
:10D81000211C1022FFF766FB38BD0000F0B58B68B5
:10D8200087B003930023039A0E1C137010335370B8
:10D830004B684D49C2185218D279041C9B1A4B4FA1
:10D840004B4D132B21DD4B4BC35CFF2B1DD14A4BA2
:10D850004A4AC35C825C0493EF23DB00C35C1B0277
:10D860001343474A8352474BC018FFF735F8AA23A2
:10D870001B01E050444BE35CE355444BE018FFF7D9
:10D880002BF8434BE050605109E000233C4A0493DD
:10D89000A3520432A3503E4AE355A35063513D4B7B
:10D8A0000121E518D023DB00E358281C002298470B
:10D8B0000027B8420FD1324BE15AB94206D00433A7
:10D8C000E358481EC0180DF055FB011C0027324BD1
:10D8D0008B427F41FFB2039B3049023305937A426A
:10D8E0007A41615C2E4BD201E35C0091201C0599CA
:10D8F000FFF77EFF201C03991222FFF763F8031C39
:10D90000002083422EDB874201D101202AE0D02370
:10D910000021DB00281CE3580A1C9847051EF4D19F
:10D92000204BE358984701211F4BE0500433E55248
:10D93000134B201CE25A1D4BE2521D4BE154049B39
:10D9400099434942C9B2FFF7FDF93278201C059985
:10D950002B1CFFF7DBFE201C03991222FFF732F885
:10D96000C043C00F07B0F0BD670700009E0A00006B
:10D97000980A00007607000077070000790700008A
:10D980009C0A00007A0700007E0700007F07000065
:10D99000A40A0000940A0000FEFF000072070000C5
:10D9A0007107000094060000240700002A07000009
:10D9B0002E070000F0B57C4B8BB0C358041C0E1C26
:10D9C00098470025794FE051B368201C1D700393E0
:10D9D0001023039A5370131C754A02330693A25CFA
:10D9E000744B0092E35C06992A1CFFF701FF201C90
:10D9F00003991222FEF7E6FF0997A84201DA0020F8
:10DA0000D0E06D4BE25C0893002A00D1C9E02F1CE6
:10DA1000049507250597ED226319D2009B18DB7941
:10DA20000793FF2B21D0002F0FD0012F14D1634A71
:10DA300063199B18AA18DB79A218127A1B021343E8
:10DA4000E522D200A352059706E0EE236019DB0021
:10DA5000C018FEF741FF04900F23079A01371A40C0
:10DA6000131C0133ED18EDB2D5E773680135544945
:10DA7000EDB25A1BE3185B18D979524B511A89B28F
:10DA8000E152E523DB00E05A4F4B504AE35AA258DB
:10DA900043439B184E4AA3504E4B9842AFD04E4B37
:10DAA0006519ED184D4B281CE3589847049B984284
:10DAB00066D14B4B291CE31804934A4B0498E35856
:10DAC00000229847059B002B04D0089B0025E35CAF
:10DAD000022B06D03278201C06994423FFF721FE42
