:020000023000CC
:1070000000700300E2890300000009000D01050281
:0870100004010700000000006C
:10701800E086030010B5064C2378002B07D1054BFA
:10702800002B02D0044800E000BF0123237010BDEC
:10703800747C0020000000004489030008B5084B58
:10704800002B03D00748084900E000BF0748036841
:10705800002B00D108BD064B002BFBD09847F9E761
:107068000000000044890300787C0020747C002024
:107078000000000009480A4908B5884205D0094AB5
:10708800824202D0121A01F07BF90748074A002110
:10709800121A01F07EF9064808BDC046007C00209F
:1070A80044890300747C0020747C0020E07E00206A
:1070B800E07E002070B500F085FF074B00251E1C00
:1070C800064CE41AA408A54204D0AB00F35898472C
:1070D8000135F8E770BDC04684860300E0860300EA
:1070E80008B500F0B9F808BD08B500F003F900F0DC
:1070F80049FF08BD08B500F043FA08BD00784342CF
:1071080058417047012303707047106870470000AA
:10711800F0B58BB06946836802AF5A1C0833DB08A8
:10712800DB00CB1A9D460026041C02AD291C002357
:1071380000F03AFD291C381D00F0A8FC104B3C2239
:107148001B78009679680F4800F012FA381D00F095
:1071580057FC281C00F040FAA268291C0132D2B260
:10716800781D3A7101F00CF900F0A6FF0A20391DCC
:10717800192200F01DF9301CBD4609B0F0BDC0460B
:10718800917C0020F4860300F0B52C2193B0041CF8
:1071980000F033FD211C031C00220EA800F032FD74
:1071A8000E9801F0D9F8061C0EA800F029FC201C46
:1071B8002C2100F022FDA368421C211C0EA800F01F
:1071C80021FD0E9801F0C8F80024051C03AF0EA895
:1071D80000F016FC3C720396049500F06DFF391C14
:1071E8000C22322000F0E4F80AA8184900F04EFCFE
:1071F8000A22311C06A800F089FC06A90AA800F09A
:10720800B2FC134900F0BDFC071C291C0A220EA879
:1072180000F07CFC0EA9381C00F0A5FC0D4B211CCD
:107228001B7800943C22006800F0A2F90EA800F038
:10723800E7FB06A800F0E4FB0AA800F0E1FB301C1D
:10724800291C00F0C5F9201C13B0F0BD10870300FD
:107258002D870300917C002010B51E4C8AB0201C9D
:107268001D491E4A00F002FA201C1D491D4A00F063
:10727800FDF9082303AC23801B4B1C49042204930B
:107288001B48231C00F064F900F016FF0A20211C9B
:10729800192200F085F82378013BDBB2FD2B03D8D7
:1072A8000D20684400F098F900F006FF3220694686
:1072B8000C2200F075F86B461B7AFF2B03D0009860
:1072C800019900F085F90520032100F0B5FE0AB008
:1072D80010BDC0464976030091710300348703004E
:1072E800197103004087030013710300947C002088
:1072F8004C87030008B5034B032000211A7800F0DF
:10730800A7FC08BDA47C002010B500240F4B104A30
:107318001C70012313700F4A14700F4A1370022255
:107328000E4B1A7000F050FE0E21231C221CFF3158
:1073380000F052FE0A4C0B49201C00F0A7FB201C51
:1073480009490A4A00F03CFF10BDC046907C002065
:10735800A47C0020917C0020937C0020927C00205B
:10736800947C002054870300097A0300007C0020E5
:1073780008B5024B1B685B6A019308BD14D1010074
:1073880008B5024B1B68DB6A019308BD14D10100E4
:1073980008B5024B1B689B6A019308BDE0D0010049
:1073A80008B5024B1B685B6C019308BDE0D0010077
:1073B80008B5024B1B689B6C019308BDE0D0010027
:1073C80008B5024B1B689B68019308BDF4D0010007
:1073D80008B5024B1B681B6A019308BDF0D0010079
:1073E80008B5024B1B685B6A019308BDF0D0010029
:1073F80008B5024B1B689B6A019308BDF0D00100D9
:1074080008B5024B1B68DB6A019308BDF0D0010088
:1074180008B5024B1B681B6B019308BDF0D0010037
:1074280008B5024B1B685B6B019308BDF0D00100E7
:1074380008B5024B1B681B6C019308BDF0D0010016
:1074480008B5024B1B68DB69019308BDF8D0010041
:1074580008B5024B1B681B6A019308BDF8D00100F0
:1074680008B5024B1B685B68019308BD04D1010095
:1074780008B5024B1B689B68019308BD04D1010045
:1074880008B5024B1B68DB68019308BD04D10100F5
:1074980008B5024B1B689B69019308BD04D1010024
:1074A80008B5024B1B685B6A019308BD04D1010053
:1074B80008B5024B1B689B6A019308BD04D1010003
:1074C80008B5024B1B68DB6A019308BD04D10100B3
:1074D80008B5024B1B681B6B019308BD04D1010062
:1074E80008B5024B1B685B6B019308BD04D1010012
:1074F80008B5024B1B689B6B019308BD04D10100C2
:1075080008B5024B1B681B6C019308BD04D1010030
:1075180008B5024B1B685B6C019308BD04D10100E0
:1075280008B5024B1B689B6C019308BD04D1010090
:1075380008B5024B1B685B68019308BDE8D00100E1
:1075480008B5024B1B689B69019308BDE8D0010090
:1075580008B5024B1B681B68019308BD0CD10100DC
:1075680008B5024B1B685B68019308BD0CD101008C
:1075780008B5024B1B681B6A019308BD0CD10100BA
:1075880008B5024B1B685B68019308BDE4D0010095
:1075980008B5024B1B689B68019308BDE4D0010045
:1075A8000022064B06491A7001230B7005490A7020
:1075B800054A13700222054B1A707047A87C0020F8
:1075C800A97C0020A67C0020A77C0020A57C0020A8
:1075D80008B5FFF7CDFE08BD08B5FFF7D1FE08BD19
:1075E8000022064B06491A7001230B7005490A70E0
:1075F800054A13700222054B1A707047AD7C0020B3
:10760800AE7C0020AB7C0020AC7C0020AA7C002053
:107618000022064B06491A7001230B7005490A70AF
:10762800054A13700222054B1A707047B27C00207D
:10763800B37C0020B07C0020B17C0020AF7C00200F
:1076480010B588B0041C684600F020FA694604A802
:1076580000F040FA04A8A047041C04A800F0D0F9E0
:10766800684600F0CDF9201C08B010BDF0B5102414
:1076780085B0071C0E1C151C6846221C002100F052
:1076880088FE221C6846002100F083FE00206B461D
:107698006946021C1C80029703960195FFF760FF5C
:1076A80005B0F0BD0022064B06491A7001230B7085
:1076B80005490A70054A13700222054B1A70704773
:1076C800B77C0020B87C0020B57C0020B67C002068
:1076D800B47C00200022064B06491A7001230B7067
:1076E80005490A70054A13700222054B1A70704743
:1076F800BC7C0020BD7C0020BA7C0020BB7C002024
:10770800B97C00207047F8B5061C151C0C1C8F1896
:10771800BC4206D0336821789B68301C98470134F6
:10772800F6E7281CF8BD08B50022007CFFF750FEDC
:1077380008BD08B50021007CFFF752FE08BD08B55A
:107748000021007CFFF754FE08BD08B50021007C2D
:10775800FFF756FE08BD08B50021007CFFF758FE6C
:1077680008BD10B5041CFFF7C5FC201C10BD0000A7
:10777800FA23002210B5041C9B008360054B42606D
:10778800083303600174081C111CFFF751FE201C0C
:1077980010BDC0466087030008B50021007CFFF7D4
:1077A8003FFE08BD0022064B06491A7001230B70E4
:1077B80005490A70054A13700222054B1A70704772
:1077C800C17C0020C27C0020BF7C0020C07C00203F
:1077D800BE7C0020704710B5041CFFF78BFC201CF2
:1077E80010BDF8B50E1C0024C51D071D2978301CD6
:1077F8000A2200F09CF82418BD4208D0002C04D0BE
:10780800301C2E2100F05CF82418013DEEE7201C06
:10781800F8BD10B502AC24781B02234312041A43A6
:1078280009061143416010BD37B5041C06A8057848
:107838000448009508302060201CFFF7EAFF201C50
:107848003EBDC046888703000022064B06491A70D1
:1078580001230B7005490A70054A13700222054B73
:107868001A707047C67C0020C77C0020C47C0020AA
:10787800C57C0020C37C0020F8B5071C0C1C002523
:107888008E18B4420CD03B6821789B68381C984706
:107898000134002801DB2D18F3E7002D00D1051C69
:1078A800281CF8BD38B5041C081E08D00D1C00F0B3
:1078B8008EFD2368021CDB68201C291C984738BDF4
:1078C80008B503689B68984708BDF0B58BB06B4650
:1078D800151C00220533061C0F1CDA77012D00D871
:1078E8000A2509AC291C381C00F02AFE011C694332
:1078F800791AC9B20B1C3733013CDBB2092901D80C
:107908003031CBB22370071EECD1301C211CFFF79D
:10791800C9FF0BB0F0BD08B5002A04D10368C9B28D
:107928009B68984702E0D2B2FFF7CFFF08BD08B5C1
:10793800FFF7F1FF08BD00000022064B06491A7048
:1079480001230B7005490A70054A13700222054B82
:107958001A707047CB7C0020CC7C0020C97C0020AA
:10796800CA7C0020C87C0020704710B5041CFFF7B3
:10797800C1FB201C10BD0000054B10B5041C0360A2
:107988000171081CFFF75CFD0023201CA36010BDDB
:10799800A887030008B50079FFF75AFD08BD000065
:1079A8000022064B06491A7001230B7005490A701C
:1079B800054A13700222054B1A707047D07C0020CC
:1079C800D17C0020CE7C0020CF7C0020CD7C002004
:1079D8000022064B06491A7001230B7005490A70EC
:1079E800054A13700222054B1A707047D57C002097
:1079F800D67C0020D37C0020D47C0020D27C0020C0
:107A080010B5041C0068FFF7BBFD201C10BD10B5A5
:107A1800041C0068002801D0FFF7B2FD0023236092
:107A2800A360636010BD38B5041C0D1C00680131EB
:107A3800FFF7AEFD031E01D0012028C438BD10B5E4
:107A48000368002B02D043688B4209D2041CFFF75D
:107A5800EAFF002805D0A368002B01D12268137023
:107A6800012010BD70B50E1C111C041C151CFFF75D
:107A7800E6FF002803D1201CFFF7C9FF04E0A5603A
:107A88002068311C00F09BFC201C70BD38B5002319
:107A9800041C0D1E03604360836003739D4207D07E
:107AA800081C00F094FC291C021C201CFFF7DAFFBC
:107AB800201C38BD10B50B1C041E8C4208D0096868
:107AC800002903D09A68FFF7CDFF01E0FFF79FFF79
:107AD800201C10BD002310B5041C036043608360A4
:107AE8000373FFF7E7FF201C10BD38B5041C0D1EFB
:107AF80008D0081C00F06BFC291C021C201CFFF796
:107B0800B1FF01E0FFF783FF201C38BD002310B54B
:107B1800041C8AB00360436083600373081C01A9D6
:107B280000F01DFA201C01A9FFF7DFFF201C0AB096
:107B380010BDF8B58568002901D1002711E001279B
:107B4800002A0ED055190E1C291C041CFFF777FFBC
:107B58000028F2D02368A268311C981800F02FFC86
:107B6800A560381CF8BD0B1C10B59A680968041C80
:107B7800FFF7DFFF002802D1201CFFF748FF201C79
:107B880010BD38B5041C0D1E09D0081C00F01FFCE0
:107B9800291C021C201CFFF7CCFF002802D1201C46
:107BA800FFF735FF201C38BD70B5002A15D0002915
:107BB80013D08668B34202D300230B700DE0541E25
:107BC800F61AB44200D9341C0D1C0168221CC918CD
:107BD800281C00F003FC00232B5570BD10B58368EA
:107BE8009A4207D20468A01800F0DBFB002801D0F5
:107BF800001B01E00120404210BD08B50022FFF73C
:107C0800EDFF08BDF7B5071C0E1C151C1C1C9A427D
:107C180001D9251C141C381C0C49FFF737FFB36821
:107C28009D4211D89C4200D91C1C3368381C1B1972
:107C38001A78019200221A7033685919FFF755FF14
:107C48006A46336812791A55381CFEBD2C87030022
:107C580008B5D2B20023FFF773FC08BD002008B5B1
:107C6800074B084A187001231370074A1070074A17
:107C780013700222064B1A70FFF75AFC08BDC04663
:107C8800DA7C0020DB7C0020D87C0020D97C002016
:107C9800D77C00200022064B06491A7001230B707E
:107CA80005490A70054A13700222054B1A7070477D
:107CB800DF7C0020E07C0020DD7C0020DE7C0020D2
:107CC800DC7C0020024B1A68024B1A607047C046E1
:107CD800047C0020E47C00200022064B06491A7030
:107CE80001230B7005490A70054A13700222054BDF
:107CF8001A707047EB7C0020EC7C0020E97C0020A7
:107D0800EA7C0020E87C00200022064B06491A7015
:107D180001230B7005490A70054A13700222054BAE
:107D28001A707047F07C0020F17C0020EE7C002067
:107D3800EF7C0020ED7C002070474174704708B547
:107D4800007CFFF7B5FB08BD08B5007CFFF7B0FB6A
:107D580008BD08B5007CFFF7BBFB08BD08B5007C73
:107D6800FFF7AEFB08BD08B5007CFFF7B9FB08BDFF
:107D780010B5041CFFF7BEF9201C10BD70B5447C7B
:107D8800051C0E1C002C06D1007CFFF7B9FB00284F
:107D980001DC201C03E0287C311CFFF781FB70BD4F
:107DA80038B5041C081C00216160FA218900A16013
:107DB8000121054D2074083525606174111C1A1CB9
:107DC800FFF766FB201C38BDE087030008B5007C80
:107DD800FFF78EFB08BD000070B501240C4E0D4D59
:107DE80033681C4012D1301CFFF788F900280DD0E9
:107DF800211C094A094B281CFFF7D2FF301CFFF74A
:107E080081F9281C0649074A00F0DAF9281C70BDD8
:107E18008C7D0020F47C0020907D0020087D0020CF
:107E2800417D0300007C002001747047704708B54D
:107E38000020FFF71DFB08BD08B50120FFF718FB60
:107E480008BD08B5FFF764FB08BD08B5FFF708FBD8
:107E580008BD38B5051C0C1CFFF75AFB002802DCCE
:107E6800287C002803D0201CFFF70AFB012038BD1E
:107E780008B5FFF755FB08BD10B5041CFFF73AF924
:107E8800201C10BD00234360FA239B008360034B32
:107E980008330360012303747047C0461088030049
:107EA80038B50B4D0B4C2B68DB070FD4281CFFF79C
:107EB80025F900280AD0201CFFF7E4FF281CFFF74B
:107EC80021F9201C0449054A00F07AF9201C38BD24
:107ED800287E0020147E0020357E0300007C0020D0
:107EE80010B5041C00F073FA01382018844206D239
:107EF800237802780138227043700134F6E710BD08
:107F0800F7B50193931E061C0D1C171C00200C1CB2
:107F1800222B23D8002E13D0391C301C00F010FB64
:107F2800391C0090301C00F091FBCBB2237009295A
:107F380001D8303300E057332370009E0134E9E75D
:107F4800019BEB189C4203D2302323700134F7E7DE
:107F58000023281C2370FFF7C3FF281CFEBD10B5A3
:107F68000C1C002809DA2D23802123700906031E22
:107F78008B4200D04342181C611C0123FFF7C0FF4D
:107F8800201C10BD08B50D4B002B06D0FFF788FF4D
:107F980003681B69984700280CDC094B002B0CD0A0
:107FA800FFF71AFF03681B699847002805DD00E002
:107FB80000BF02E000E000BFEFE708BD00000000DE
:107FC800000000007047000008B5024B1B681B68E2
:107FD800019308BDD8D0010008B5024B1B685B6847
:107FE800019308BDD8D0010010B5041C1148FFF753
:107FF800D1FC002805D0231C0D3B022B01D8002002
:1080080016E000F06FF8FFF7C7FB002801D0012C3D
:10801800F5D9FFF7E1FEFFF7D9FE002803D0231CAE
:10802800123B012BEBD900201723A3424041C0B2D9
:1080380010BDC046687E002038B517280BD8FF2928
:1080480009D00D1C041CFFF7CFFF002803D0201C0B
:10805800291CFFF7B5F938BD0022064B06491A70EE
:1080680001230B7005490A70054A13700222054B5B
:108078001A7070472F7E0020307E00202D7E002051
:108088002E7E00202C7E00200022064B06491A7006
:1080980001230B7005490A70054A13700222054B2B
:1080A8001A707047347E0020357E0020327E002012
:1080B800337E0020317E002010B5084C2368DB0792
:1080C80009D4201CFFF71AF8002804D0FFF760F93C
:1080D800201CFFF717F8024810BDC046387E002064
:1080E8003C7E002070B501240B4E0C4D33681C40BB
:1080F80010D1301CFFF702F800280BD0211C281CD7
:10810800FFF736FB301CFEF7FDFF281C0449054A23
:1081180000F056F8281C70BD407E0020447E0020E8
:108128000D770300007C0020002313B5064C191CB2
:108138001A1C0093201CFFF777FB201C0349044AF4
:1081480000F03EF813BDC046587E0020DD770300DE
:10815800007C00200021F8B5012402220F4B104EAC
:108168001970104B301C1C700F4B19700F4B1C7082
:108178000F4B1A70FFF700FC0E4F0F4D391C2A1CCD
:10818800301C00F01DF80D4E211C301CFFF7F4FBCD
:10819800301C391C2A1C00F013F8F8BD637E00203F
:1081A800687E0020647E0020617E0020627E0020C0
:1081B800607E002071790300007C0020747E00201E
:1081C80008B5031C081C191C00F0CCF808BD0000F9
:1081D8000123244A1168194200D11360224A116808
:1081E800194201D1012313600123204A1168194261
:1081F80000D113601E4A1168194201D1012313608E
:1082080001231C4A1168194200D113601A4A1168E7
:10821800194201D1012313600123184A1168194238
:1082280000D11360164A1168194201D10123136065
:108238000123144A1168194200D11360124A1168C7
:10824800194201D1012313600123104A1168194210
:1082580000D113600E4A1168194201D1012313603D
:108268007047C046AC7E0020A87E0020A47E002077
:10827800A07E00209C7E0020987E0020947E002016
:10828800907E00208C7E0020887E0020847E002046
:10829800807E00200123244A1168194200D113600E
:1082A800224A1168194201D1012313600123204A8F
:1082B8001168194200D113601E4A1168194201D190
:1082C8000123136001231C4A1168194200D113606D
:1082D8001A4A1168194201D1012313600123184A6F
:1082E8001168194200D11360164A1168194201D168
:1082F800012313600123144A1168194200D1136045
:10830800124A1168194201D1012313600123104A4E
:108318001168194200D113600E4A1168194201D13F
:10832800012313607047C046DC7E0020D87E002001
:10833800D47E0020D07E0020CC7E0020C87E002085
:10834800C47E0020C07E0020BC7E0020B87E0020B5
:10835800B47E0020B07E002008B500210A2200F07B
:10836800E1F808BD054B10B5041C181E05D0131CF8
:1083780002200A1C211C00E000BF10BD0000000004
:10838800002310B5934203D0CC5CC4540133F9E701
:1083980010BD031C8218934202D019700133FAE70A
:1083A8007047021CC9B21378002B03D08B4204D04B
:1083B8000132F8E7181C002900D1101C7047031C73
:1083C8000A7801311A700133002AF9D17047002365
:1083D800C25C0133002AFBD1581E7047031C30B51C
:1083E800002A07D00C7801335D1E013A2C70013148
:1083F800002CF5D19A18934203D00021197001334B
:10840800F9E730BDF0B51E1C444B87B01B680590DA
:1084180002930B1C039101921C78029A5D1C12199D
:1084280050780822104001D02B1CF5E72D2C04D1E0
:108438009D1C5C780123009304E000902B2C01D153
:108448005C789D1C002E02D0102E0AD160E0302CE2
:108458005CD120222B789343582B52D110266C786C
:108468000235009F311C7B1E9F412D4BFF18381C85
:1084780000F0ECF8381C0491311C00F061F800227F
:10848800071C131C029909194978480701D5303C83
:1084980007E00320084017D03721012800D02031F9
:1084A800641AB44210DA511C0BD0BB4207D802D16F
:1084B800049A944203DC73430122E31801E0012289
:1084C80052422C780135DDE7181C511C0BD100985D
:1084D800059A431E9841124BC01822231360019B32
:1084E800002B0AD117E00099002900D05842019BBF
:1084F800002B10D0039B002A00D06B1E019A13603A
:1085080009E03024002EACD10826AAE70A26A8E7FD
:10851800302CA6D19DE707B0F0BDC046087C0020EE
:10852800FFFFFF7F38B5051C0C1C131C034A291CD0
:108538001068221CFFF766FF38BDC0466C7C00201F
:10854800002243088B4274D303098B425FD3030A8A
:108558008B4244D3030B8B4228D3030C8B420DD39D
:10856800FF22090212BA030C8B4202D3121209022B
:1085780065D0030B8B4219D300E0090AC30B8B4269
:1085880001D3CB03C01A5241830B8B4201D38B0317
:10859800C01A5241430B8B4201D34B03C01A5241BC
:1085A800030B8B4201D30B03C01A5241C30A8B42FF
:1085B80001D3CB02C01A5241830A8B4201D38B02EA
:1085C800C01A5241430A8B4201D34B02C01A52418E
:1085D800030A8B4201D30B02C01A5241CDD2C30900
:1085E8008B4201D3CB01C01A524183098B4201D37C
:1085F8008B01C01A524143098B4201D34B01C01A67
:10860800524103098B4201D30B01C01A5241C308DE
:108618008B4201D3CB00C01A524183088B4201D34D
:108628008B00C01A524143088B4201D34B00C01A39
:108638005241411A00D20146524110467047FFE7A5
:1086480001B5002000F00CF802BDC0460029F7D0A3
:1086580003B5FFF775FF0EBC4243891A1847C04699
:108668007047C046F8B5C046F8BC08BC9E4670477F
:10867800F8B5C046F8BC08BC9E4670474570030074
:1086880011730300A9750300E97503001976030047
:10869800AD760300DD760300AD7703005178030063
:1086A80041790300A9790300D9790300657C0300A7
:1086B8009D7C0300CD7C0300E17C0300117D030059
:1086C8006180030091800300318103005D81030014
:1086D800D98103009D8203007D700300BD700300F3
:1086E800E9700300F1700300000000005365747422
:1086F800696E672067617465776179207461726754
:10870800657420746F3A200053657474696E67202D
:10871800636F6E6E20706172616D7320746F206D6F
:10872800696E3A2000206D61783A200073657443C1
:108738006F6E506172616D00736574475754617252
:108748006765740076657273696F6E00322E322E1B
:1087580035300000000000000000000000000000AC
:108768000D7703006B7703002F7703000F77030063
:108778003B77030047770300537703005F770300D5
:108788000000000000000000EB770300DD77030025
:10879800DF77030000000000000000000000000078
:1087A80071790300737903005A00252B3033643A3A
:1087B800253032750025592D256D2D256454254801
:1087C8003A254D3A2553257A0061736374696D65BE
:1087D8000000000000000000000000000000000091
:1087E800417D0300797D0300857D030081780300C6
:1087F800517D0300657D03005B7D03006F7D0300F1
:10880800437D0300477D03000000000000000000D6
:10881800357E0300817E03005B7E030081780300C0
:10882800537E0300377E0300417E0300797E0300F8
:108838004B7E0300317E03000020202020202020D2
:1088480020202828282828202020202020202020F8
:108858002020202020202020208810101010101008
:108868001010101010101010100404040404040454
:1088780004040410101010101010414141414141EE
:1088880001010101010101010101010101010101D0
:1088980001010101101010101010424242424242E0
:1088A80002020202020202020202020202020202A0
:1088B8000202020210101010200000000000000048
:1088C80000000000000000000000000000000000A0
:1088D8000000000000000000000000000000000090
:1088E8000000000000000000000000000000000080
:1088F8000000000000000000000000000000000070
:10890800000000000000000000000000000000005F
:10891800000000000000000000000000000000004F
:10892800000000000000000000000000000000003F
:0C893800000000000000000000430000F0
:1089440000000000D18703004088030000000000FD
:108954000000000000000000000000000000000013
:108964000000000000000000000000004189030036
:1089740000000000000000000000000000000000F3
:1089840000000000000000000000000000000000E3
:1089940000000000000000000000000000000000D3
:1089A4000000000000000000000000000C7C00201B
:0489B4001D7003002F
:1089B800FFFFFFFF0D010000010203040506070881
:1089C800090A0B0C0D0E0F10111213141516171897
:0A89D800191A1B1C1D1E1F20280089
:0489E200785634127D
:040000033000701841
:00000001FF
