:020000023000CC
:10C00000807F0020E1F4030029F503002BF50300F5
:10C010000000000000000000000000000000000020
:10C020000000000000000000000000002DF50300EB
:10C0300000000000000000002FF5030031F50300B0
:10C0400033F5030033F50300C9D7030075DD0300A2
:10C05000B9DC03000000000039D6030033F503000B
:10C0600033F50300F5D5030033F5030033F5030082
:10C0700033F5030033F5030033F5030033F5030014
:10C08000C9D503002DDF030033F5030033F50300AA
:10C0900079E0030075D7030039CE030033F50300C0
:10C0A00033F5030033F5030000000000000000003A
:10C0B0000000000000000000000000000000000080
:10C0C00000C00300CCF90300000006000D010200CF
:10C0D0000000000000000000164B002B00D1144BA4
:10C0E0009D46402292029A1A924600218B460F46A4
:10C0F0001348144A121A03F059FA0F4B002B00D0C0
:10C1000098470E4B002B00D09847002000210400D8
:10C110000D000D48002802D00C4800E000BF03F0DD
:10C120001FFA2000290000F0E5F903F003FAC046E9
:10C1300000000800807F00200000000000000000D8
:10C14000B8320020B83200200000000000000000DB
:10C1500018DF704760DF704713DF70470F4A70B514
:10C16000151C137804780130002C15D00C4B1A786C
:10C17000012AFBD11A78D2B2012A08D11E780949C6
:10C18000022E00D08A60084A8C5002221A7002786F
:10C19000231C0130141CE7E72B7070BDCC2D002050
:10C1A00060300020002000401C050000F0B5AC4BC2
:10C1B00091B000AFF8629D4400206B46011CFF2245
:10C1C000BB6202F073FA3423F81801F0DBFA00289E
:10C1D000F9D13523F81801F0D5FA0028F9D1362322
:10C1E000F81801F0CFFA0028F9D13723F81801F038
:10C1F000C9FA0028F9D13423FB181B78041C1A064D
:10C200003523FB181B781B0413433722BA18127806
:10C2100013433622BA1812781202134301227B62AA
:10C22000904B1A70904BFA6A1880904B1A60904BA2
:10C230001A607B6A1D056A1E95411B0B5D198D4BAB
:10C240001D60AC4206D0FB6A2003C01802F01AFC45
:10C250000134F6E730220823BA18D01886497A6AE2
:10C2600002F0F0FD30220823BA18D018FFF776FF4D
:10C270008248FFF773FFFE6AFB6A7A6AF31A9342F9
:10C2800000D3E4E07B6AFA6A9B189D1B8023DB00E5
:10C290009D4200D91D1CFF200021021C02F006FA5D
:10C2A0000024AC4207DABB6A181901F06BFA43426A
:10C2B0004341E418F5E70020FF22011C02F0F6F9E3
:10C2C0006B466A467B60EB1DDB08DB00D31A9D469C
:10C2D000BB60F3070CD5BB6A301C0133BB61BB6A82
:10C2E000197802F0ABFB731C7B616B1E3B6203E0B1
:10C2F000BB6A3D627E61BB6101233A6A9A43FA617F
:10C300005FD002F061FB8024A0235D4ADB0564035B
:10C310009C50AD2002F0A6FA7B691802000E02F0D4
:10C32000A1FA7B691804000E02F09CFA387D02F035
:10C3300099FABB69187802F095FABB69587802F04F
:10C3400091FAFB69A022023BFB60A123D205DB002E
:10C35000D45002F021FBBB69A02402333B61FB688F
:10C36000E405002B1AD08022454B5203E250AD2049
:10C3700002F078FA3B69187802F074FA3B69587851
:10C3800002F070FAFB688022023BFB60A12352039B
:10C39000DB00E25002F000FB3B69DDE7A1238022D5
:10C3A000DB005203E250364B0420E25002F05AFA0E
:10C3B000A1238022DB005203E2503B6AFA699B1AF8
:10C3C0003B623B6A002B08D0FA697B699446634460
:10C3D000181CBB69995C02F031FBB868311C2A1C3F
:10C3E00002F002FB2A1CB86AB96802F013FD204B68
:10C3F0001A68002806D1AA181A601B4A138801334C
:10C4000013800DE0140B2403201C1C6002F03AFB87
:10C41000164B291C1868201A02F07AFB124B188060
:10C420007B6830229D460823BA18D01812492A1C6E
:10C4300002F008FD30220823BA18D018FFF78EFE4C
:10C440001048FFF78BFE8023DB00F61814E7FF206F
:10C450000022011C02F02AF9BD4611B0F0BDC04611
:10C4600000FCFFFF6F2C00206C2C0020D42D00203E
:10C47000782C0020702C002054F7030058F703009C
:10C480000C05000057F7030038B5144C042522783A
:10C49000131CAB4321D002281DD003281DD1104B03
:10C4A0001B681B0717D40F490B6801330B60032B64
:10C4B00004D0022A0CD100F0F7FC0EE018220A4B3F
:10C4C0000D2019785143C918043100F0D1FC2570B2
:10C4D00000F02CFD01E000F023FF38BDB930002052
:10C4E00020320020C03000201C31002037DF704790
:10C4F00036DF70478022F0B5B74BD205D1588BB0EC
:10C50000B12901D10021D150A027E0230326012227
:10C51000FF05DB00FE50B14BFA50B14A12680093A0
:10C52000F02301929B029A4202D00020011C50E1AC
:10C5300080235B051A698023DB009A42F5D1002431
:10C54000A84BA94D1C7001F059FDA84AA84BA94958
:10C550001A60A94BA94A1E70A94BFF2013605A1DEF
:10C56000D4771A1C383214701A1C483214701A1CF2
:10C570005C321470A34A1C7016701A1C6C320A606C
:10C5800014701A1C191C6D32147005226E310A7059
:10C59000191C84311967191C74310C70191C753100
:10C5A0000C70191C76310A70191CFC319967191C22
:10C5B0007C310C70191C7D310C70191C7E310A7095
:10C5C0001C751A1D7533FF33D36701228E4B5242FF
:10C5D0001A608E4B80221C708D4BC5211C70C023AD
:10C5E00052035B00EA5089006B5883433F38034392
:10C5F0006B50A1232A60874ADB00D4500439685865
:10C60000854B0340C020000203436B50834B211C29
:10C61000D258834B06A81A60824B834AFA501022E4
:10C6200002F0C4FF022306A80693FFF791FD0295CE
:10C63000071EA74200D1B8E0B3E07C4A7C4B08203B
:10C640001A6048227B4B7C491A807C4A7C4B1A60DA
:10C6500000F00AFC041E00D0B0E00122794B162045
:10C660001A7000F003FC041E00D0A7E00122A3B260
:10C670001B0A05A813434370E3B2B343134303708B
:10C68000FFF768FD002800D08BE06F4A6F4B1A60FF
:10C690006F4B704A1360704AA833136008226F4BC7
:10C6A00018706F4B18706F4B1A806F4B0C321A80DA
:10C6B0006E4B6F4A187058706E4B002401211C702D
:10C6C0005C60D9601C615C619C6018339342F4D15A
:10C6D000694BA0261C6000F001FF80220421520556
:10C6E000136902389BB25843644B654D1860654B23
:10C6F00080271C60644BF6051C609C60DC60634B0B
:10C700007F031C60624BA1201C70624BC0001C6048
:10C71000614B1C60614B1960614B62492B600323C4
:10C720002B71AC60AC81EC812C61AC82EC826C83AF
:10C730002C832C772C62CC77A91DCC77E91DCC7784
:10C74000A121C9007750EA21C9007350A121C90075
:10C750007750E921C900735053497350534B12214C
:10C76000F45014232B772B6819502B68009801394B
:10C770001950A22313202968DB00C8502B684C49AC
:10C780005A502A684B4BD4502B68FC33DC60287914
:10C7900040B201F06DFB464B01900393031EA34290
:10C7A0000FD0211C221C01F0A5F80198FFF7D4FC42
:10C7B000002800D141E7391C3A1CF4E7201C002175
:10C7C00007E02879012140B201F050FB041E73D02C
:10C7D00001990A1CE7E7C0461C0500000C05000093
:10C7E000141000103132002000E100E09DE503004C
:10C7F000483200203C3200206E2C002040320020C5
:10C80000D82D002024320020543200205132002044
:10C810005C32002000100140FF00FFFF0405000013
:10C8200058320020040700000C00030018300020DC
:10C8300068300020C43000202DCE0300E1D8030072
:10C8400074300020B830002089C40300003100207B
:10C850007C2C0020343200204C320020503200204A
:10C860005232002010320020443200201C310020BF
:10C870001032002020310020D02D0020742C002008
:10C88000603200207C300020EC300020103100208D
:10C89000B9300020C0300020FC30002020320020C1
:10C8A0000030004065320020440700004C070000C3
:10C8B0002405000054050000C123042128622A68D1
:10C8C0009B00D150287940B201F0D6FA002800D060
:10C8D00067E7A02301212A68DB00D1500223D84A50
:10C8E0000420D377D74B2B62D74BF75001F0BAFF18
:10C8F000A123DB00F750D44B9F20F75001F0B2FF8B
:10C90000FF2001F0AFFF051CFF2001F0ABFF041C6E
:10C91000FF2001F0A7FFA123DB00F7502D04240224
:10C92000CA4B2C432043984203D0C94BC01801285E
:10C930001AD8A0248025A126009BE4056D03F600EB
:10C94000E550802001F08EFFA551009B5020E5505E
:10C9500001F088FFA551009B0120E55001F082FF06
:10C96000002001F07FFFA551A223A0220125DB00BA
:10C97000D205D45864082C4000D0FDE0B548211CF5
:10C98000021C01F093FE2E1CB24FA023A222DB0555
:10C99000D200995802220A401AD1632E04DC1D2EBF
:10C9A00004DD171CAB4C01E0AA4F3C1C002D03D04A
:10C9B0000020011C021C02E0211C3A1CA54801F0C9
:10C9C00075FE012364205D40F61800F0B7FEDCE739
:10C9D000632E06DD8020D821C001490201220023F8
:10C9E000F1E01E2E00DCF0E0202205AC22700022D7
:10C9F00099499A480A709A499A4E086001219A48C2
:10CA000049420180A120C0008446802065465851DB
:10CA1000032596481D50093504381D500720009DF8
:10CA2000934B5851062593481D50039D92485851E9
:10CA3000A0200425C0009A511D509048C260026297
:10CA400001209F5987439F51664699510836995155
:10CA5000814E986018603070894E307801303070A7
:10CA6000C22080001950C121843889005850C02349
:10CA700002995B00CD50C021029B89005858814B20
:10CA80000340C0200004034302984350FF20029B50
:10CA9000011C1D6001F00AFE201C00F073FE00283E
:10CAA000FAD1F02292021168774B0B408021890560
:10CAB0008B4200D1754A2378722B51D004D8652B54
:10CAC00057D0662B0ED050E0752B47D0762B4CD12B
:10CAD00052896F4906A802F0B5F906A8FFF73EFB98
:10CAE0006C4843E084208002FFF760FB84208002D2
:10CAF00001F0E8FF0028CFD0674B1C68674B1B682C
:10CB0000E41A837B022B07D18420211C0022013BE5
:10CB1000800200F091FF19E08020400001F0B2FF98
:10CB200080200121400001F089FF02202102090E2E
:10CB3000FF3001F083FF81202104090E400001F045
:10CB40007DFF0420E1B2FF3001F078FFBFF34F8F8B
:10CB5000534A544BDA60BFF34F8FFEE7C02000E02A
:10CB600080208001FFF722FB96E74F48FFF7F6FA97
:10CB700092E700F019FE28E0802106AC201C490055
:10CB80002A1C01F031FF2678012E1ED10221201C23
:10CB9000FF31321C01F028FF81212778201C490039
:10CBA000321C01F021FF04212578201CFF31321CAA
:10CBB00001F01AFF00228420131C21783F042D026B
:10CBC0003D432943800200F037FF384D286801F0CB
:10CBD00071F92B681B68013300D18CE0344C627A08
:10CBE000207AA37A120202431B0413431A1CE37A2D
:10CBF0001B061343FF22934301D1069402E006A8CB
:10CC000000F042FE069A1378012B74D10023568857
:10CC10009E4251D029689068264B081881424BD01B
:10CC20000F785BBA9BB27B401A1CDBB21B095340E6
:10CC30001A0353409BB2DAB2520153400131EDE77F
:10CC40006532002059E603000C0500004125BF00B5
:10CC500074DA40FF550200006030002095E60300C2
:10CC6000643000206C050000022C00201C0700002E
:10CC7000002000401405000000509D00FC200040F2
:10CC8000002C0020FFFF00FF0000F12FC0C00300B8
:10CC900054F7030058F70300782C0020D42D00200F
:10CCA0000400FA0500ED00E05AF703000830000028
:10CCB00000FC0300FFFF0000B3421CD1627A207A1F
:10CCC000A37A120202431B0413431A1CE37A1B06C5
:10CCD0001343FF22934301D1069402E006A800F01B
:10CCE000D3FD069B1A78A52A05D01B79AA2B02D062
:10CCF000286801F0DFF8BFF34F8F034A034BDA6077
:10CD0000BFF34F8FFEE7C0460400FA0500ED00E0D8
:10CD100061DF704751DF7047802208B55205116905
:10CD200018220E4889B203785343C3181A1C9B6813
:10CD30005069C318D068013B181801F0E9FE084A91
:10CD4000031C126801209A4207D300209A4204D1A2
:10CD5000044B1B6858425841C0B208BD1C3100202A
:10CD60007C300020BC30002028DF704729DF70476E
:10CD7000F0B5214E85B035686B425D411F4BEDB279
:10CD80001B681C1C019363425C41E4B2002D2FD14F
:10CD900003A8FFF7BFFF052808D0002802D0291CF0
:10CDA0002A1C16E003983368984700E00125002C00
:10CDB0001BD1134B03A91B880B80124B1F68381C17
:10CDC000FFF7A6FF041E052C09D0002803D0002180
:10CDD0000A1C00F08FFD381C019B984700E00124DD
:10CDE000002DD3D0002CD1D004E0002D02D1CDE70E
:10CDF000002CDED005B0F0BD0031002070300020E6
:10CE0000C43000206830002008B5002904D000207C
:10CE1000011C021C00F06EFD034B1B78002B01D09F
:10CE2000FFF7A6FF08BDC046B830002008B501488E
:10CE300000F060FDEFBEADDE08B5094B1B68002BAE
:10CE400006D09847002809D000210A1C00F052FDA6
:10CE5000044B1B78002B01D0FFF78AFF08BDC046AA
:10CE600074300020B830002010DF70472EDF70478C
:10CE70000B1C37B5021CD8680978022802D1074874
:10CE8000046802E0064C00010459181C054D0C30E2
:10CE90002D6800955B69A04737BDC0461031002062
:10CEA000EC3000200431002008B5034B034A1B7806
:10CEB0009B009B58984708BD78300020E4F8030099
:10CEC00008B50823034A116899431160FFF7ECFF86
:10CED00008BDC0462032002008B5064B1B681B0762
:10CEE00005D40122044B1A70FFF7DEFF01E0FFF7C3
:10CEF000E7FF08BD203200207830002008B5094A3D
:10CF0000136819070AD4990702D501210B4313604E
:10CF10000222054B1A70FFF7C7FF01E0FFF7D0FFB1
:10CF200008BDC0462032002078300020F0B52C4BE0
:10CF300085B01878032850D801F0E0FD020E114B9F
:10CF40000023284A1360284A1360284B5B78002B83
:10CF500043D000F0F7F840E000F070F93DE0244CD9
:10CF6000802723687F0501930123019A9A431823A0
:10CF7000029222601D4A15785D4355196B6903932F
:10CF80003969181C89B201F0C3FD1A4B061C1860E0
:10CF9000A868039B39691818013889B201F0B8FDF7
:10CFA000864203D10223029A134303E00323019A2A
:10CFB0009A43131C2360104B1A68104B002A03D1AC
:10CFC00021680232114200D000221A70FFF76CFF74
:10CFD00003E0084B186800F01DF905B0F0BDC0462D
:10CFE000B9300020C0300020FC3000201C3100206F
:10CFF000203200207C300020C83000207830002013
:10D000001822F0B5494980260B7885B05343CB18D8
:10D01000181C1A69464C01921201A2185D69D76862
:10D0200094689B68760531697C430393C3685268B2
:10D030000093039BA2185C19009B3E4FE418002349
:10D0400089B23B60281C029201F0E8FD321C0029E5
:10D050000BD1336903999BB2994209D0029B9C4240
:10D0600048D1009B002B53D102E0019B022B08D139
:10D070001169281C89B201F04BFD2F4B1860032366
:10D0800032E03169009B89B2581901F0C7FD2B4B82
:10D0900089081960029B31699C4224D089B2201C06
:10D0A00001F0BCFD00291ED080256D05296902987C
:10D0B00089B201F02DFD2E690090B1B2201C01F063
:10D0C00027FD009B834204D1029B1C1BA4083C60EB
:10D0D00009E02B692969201C89B29DB201F09EFDEF
:10D0E0006D1AAD083D600223154A1370FFF71EFF4D
:10D0F00005B0F0BD019B022BBAD03169009B89B20B
:10D10000581901F08BFD0D4B890819603169C5E78D
:10D11000019B022BACD03169009B89B2581901F0F8
:10D120007DFD064B890819603369DCE71C3100205E
:10D13000EC300020BC3000207C300020C8300020C3
:10D14000B9300020182208B50A490B785343CB1890
:10D150009968094A11601B79032B08D0042B06D06B
:10D16000012B06D1054A1370FFF7E0FE01E0FFF73F
:10D1700047FF08BD1C31002004310020B9300020D9
:10D18000F8B5124D9C466E7804240A2E1CD02C78DB
:10D19000A419092C00DD0A3C18277C432C192071A6
:10D1A000201C0830A261021C083288C988C263466C
:10D1B000A3600024069B01364360054B6E701B780C
:10D1C000A34201D1FFF7BEFF201CF8BD1C31002097
:10D1D000B930002008B5002814D0112805D1082343
:10D1E000094A11680B4313600CE01822074B1978A9
:10D1F0005143C9180431FFF73BFE0422044B1A7057
:10D20000FFF794FE08BDC046203200201C310020EC
:10D21000B930002008B5FFF7A7FDFFF7DBFF08BD19
:10D2200008B5024B1868FFF7F5FF08BD7C300020F9
:10D2300008B5FFF79BFDFFF7CDFF08BDF8B5182334
:10D24000154A8026147876055C431419271C231C84
:10D250003169A26889B208371033104D8A4210D95B
:10D2600031697C6888B2111A3269F8689B682018A5
:10D2700092B2401892085918FFF7DAFF33699BB24F
:10D2800007E07968F868920808189968FFF7D0FFF6
:10D29000A3682B60F8BDC0461C310020FC30002084
:10D2A00038B51824114D00202978614349190431FB
:10D2B000FFF7DEFD297800224C432B19181C0124AE
:10D2C0001A719A601C615A619A61C2606B7809197F
:10D2D000013B6B70CBB20A2B01D02B7000E02A709F
:10D2E000034B1A70FFF722FE38BDC0461C310020E8
:10D2F000B9300020182208B507490B785343CB18E2
:10D300001B79042B02D0FFF7CBFF04E00122034B73
:10D310001A70FFF70BFE08BD1C310020B930002049
:10D3200008B51D4B1B78022B2ED0032B17D0012BD9
:10D3300030D10821194A13680B4220D1182218490C
:10D340000B785343174ACB18996812688A1A9A6067
:10D3500002D1FFF7A5FF1DE0FFF770FF1AE00821DB
:10D360000E4A13680B420AD10F4A13680133136047
:10D37000FFF7D2FC002804D1FFF7BCFF0AE08B4383
:10D380001360FFF7D3FD05E0084B094A1B789B00AB
:10D390009B58984708BDC046B93000202032002075
:10D3A0001C310020FC3000207C3000207830002030
:10D3B000D0F8030010B5174C23681B0726D4164A73
:10D3C000136801331360154B04221B68002B04D132
:10D3D000FFF7A2FC002803D00222114B1A700FE0C5
:10D3E000104B1B68002B0ED023680120191C0C4A1F
:10D3F000014003D103432360117001E00323137044
:10D40000FFF752FD04E0FFF775FF01E0FFF758FD5D
:10D4100010BDC046203200207C300020C8300020E3
:10D4200078300020BC30002008B5054B1B681B0776
:10D4300002D4FFF75FFF01E0FFF742FD08BDC046E1
:10D4400020320020F8B508241E4E35682C4024D127
:10D4500018221D490B785343CB185A69D868944653
:10D460009A6880235B051969184B1F68002F17D035
:10D47000131C6344013B181889B201F049FB144B9B
:10D480001B6883420CD1134B1C6001231D43124BBC
:10D4900035601C70FFF708FD13E0FFF711FD10E089
:10D4A000FFF73AFC002804D000220A4B1A6002322F
:10D4B00002E0002F03D00322074B1A70EAE7FFF7C0
:10D4C00019FFF8BD203200201C310020BC300020A4
:10D4D0007C300020C83000207830002008B5064B92
:10D4E000586980235B05421C04D0196989B201F098
:10D4F0000FFB00E0586908BD0010001038B580250A
:10D500006D052C69084AA3B21468013C5C43FFF71F
:10D51000E5FF2B69411E9BB25943044B201C1A683E
:10D52000FFF786FE38BDC0467C300020C8300020A2
:10D53000182270B50F4980260B7876055343CB1817
:10D540001A1C9C685B693169E418D36889B2E418D5
:10D55000201C01F063FB0D1CFFF7C0FF336901388D
:10D560009BB25843044B41191A68201CFFF760FE18
:10D5700070BDC0461C310020BC30002008B5FFF74C
:10D58000ADFF80225205136901389BB25843054B09
:10D59000116912691B6889B292B259439208FFF768
:10D5A00047FE08BD7C30002008B5FFF797FF8022BA
:10D5B0005205136911699BB20138584389B201F0D1
:10D5C000A7FAFFF727FE08BDC12307B5064A9B004F
:10D5D000D358DB0706D50022044B1A60044B1B68A6
:10D5E0000193984707BDC04600000140000101407B
:10D5F0006C30002010B50024201C0D4B5030E21878
:10D6000092001368800080B2002B0CD0C12309491E
:10D610009B00C95880235B02A340194203D000231A
:10D620001360191C98470134042CE5D110BDC04685
:10D630005024001000900040F8B501220025394B1D
:10D640001968012908D1C121374889004158114280
:10D6500002D00021154319603449043352008B4233
:10D66000EED1334B00241A68012A08D11C608023B4
:10D670001B061D43A022A223D205DB00D4582B0792
:10D6800002D1002D4DDA16E0012700263D420DD0D3
:10D69000254AB3009918A222D20088588958254AF1
:10D6A000C0048903C00E890F9B58984701367F003C
:10D6B000042EEBD1E5E71F4A131C343319784BB223
:10D6C00001332ED0C9B2C023081C984313181B7D08
:10D6D0005BB29B009E58002E23D0A0220127D205CA
:10D6E00083009B18E0228740D2009D588909AD0332
:10D6F000AD0F274202D0022D13D102E0032D10D12D
:10D7000003E003290CD10C1C02E0032908D10224F8
:10D710009F58094D24043D409D509D582C439C50DA
:10D72000B047F8BD0061004000600040106100405B
:10D730007C61004080300020FFFFFCFF82B0019040
:10D74000019B002B12D0019B0948013B019301383A
:10D75000C046C046C046C046C046C046C046C04699
:10D76000C046C046C046C046F1D1E9E702B07047A6
:10D77000E70300000121024A13784B401370704701
:10D78000E830002010B5064A064C11880523A14256
:10D7900003D0063B017013800023181C10BDC04647
:10D7A000022C0020FFFF000000220121044B1A7010
:10D7B000044BD9605960A021C9005A507047C04637
:10D7C000603000200020004013B52A4C2A4BE2684C
:10D7D000002A14D0C12292009958042211420ED07E
:10D7E0000021E160A321C9005B582449DBB20B8012
:10D7F00069460B71224B0A701B6868469847236A7A
:10D800001D49002B1DD0C1239B00CB581B0618D5EA
:10D810000022184B1A621B4A1378DBB2002B10D07F
:10D82000022B04D9032B0CD1FFF7BEFF09E0012323
:10D83000CB6013706A4602331370114B68461B6845
:10D840009847A26A0C4B002A13D0C12292009A5822
:10D8500092050ED50021074A684691629021C900C1
:10D860005A585A50022369460B70054B01921B68A7
:10D87000984713BDFC20004000200040022C0020EF
:10D88000643000206030002070B5134C061C201C52
:10D89000124D2378A2782B70E37808301B021343D3
:10D8A0006B8023792B7100F0F9FAA860201C0C30F2
:10D8B00000F0F4FAE860201C103000F0EFFA286164
:10D8C000201C143000F0EAFA6861201C183000F0C7
:10D8D000E5FAA861356070BD00FC0300CC30002083
:10D8E000002008B5011C024A00F0BCFD08BDC0467E
:10D8F00009CE0300FF22494B120470B51A60061CC2
:10D900000022A023A121DB05C900B24223D00124BB
:10D9100043485C500138C046C046C046C046C04679
:10D92000C046C046C046C046C046C046C046F1D10B
:10D930003C493B485C500138C046C046C046C046E2
:10D94000C046C046C046C046C046C046C046C046A7
:10D95000F1D11219D5E734480138C046C046C04657
:10D96000C046C046C046C046C046C046C046C04687
:10D97000C046F1D1012202255A50032400F0F8FEDE
:10D980006420FFF7DBFE013C00F012FF6420FFF78C
:10D99000D5FE002CF2D1FA20FFF7D0FE033400F0C0
:10D9A000E7FEFA20FFF7CAFE013C00F001FFFA2073
:10D9B000FFF7C4FE002CF2D1FA20FFF7BFFE0334BC
:10D9C00000F0D6FE6420FFF7B9FE013C00F0F0FE47
:10D9D0006420FFF7B3FE002CF2D1FA208000FFF79D
:10D9E000ADFEB4420BD000F0C3FEFA20FFF7A6FE56
:10D9F00000F0DEFEFA20FFF7A1FE0134F1E70B484C
:10DA0000FFF79CFE012D01D00125B6E7BFF34F8F34
:10DA1000074A084BDA60BFF34F8FFEE78C320020D5
:10DA200090D003000C05000020A10700B80B0000F7
:10DA30000400FA0500ED00E0F0B5051C002089B0F7
:10DA400002AF141C0E1CFF22011CFB6000F02EFE16
:10DA5000002C02D08023DB01F61804225F4C082042
:10DA60002368134268D05E4B101C1A68002A63D1E9
:10DA700002323A615B4A281C1A6001F023F8FB6805
:10DA8000002B04D1837B022B01D10020A2E003688C
:10DA9000281CFB607B6101F015F80028F5D080237D
:10DAA0004268DB029A42F0D84F4B02689A42ECD9A6
:10DAB0000E238289FF339A42E7D101224B4B1A7021
:10DAC0003B69FB60022B0BD17B6903201A1CFB60B6
:10DAD000024005D110230092F918331CFFF750FBC8
:10DAE00000F06EFD23685B07FAD5414B5B78BB60A5
:10DAF000002BF5D100F064FD80236A465B051B69AD
:10DB0000BC689BB20733DB08DB00D31A9D4602AB2F
:10DB10007A60FB60B44245D280235B051A69F868DD
:10DB200092B2291C00F060FF80235B051A692B4B21
:10DB30001B685B0704D4082000210A1CFFF7DAFEEB
:10DB4000FB68002B40D03B69022B3FD193B2002BE6
:10DB50003CD0F9680A4303210A4239D10C4237D13B
:10DB60007A690A4234D110220094B9180120FA6867
:10DB7000FFF706FB0028DFD1B86000F021FD174B4E
:10DB80001B685B0702D51A4B5B78BB60BB68002B38
:10DB9000F3D18022520513699BB2ED1813699BB231
:10DBA000E418B7E78020400000F06CFF80200021DF
:10DBB000400000F043FF0020011C021C00F076FD35
:10DBC0007B6801209D4605E00E20B5E70720B3E7FE
:10DBD0001020B1E7BD4607B0F0BDC046203200209E
:10DBE00010310020F5DB0300FF7F01001831002019
:10DBF0001C31002008B5032903D10022054B1A70FF
:10DC000006E0002A04D00021101C0A1CFFF772FE57
:10DC100008BDC046183100201FB51B4B18780138CD
:10DC200004282ED800F06AFF030307161D00012206
:10DC3000164B5A6225E0022201AB1A700022144BE7
:10DC400002921B680392934208D10020011C021C1F
:10DC5000FFF750FE002201AB1A70F0E70198111C8B
:10DC60000EE0012201AB1A700A49084A0A485158CD
:10DC7000074B029112581B680392002BE5D00198C4
:10DC8000984705B000BDC0461C320020004000404F
:10DC9000143200203C0500004C05000008B50028A7
:10DCA00004D10020011C021CFFF724FE0029F8D03B
:10DCB000002303600B8008BD37B5254C254BE26A75
:10DCC000002A35D000222449E2620A78D2B2012A21
:10DCD00016D0022A2CD12148214A006898502148A8
:10DCE000214A006801909850204A1068A722D2006B
:10DCF00098501F4A1068A922D2009850032314E0BC
:10DD0000164D17482D681D50164D17482D68019562
:10DD10001D5016480568A720C0001D50144805680E
:10DD2000A920C0001D509A6204230B70FFF774FFF6
:10DD3000A368002B0AD00022054B9A60064B1A7884
:10DD4000042A03D101321A70FFF766FF37BDC046BF
:10DD5000FC400040004000401C32002014310020F4
:10DD6000440500001832002034050000083100206E
:10DD70000C31002073B5334BD968012960D1C12221
:10DD800031489200825852075AD500222F4CDA604F
:10DD9000638BA21D01339BB26383D37FDBB2002B65
:10DDA0000BD1D177628B216A92B2002905D001A9EB
:10DDB0000B704A80236A01989847A3232268DB00EE
:10DDC000D0582169A38AE28A9BB292B2002907D077
:10DDD0009A4205D2E38A9BB25A1C92B2E282C8549C
:10DDE000A068A589E389228B9BB292B2ADB293421F
:10DDF0000CD22668011E03D00021AB4200D2C15CC8
:10DE0000134BF150E38901339BB2E381638B93425F
:10DE100016D310481049E589FFF740FF0F48104915
:10DE2000FFF73CFF0222631DDA77236AADB2002BB5
:10DE300006D001AB013A1A705D800198236A9847B9
:10DE400073BDC046FC30004000300040603200200E
:10DE50001C050000683200206C3200207032002067
:10DE60007432002037DF704736DF704733DF70478A
:10DE700032DF70472FDF70472EDF704713DF7047A8
:10DE800011DF704708B5082904D00020011C021CCE
:10DE9000FFF730FD03684068984708BD021C4378CF
:10DEA000180293781B04034310781843D3781B0699
:10DEB00018437047F8B5FFF7E3FF002810D1184B5F
:10DEC0001A68012383401A4201D01649CB670130FA
:10DED0002028F6D1144C2068FFF7D0FF002803D08B
:10DEE00000210A1CFFF706FD2368186880F30888E4
:10DEF0005868FF2464B2EFF30585002D01D1A646D2
:10DF00000047251C061C21273FBAF0B40024002539
:10DF100000260027F0B4F92040B20047F8BDC04603
:10DF200000E100E004E100E00830000070B5274B9C
:10DF30009A68002A04D026490A780132D2B20A70BF
:10DF400000245C649C64DC641C655C609C60214B08
:10DF50001E68731C38D0204A204BD358204A1568BD
:10DF60005D1B2D022D0A24231E4A73431268D31809
:10DF70005A68954214D3AD1AA4181B4A1E6A126837
:10DF8000002A08D09869D9699047002806D0002156
:10DF90000A1CFFF7AFFC9A69D8699047731CE2D15D
:10DFA000124B134A197813788B4205D10133DBB237
:10DFB000022B00D10023137013780E4A9B009C5053
:10DFC00080220D4B52035A6070BDC046FC100140C8
:10DFD00031320020543200200010014004050000BE
:10DFE00058320020403200204832002051320020B8
:10DFF0005C32002028320020FCE100E08022D221A7
:10E00000184B9202DA67184B184A89005A50403967
:10E010005A5001212F225960101C0138C046C046B9
:10E02000C046C046C046C046C046C046C046C046C0
:10E03000C046C046F1D1996000230D49101C0B6009
:10E040000138C046C046C046C046C046C046C0466D
:10E05000C046C046C046C046C046F1D1054A13700E
:10E060007047C04604E100E00010014002000100DA
:10E070005832002038320020F0B5B549B54A0B6857
:10E08000B5488BB0039300781378984211D00133D0
:10E09000DBB2022B00D1002313701378AF4A9B0030
:10E0A0009B589C46039B63441B021B0A0B60012385
:10E0B00001E000239C460493A94B1B680893A94BDD
:10E0C0001B780193A84B1B680993A84B1F68A84BAA
:10E0D0001B780793019B0293029B013BDBB20293E7
:10E0E000FF2B61D0029BDC00099B1C19227863780E
:10E0F0009342F1D018235343A07801326168D2B221
:10E10000801ACB18411E88411978404202400229EA
:10E1100004D00329EBD1924B1B6839E024215B68C2
:10E120005943059379180B7D0693002BDFD08C4B58
:10E130001E68351C301C6B1C27D0059B9D4205D0EA
:10E1400024236B43FB18281C1D6AF4E7A8420FD157
:10E1500024237343FB181B6A814D2B60013307D1C5
:10E160000125844B9D600025794B1D60069B07931C
:10E17000242358430D6A38184E680562681C04D081
:10E180006B43FB18586886195E6000230B75AEE779
:10E19000591C06D024214B430021FB1819751B6A1A
:10E1A000F6E76F490B60A2E76A46714B127F1A705F
:10E1B0006B4B049A1B68002A08D1089A01279B1A06
:10E1C0005A1E9341DBB202937F422CE001270020CC
:10E1D000664A7F4215685A1C21D024225A43AA1845
:10E1E00051688C4506D25E4803606346C91A516087
:10E1F000012317E064464018641A0021A4461469FC
:10E2000051601175166A8C4207D017621F1C039962
:10E21000D46041180902090A9160331CDBE7504AB7
:10E220001360023302934E4B1B680593504B1B78CF
:10E230000693019B013BDBB20193FF2B00D19DE0D4
:10E24000494A019B1268DB00D3187A1C07D02422AC
:10E2500046497A430968BC468A18176A29E01A7841
:10E2600059789142E5D0182151435868013241183C
:10E270009878D2B21A70904201D100221A704A687E
:10E2800094463A4A10680A78012ADED1644623325D
:10E2900062438218107D0028D7D18C689460CC68C6
:10E2A000D4600C6914614969D1610699002900D0D4
:10E2B00090602749956809682F4E681A0002000A85
:10E2C000D468B04202D80019506009E0491B090225
:10E2D000090A8C4202D9641A546001E0002151609D
:10E2E0000021242064469160D1600131117502390A
:10E2F00011621E4A44431568194A2C191268511CB0
:10E300000AD0504328184668616803960492B142C7
:10E310000CD8711A41602262624611490A6094E782
:10E32000006A891B0492461C0AD0021C2420504318
:10E3300028184668B142F3D8761A4660101C049A31
:10E34000616024214A43AD18624620622A627CE75C
:10E3500058320020513200205C3200202832002048
:10E3600054320020243200203C3200204032002071
:10E370003032002000100140FEFF7F002F4B059A35
:10E380001B68934202D1029A002A51D05A1C4DD0E8
:10E390002B4A2C48116824225343CB185D682A4924
:10E3A0002A4B0C581B682A4EE21A1202120A3778BE
:10E3B000033201920290002F1ED1D1272548BF00C1
:10E3C000C851403FC851C02280272348BF02520095
:10E3D0008750076001272F200F600138C046C046D4
:10E3E000C046C046C046C046C046C046C046C046FD
:10E3F000C046C046F1D13770019AAA4200D22A1C09
:10E40000D318A8221B021B0AD2008B50029A8958EB
:10E41000091B0902090A1C1B24020331240AA14218
:10E4200006D980220D4B92025A6001E0FFF7E6FD0B
:10E4300000220B4B1A700BB0F0BDC04654320020C6
:10E440004032002004050000001001405832002036
:10E45000383200200200010000E100E0FCE100E0B1
:10E4600030320020F0B585B002ABDF1D00233B70D9
:10E47000404B009001925B680E1CDB05DB0D042510
:10E48000002B1ED0103BD9B24AB2002A0BDA0F2261
:10E490000A40083A384B92089200D21803230B40E6
:10E4A0005268DB0007E092083449C03292005258AB
:10E4B00003210B408B40DA40D3B29B09DDB2012B24
:10E4C00009D0381CFEF714F8022801D172B603E017
:10E4D000002801D027E01D1C294B2A492A4A187818
:10E4E0000B781288DBB2C0B20024934201D2013310
:10E4F000DCB284420CD00C780B780021DBB2934262
:10E5000001D20133D9B21F4B1970012D03D112E092
:10E51000012D2BD01D4C62B63878FDF7E7FF0223A2
:10E52000021C9A4303D000210A1CFFF7E3F9174BA2
:10E5300004209C421BD0164BE5001B685D19019B13
:10E540002B60009B002B0ED0002E0CD0114B00999D
:10E550001888114B44431868321C001900F069FCFC
:10E56000AE80002003E00020A88000E0042005B079
:10E57000F0BDC04600ED00E018ED00E000E100E075
:10E58000523200205032002044320020FFFF0000B1
:10E5900034320020103200204C32002007B5064BE8
:10E5A00000901B8801910920072B04D96846082197
:10E5B000024AFFF757FF0EBD1032002085DE030030
:10E5C00010B51049104A0B7812789A4219D00F48AA
:10E5D0000B780A780488D2B2DBB20020944201D9C9
:10E5E0000132D0B20A4A087010880A4A58431268A9
:10E5F000DB001018084A1268D31899881B689847DE
:10E60000DFE710BD5232002050320020443200209B
:10E61000103200204C3200203432002030B50D4C36
:10E62000227813049D1AFF23020C1A406A432578AE
:10E63000120C0A802A04551B020A1A406A432478E5
:10E64000120C4A802204121B034053431B0C8B8084
:10E6500030BDC046042C0020C0B282B0012801D1D8
:10E66000014B187002B070478832002008B50029AD
:10E6700004D10020011C021CFFF73CF9002AF8D04D
:10E68000002BF6D00860411E884180B21080002225
:10E690001A8008BD08B50378022B01D0012B04D1E4
:10E6A000002140680A1CFFF725F908BD30B5A023FA
:10E6B0008024DB05A403002801D0154D01E0A1252D
:10E6C000ED005C518024E403002901D0104D01E0ED
:10E6D000A125ED005C51A0238024DB052404002A41
:10E6E00001D00B4D01E0A125ED005C510B1CA024D5
:10E6F00013430343E4050125002B02D0A123DB00D3
:10E7000000E0034BE550034B188059809A8030BDE0
:10E710000C05000094320020F7B5041C00886188C5
:10E72000A288FFF7C3FF0F4B1F68002F18D0208867
:10E730000D49000200F07CFAC6B260880A49000266
:10E7400000F076FAC5B2A0880749000200F070FA1E
:10E7500000220092054AC3B2311C10682A1CB84737
:10E76000F7BDC046A0320020FFFF0000903200201D
:10E7700007B50A4B1B78002B01D0094B00E0094B71
:10E7800018686946FFF74AFF6846FFF7C5FF63222E
:10E79000054B1A70054B9C321A7007BD8A32002057
:10E7A0009C3200208C320020062C0020052C0020FA
:10E7B00007B500206946FFF731FF6846FFF7ACFF59
:10E7C0000022034B1A70034B01321A7007BDC0467A
:10E7D000062C0020052C002010B51B4A1378111CB4
:10E7E000012B19D1194B1B681B0715D1184BE024BD
:10E7F0001A68F023101C184022420BD1154A1268E7
:10E800001A4209D1144A154B1A608022144B120285
:10E810001A6001E03028F1D00B68DBB2012B12D175
:10E820000A4A126812070ED1F021094A12680A40FA
:10E83000402A08D1074A12680A4204D1C122802125
:10E84000D200C9058B5010BDE00F00F0E40F00F0BE
:10E85000E80F00F0EC0F00F0DFFF07C004050040F8
:10E86000186C0040F0B5002687B004AB454C464913
:10E87000464ADF1D464B20700E7016703E70D81D44
:10E88000C57F0294EDB2019103921C1CB54207D0E2
:10E89000381CFFF7E9FAB0420CD0311C321C07E0FB
:10E8A000187940B2FFF7E6FA002803D0291C2A1C89
:10E8B000FFF720F8621DD37F1125022B40D10025E0
:10E8C000013BD377A21D6583211CD5772383221CAE
:10E8D000231C08310C320E330298FFF7C7FE211CAF
:10E8E000221C231C1031143216330198FFF7BEFE90
:10E8F000A168A089E68980B2B6B222680B1EAB423D
:10E9000003D02B1C864200D28B5D224D5351204BED
:10E91000AC46DA890025013292B2DA811C8BA24220
:10E920000ED21E680C1EAC4203D02C1C824200D2B8
:10E930008C5C62460025B450DA89013292B2DA81E9
:10E94000134BDA1DD47FE4B2002C07D03878FFF7E0
:10E9500089FA00280BD000210A1CA9E7187940B2D7
:10E96000FFF78AFA002802D0211C221CA0E7002D04
:10E9700003D1039B1B78002BFBD0019B187807B0B9
:10E98000F0BDC046A4320020893200208832002029
:10E99000603200201C05000010B58022A024094B25
:10E9A000E4055203E2500520FFF75CFFFF20FFF76C
:10E9B00059FFC307FAD48022A1235203DB00E2509F
:10E9C00010BDC0460C05000038B5A0248025054BBD
:10E9D0006D03E405E5500620FFF744FFA123DB00AB
:10E9E000E55038BD0C050000F8B5161CA0258022A6
:10E9F0000F1C114B5203ED05EA50041C0320FFF7D6
:10EA000031FF3802000EFFF72DFF3804000EFFF72C
:10EA100029FFF8B2FFF726FFA619B44205D0FF2060
:10EA2000FFF720FF20700134F7E78022A123520373
:10EA3000DB00EA50F8BDC0460C050000F8B5A02583
:10EA40008026041C0F1CFFF7BFFF0D4BED0576035E
:10EA5000EE500220FFF706FF2002000EFFF702FF34
:10EA60002004000EFFF7FEFEE0B2FFF7FBFE381CAD
:10EA7000FFF7F8FEA123DB00EE50FFF78DFFF8BD96
:10EA80000C05000070B5A0258026041CFFF79CFF34
:10EA90000B4BED057603EE502020FFF7E3FE20023E
:10EAA000000EFFF7DFFE2004000EFFF7DBFEE0B2F2
:10EAB000FFF7D8FEA123DB00EE50FFF76DFF70BD1E
:10EAC0000C050000802200B5C1B0011C5200684650
:10EAD000FFF78AFF6B46DB7800201A066B469B78AF
:10EAE0001B041343044A134080229205934200D131
:10EAF000C030684441B000BD0000F12F02B471463F
:10EB000049084900095C49008E4402BC7047C04670
:10EB1000002243088B4274D303098B425FD3030A5C
:10EB20008B4244D3030B8B4228D3030C8B420DD36F
:10EB3000FF22090212BA030C8B4202D312120902FD
:10EB400065D0030B8B4219D300E0090AC30B8B423B
:10EB500001D3CB03C01A5241830B8B4201D38B03E9
:10EB6000C01A5241430B8B4201D34B03C01A52418E
:10EB7000030B8B4201D30B03C01A5241C30A8B42D1
:10EB800001D3CB02C01A5241830A8B4201D38B02BC
:10EB9000C01A5241430A8B4201D34B02C01A524160
:10EBA000030A8B4201D30B02C01A5241CDD2C309D2
:10EBB0008B4201D3CB01C01A524183098B4201D34E
:10EBC0008B01C01A524143098B4201D34B01C01A39
:10EBD000524103098B4201D30B01C01A5241C308B1
:10EBE0008B4201D3CB00C01A524183088B4201D320
:10EBF0008B00C01A524143088B4201D34B00C01A0C
:10EC00005241411A00D20146524110467047FFE777
:10EC100001B5002000F0FCF802BDC0460029F7D085
:10EC200003B5FFF775FF0EBC4243891A1847C0466B
:10EC300003460B437FD4002243088B4274D303095D
:10EC40008B425FD3030A8B4244D3030B8B4228D3FE
:10EC5000030C8B420DD3FF22090212BA030C8B4224
:10EC600002D31212090265D0030B8B4219D300E0C4
:10EC7000090AC30B8B4201D3CB03C01A5241830B49
:10EC80008B4201D38B03C01A5241430B8B4201D3F9
:10EC90004B03C01A5241030B8B4201D30B03C01A22
:10ECA0005241C30A8B4201D3CB02C01A5241830A9C
:10ECB0008B4201D38B02C01A5241430A8B4201D3CB
:10ECC0004B02C01A5241030A8B4201D30B02C01AF5
:10ECD0005241CDD2C3098B4201D3CB01C01A52415C
:10ECE00083098B4201D38B01C01A524143098B42E5
:10ECF00001D34B01C01A524103098B4201D30B01CE
:10ED0000C01A5241C3088B4201D3CB00C01A5241F2
:10ED100083088B4201D38B00C01A524143088B42B7
:10ED200001D34B00C01A5241411A00D20146524150
:10ED3000104670475DE0CA0F00D04942031000D36F
:10ED40004042534000229C4603098B422DD3030AC4
:10ED50008B4212D3FC22890112BA030A8B420CD3D4
:10ED6000890192118B4208D3890192118B4204D3FD
:10ED700089013AD0921100E08909C3098B4201D37D
:10ED8000CB01C01A524183098B4201D38B01C01AB7
:10ED9000524143098B4201D34B01C01A524103092E
:10EDA0008B4201D30B01C01A5241C3088B4201D3DD
:10EDB000CB00C01A524183088B4201D38B00C01A8A
:10EDC0005241D9D243088B4201D34B00C01A524161
:10EDD000411A00D20146634652415B10104601D3EE
:10EDE0004042002B00D54942704763465B1000D378
:10EDF000404201B5002000F00BF802BD0029F8D018
:10EE000003B5FFF715FF0EBC4243891A1847C046E9
:10EE10007047C04630B50024944208D0035D651C9D
:10EE20000C5DA34201D0181B02E02C1CF4E700206B
:10EE300030BD002310B5934203D0CC5CC4540133E1
:10EE4000F9E710BD0EB410B59DB002A9029008619B
:10EE50000B48822488604861012040421FABC88172
:10EE6000084804CBA400006801938C8100F06CF882
:10EE70000023029A13701DB010BC08BC03B01847E1
:10EE8000FFFFFF7F682C0020F0B58E6885B0071C5F
:10EE90000C1C03920193B34245D390238A89DB0073
:10EEA0001A423DD003250969236801985B1A029331
:10EEB00063695D43EB0F5D19029B6D1001331B18F5
:10EEC0009D4200D21D1C381C53050FD5291C00F093
:10EED000BDFB061E13D0029A2169FFF7AAFFA28983
:10EEE000184B134080221343A38111E02A1C00F029
:10EEF000C6FA061E0CD1381C216900F061FB0C23F8
:10EF0000402201203B60A38940421343A38117E0C4
:10EF1000029B2661F61826606561019EED1AA560C8
:10EF2000019BB34200D2019E321C2068039900F07D
:10EF300092FA0020A3689B1BA36023689E19266099
:10EF400005B0F0BD7FFBFFFFF0B59FB002900593C9
:10EF50008B890E1C171C1B0610D50B69002B0DD1BD
:10EF6000402100F073FB30603061002804D10C2395
:10EF7000029A01381360D0E040237361002306AD8C
:10EF80006B6120336B761033AB763C1C2378002BFF
:10EF900003D1E31B049312D003E0252BF9D00134F5
:10EFA000F4E7049B0298311C3A1CFFF76DFF431CE9
:10EFB00000D1ACE06A69049B944663446B6123789A
:10EFC000002B00D1A3E00122002352426A6002A973
:10EFD0005432521801342B60EB60AB601370AB6598
:10EFE0004F4F2178381C052200F02AFA002808D05B
:10EFF000C01B01278740381C2B6801341843286048
:10F00000EEE72B68DA0604D55322202102A8121855
:10F0100011701A0704D553222B2102A8121811705F
:10F0200022782A2A01D0099B0EE0059A111D126848
:10F030000591002A01DB099204E05242EA600222B3
:10F0400013432B60013409E02278303A092A04D8AE
:10F050000A214B4301349B18F6E7099323782E2BA2
:10F0600018D163782A2B09D1059B02341A1D1B681D
:10F070000592002B0DDA01235B420AE000230134E4
:10F080002278303A092A04D80A214B4301349B18CC
:10F09000F6E70793234F2178381C032200F0D0F9BC
:10F0A000002807D0C01B40278740381C2B6801343C
:10F0B0001843286021781C480622671C297600F036
:10F0C000BFF9002812D0194B002B06D10722059B4F
:10F0D000073393430833059314E005AB009302987C
:10F0E000291C321C124B00E000BF07E005AB009367
:10F0F0000298291C321C0E4B00F08AF80390039BE7
:10F10000013304D06B69039A9B186B613DE7B389A7
:10F110000B985B0601D5012040421FB0F0BDC046F0
:10F12000F8F80300FEF8030002F9030000000000F5
:10F1300089EE0300F7B5171C01930A698B680090EC
:10F140000C1C934200DA131C221C3B6043321278E1
:10F15000002A01D001333B6023689B0602D53B683F
:10F1600002333B60062523681D401ED0231C433319
:10F170001B785A1E9341226892061CD53020E11854
:10F180004031C870211C5A1C45310978A218403200
:10F190000233D1700FE0221C01230098019919322B
:10F1A000089EB047431C0ED00135E3683A689B1AAD
:10F1B0009D42F0DBDAE7221C009801994332089D5A
:10F1C000A847431C02D10120404220E006232068CA
:10F1D000E1683A6803400025042B03D18D1AEB4304
:10F1E000DB171D40A3682269934201DD9B1AED18CD
:10F1F0000027AF420ADA221C0123009801991A3233
:10F20000089EB047431CDED00137F2E70020FEBD68
:10F21000F0B58BB006920A1C433207930590049216
:10F220000A7E0C1C109B6E2A00D1A8E011D8632A1C
:10F2300022D009D8002A00D1B2E0582A00D0C2E07A
:10F2400045310A707C4A4FE0642A1DD0692A1BD0E0
:10F25000B9E0732A00D1A7E009D86F2A29D0702A13
:10F2600000D0B0E0202209680A43226037E0752A06
:10F270001FD0782A33D0A6E00E1C1A684236111D22
:10F28000196013683370A1E021681A68080606D473
:10F29000490604D5111D19600023D55E02E0111D39
:10F2A00019601568002D3BDA2D23049A6D42137006
:10F2B00036E021681A68080606D4490604D51568A0
:10F2C000111D1960ADB202E0111D196015685A4B8D
:10F2D000227E03930A276F2A1DD108271BE0221CD8
:10F2E000782145321170554A19680392081D226829
:10F2F00018600D68100602D4500600D5ADB2D307D1
:10F3000002D520231A4322601027002D03D1202389
:10F3100022689A432260231C002243331A7002E0C1
:10F320000A27454B03936368A360002B03DB042289
:10F33000216891432160002D02D1049E002B0ED044
:10F34000049E281C391CFFF769FC039B013E5B5C93
:10F35000281C3370391CFFF7DBFB051EF1D1082F89
:10F3600009D12368DB0706D563682269934202DC72
:10F370003023013E3370049B9B1B23612BE0096803
:10F380001A68080607D4490605D5111D19601368C7
:10F39000A28A1A8004E0111D1960136862691A605C
:10F3A0000023049E236116E01A68111D1960166877
:10F3B0000021301C626800F043F8002801D0801B57
:10F3C0006060636803E0261C4236327001232361CB
:10F3D0000023049A1370079B05980093211C069B39
:10F3E00009AAFFF7A7FE431C02D10120404221E0F9
:10F3F000236905980699321C079DA847431CF4D041
:10F4000023689B0705D4099BE068984212DA181C10
:10F4100010E00025E368099A9B1A9D42F3DA221C4A
:10F420000123059806991932079EB047431CDCD08A
:10F430000135EFE70BB0F0BD09F903001AF903003D
:10F44000C9B28218904204D003788B4202D00130B6
:10F45000F8E70020704710B5814208D28B18984217
:10F4600005D29B1A013A09D3995C8154FAE700232B
:10F47000934203D0CC5CC4540133F9E710BDF8B516
:10F48000061C0C1C151C002904D1111C00F0DEF810
:10F49000041C18E0002A03D100F092F82C1C12E0A2
:10F4A00000F013F8A8420ED2301C291C00F0CEF850
:10F4B000071E07D0211C2A1CFFF7BBFC301C211C97
:10F4C00000F07EF83C1C201CF8BD0B1F1A68101FB2
:10F4D000002A04DA891804390B68D01804387047F8
:10F4E00003210A4802680A430260094802680A4385
:10F4F00002600849084A094B9B1A03DD043BC858BF
:10F50000D050FBDC064880470648004724050040F1
:10F5100054050040D0F903006C2C00206C2C002016
:10F52000D9E70300D9C00300FEE7FEE7FEE7FEE7E8
:10F53000FEE7FEE7084B10B5041C002B02D00021AB
:10F5400000E000BF054B1868836A002B00D0984785
:10F55000201C00F033F8C0460000000030F9030022
:10F560000E4B70B500251E1C0D4CE41AA410A542CC
:10F5700004D0AB00F35898470135F8E700F0DEF807
:10F58000084B00251E1C084CE41AA410A54204D008
:10F59000AB00F35898470135F8E770BD6C2C00209C
:10F5A0006C2C00206C2C00206C2C0020031C82187A
:10F5B000934202D019700133FAE77047FEE7C04664
:10F5C00030B500293ED004390B68002B00DAC91889
:10F5D0001D4A1368141C002B02D14B60116031E0EE
:10F5E00099420DD208680A189A4203D11368C318C9
:10F5F0000B6053684B60216024E08A4203D8131CDF
:10F600005A68002AF9D11D685C198C420BD109682F
:10F61000691858181960904214D110685268091876
:10F6200019605A600EE08C4202D90C23036009E095
:10F6300008680C18944203D11468526800190860D5
:10F640004A60596030BDC046AC320020032370B51B
:10F65000CC1C9C430834051C0C2C01D20C2405E066
:10F66000002C03DA0C2300202B6042E08C42F9D3FB
:10F67000204A1368101C191C002913D00A68121B99
:10F680000DD40B2A02D90A608B181FE08B4202D1DD
:10F690005A6802601BE04A685A600B1C17E00B1C9A
:10F6A0004968E9E7144E3368002B03D1281C00F0A9
:10F6B00025F83060281C211C00F020F8031C421C97
:10F6C000D0D00322C61C964386420AD11C60181C67
:10F6D00007210B301A1D8843821A0AD051429950D3
:10F6E00007E0311A281C00F009F8431CBAD0331C7B
:10F6F000ECE770BDAC320020A832002038B5002302
:10F70000064C051C081C236000F00AF8431C03D1BA
:10F710002368002B00D02B6038BDC046B4320020D7
:10F72000044A1368002B03D018181060181C704787
:10F73000014BF9E7B0320020B8320020F8B5C046DE
:10F74000F8BC08BC9E467047F8B5C046F8BC08BC7B
:10F750009E4670472564000D0A0055736520746845
:10F760006520666F6C6C6F77696E6720636F6D6D77
:10F77000616E64733A202020202020202020202049
:10F780002020202020202020202020202020202079
:10F7900020202020202020202020200A2020662039
:10F7A0002D20757064617465206669726D77617271
:10F7B0006520202020202020202020202020202004
:10F7C0002020202020202020202020202020202039
:10F7D000202020202020200A202075202D20757038
:10F7E00064617465207075626C6963206B65792053
:10F7F0002020202020202020202020202020202009
:10F8000020202020202020202020202020202020F8
:10F8100020202020200A202072202D207570646175
:10F8200074652070726976617465206B657920203B
:10F8300020202020202020202020202020202020C8
:10F8400020202020202020202020202020202020B8
:10F85000202020200A202065202D20657869742032
:10F86000616E6420626F6F74202020202020202091
:10F870002020202020202020202020202020202088
:10F8800020202020202020202020202020200A208E
:10F890002076202D2076657273696F6E20202020DF
:10F8A0002020202020202020202020202020202058
:10F8B0002020202020202020202020202020202048
:10F8C00020200A202068202D2068656C70200A0006
:10F8D000D9CE0300FDCE0300B5D3030029D4030025
:10F8E00045D40300A9D503007DD5030021D2030030
:10F8F00031D50300FDD40300232D302B2000686C8C
:10F900004C00656667454647003031323334353642
:10F91000373839414243444546003031323334357B
:10F920003637383961626364656600430000000061
:04F93000082C00207F
:08F93400A4C7FF7F01000000E1
:10F93C000100FFFF60FF63000000000000000000FA
:10F94C0000000000000000000000000000000000AB
:10F95C0000000000000000002BF903000000000074
:10F96C00000000000000000000000000000000008B
:10F97C00000000000000000000000000000000007B
:10F98C00000000000000000000000000000000006B
:0CF99C000000000000000000082C00200B
:10F9A80000000102030405060708090A0B0C0D0EE6
:10F9B8000F101112131415161718191A1B1C1D1ED7
:04F9C8001F202800D4
:04F9CC007856341223
:020000020000FC
:020000041000EA
:0410140000C0030015
:040000033000F4E1F4
:00000001FF
