:020000023000CC
:10C00000807F00208DE40300D5E40300D7E4030023
:10C010000000000000000000000000000000000020
:10C02000000000000000000000000000D9E4030050
:10C030000000000000000000DBE40300DDE403007A
:10C04000DFE40300DFE4030035C6030079D7030013
:10C05000BDD603000000000065C50300DFE4030057
:10C06000DFE4030021C50300DFE40300DFE4030095
:10C07000DFE40300DFE40300DFE40300DFE40300A8
:10C08000DFE4030075CB0300DFE40300DFE403001B
:10C0900055C7030025C6030081D80300DFE4030071
:10C0A000DFE40300DFE40300000000000000000004
:10C0B0000000000000000000000000000000000080
:10C0C00000C0030044E60300000006000D0102006A
:10C0D0000000000000000000164B002B00D1144BA4
:10C0E0009D46402292029A1A924600218B460F46A4
:10C0F0001348144A121A02F02FFA0F4B002B00D0EB
:10C1000098470E4B002B00D09847002000210400D8
:10C110000D000D48002802D00C4800E000BF02F0DE
:10C12000F5F92000290000F03BFE02F0D9F9C046E5
:10C1300000000800807F00200000000000000000D8
:10C140002C3200202C3200200000000000000000F3
:10C1500028DF704729DF7047012307B5054A684685
:10C16000D360054A13706A4602331370034B1B6891
:10C17000984707BD00200040A130002088300020F3
:10C180008022D221184B9202DA67184B184A890094
:10C190005A5040395A5001212F225960101C013841
:10C1A000C046C046C046C046C046C046C046C0465F
:10C1B000C046C046C046C046F1D1996000230D4933
:10C1C000101C0B600138C046C046C046C046C04681
:10C1D000C046C046C046C046C046C046C046F1D173
:10C1E000054A13707047C04604E100E000100140AA
:10C1F000020001007C2C00208C30002037DF7047CB
:10C2000036DF704718DF704760DF704713DF704715
:10C2100008B5082904D00020011C021C01F0F8F820
:10C2200003684068984708BD08B5FFF793FF00F022
:10C23000E5F808BDF8B51823154A80261478760568
:10C240005C431419271C231C3169A26889B2083782
:10C250001033104D8A4210D931697C6888B2111AA6
:10C260003269F8689B68201892B2401892085918F1
:10C27000FFF7DAFF33699BB207E07968F868920844
:10C2800008189968FFF7D0FFA3682B60F8BDC04677
:10C29000DC300020C4300020F0B54F4B4F4F1B78EE
:10C2A0003A68181C4E4B85B09C464E4D00926A78F9
:10C2B0001B6801922A78039502924B4A464C1268F9
:10C2C00061463E1C484D032803D801F049FF0B2E60
:10C2D00037794149087061460B60009B3B60424BD7
:10C2E0001A6077E0019B002B04D16B461B79237009
:10C2F000019B0EE01823029A5343039AD31818792E
:10C300009A680023032808D0042806D001280BD0FF
:10C3100023700B6033602A605CE023700B60336035
:10C320002A6001F0C9FA55E0009301200B60009BE0
:10C33000207033602A60FFF77DFF4BE002200B6026
:10C340000099264B20701960284C274B80271A60D3
:10C3500023687F0500930123009A9A4318230192D2
:10C360002260204A15785D4355196B69029339693B
:10C37000181C89B201F0FEFE1D4B061C1860A8684F
:10C38000029B39691818013889B201F0F3FE864220
:10C3900003D10222019B134303E00323009A9A4333
:10C3A000131C2360134B1A68134B002A03D1216816
:10C3B0000232114200D000221A7001F065FB09E040
:10C3C00003200B60009B20703B60094B2A601868BB
:10C3D00000F034F805B0F0BDB2300020C4300020C9
:10C3E000A02C0020DC300020CC300020D8300020F1
:10C3F000D0300020D8310020C030002008B50028FF
:10C4000014D0112805D10823094A11680B43136081
:10C410000CE01822074B19785143C918043101F078
:10C4200023FB0422044B1A70FFF736FF08BDC046F9
:10C43000D8300020DC300020B230002008B5FFF7F3
:10C4400087FEFFF7DBFF08BD38B5144C04252278C2
:10C45000131CAB4321D002281DD003281DD1104B43
:10C460001B681B0717D40F490B6801330B60032BA4
:10C4700004D0022A0CD101F007FB0EE018220A4B6F
:10C480000D2019785143C918043101F0EDFA2570D7
:10C49000FFF702FF01E001F09DFA38BDB230002045
:10C4A000D8300020A02C0020DC30002038B5182423
:10C4B000114D0020297861434919043101F0D4FA63
:10C4C000297800224C432B19181C01241A719A60F8
:10C4D0001C615A619A61C2606B780919013B6B70EB
:10C4E000CBB20A2B01D02B7000E02A70034B1A70DC
:10C4F000FFF7D2FE38BDC046DC300020B23000204D
:10C5000008B5064B586980235B05421C04D01969A5
:10C5100089B201F02FFE00E0586908BD001000103C
:10C5200010B50024201C0D4B5030E2189200136807
:10C53000800080B2002B0CD0C12309499B00C95850
:10C5400080235B02A340194203D000231360191C0F
:10C5500098470134042CE5D110BDC046502400108A
:10C560000090004070B5012200241C4B196801297D
:10C5700008D1C1211A4889004158114202D0002136
:10C58000144319601749043352008B42EED1164B05
:10C590001A68012A09D100221A6080231B061C4355
:10C5A000A022A223D205DB00D358230714D00126F2
:10C5B000002534420CD00A4AAB009B18A222D200BC
:10C5C00098589958C0048903C00E890F00239847D2
:10C5D00001357600042DECD170BDC04600610040ED
:10C5E00000600040106100407C61004082B001901A
:10C5F000019B002B12D0019B0948013B019301389C
:10C60000C046C046C046C046C046C046C046C046FA
:10C61000C046C046C046C046F1D1E9E702B0704707
:10C62000E70300000121024A13784B401370704762
:10C630008D300020F0B5404C85B0E3683F4D002BB5
:10C640001ED00021A3233E4AE160DB00EE5897682C
:10C650009388D068C01B984264D8D06803401068A3
:10C66000C654D3680133D3609068D3681B1A012B7A
:10C6700006D102AB181C1970324B1B680193984706
:10C68000236A2E4A002B38D000202B4B2E4E1862E6
:10C690003378311CDBB283422FD0022B09D9032B14
:10C6A0002BD1023B3070D3605360A023DB00D0500D
:10C6B00023E0264B9868DE6886421CD00878022862
:10C6C00001D0012090609A68D868904213D0986891
:10C6D0009A8802401868805C9A6801329A60C22287
:10C6E00080239200AB501A4AA85002220A70C1223D
:10C6F0009200AB5001E0FFF72FFDA36A0F49002B1A
:10C7000017D000220C4B9A629022D2008B588B508B
:10C71000022203930B4B02A91B680A70081C0193A9
:10C72000984706E0012302AA137003330393101CF9
:10C73000A2E705B0F0BDC046FC200040002000404C
:10C740009030002088300020A1300020802C002074
:10C750001C050000F0B5C249C24A0B68C2488BB044
:10C76000039300781378984211D00133DBB2022B87
:10C7700000D1002313701378BC4A9B009F58039B81
:10C78000FB181B021B0A0B600123049301E0002726
:10C790000497B74B1B680593B64B1B780193B64BB8
:10C7A000019A1B6802920993B44B1B680093AC4B2F
:10C7B0001B680893B24B1B780793059B029A013ABA
:10C7C000D2B20292FF2A68D0029AD500099A55196E
:10C7D00029786A788A42F1D018224A43AC7801312C
:10C7E0006868C9B2641A8218601E84411078644275
:10C7F0002140022803D01A1C03284CD141E02420F8
:10C80000526850439446009A8018027D0692069C16
:10C810001A1C002C3FD01E1C1C1C721C08D0664524
:10C8200008D024227243009C1219341C166AF4E7C3
:10C830001A1C23E01A1CB4420DD124225343009A3F
:10C840009B181A6A531C06D101268E4B9E60069BCC
:10C850000793002308934368066A9C4624235C439D
:10C86000009BE4182662741C08D024237343009CA8
:10C870001B195E686446B44664445C60002303751B
:10C8800009E0531C07D024235A43009BD2180023ED
:10C890001375126AF5E7131C9BE7754A0899136034
:10C8A0006F4A11606946764A097F1170049A002A1E
:10C8B00009D1059A9B1A5A1E9341DBB202930123B8
:10C8C0005B429C462BE06D4A0020156801225242D3
:10C8D00094465A1C1FD024225A43AA1851688F42EA
:10C8E00005D26348C91B03605160012316E07F1A1B
:10C8F00040180021146951601175166A8C4208D0E5
:10C900000399D46041180902090A916061469C4666
:10C910001162331CDDE7564A136002330293544B15
:10C920001B680393544B1B680693544B1B6800937E
:10C930004B4B1B680593524B1B780793039B019A43
:10C94000013AD2B20192FF2A00D19FE0019A0699E2
:10C95000D2008A186146013108D060462421414343
:10C96000009864464118086A844628E01178507897
:10C970008842E4D018204843546801312018947844
:10C98000C9B211708C4201D1002111700178446844
:10C990001D1C012961D123316143009D69180E7D61
:10C9A0001D1C002E59D185688D60C568CD60056954
:10C9B0000D614069C8610798002800D08E608868C2
:10C9C000059D314F451B2D022D0ACE68BD4202D870
:10C9D000AD194D600AE0059D281A0002000A864242
:10C9E00002D9361A4E6001E00020486000208860BD
:10C9F000C86001300875023808622530061C66439D
:10CA00000099251C8E19591C27D05843009D716828
:10CA100028184568A94204D8691A4160251C336268
:10CA20001BE01D1C049324206843009F38184768AE
:10CA3000B94206D9006AC91B0495471C05D0051CDC
:10CA4000F1E77F1A4760281C049D716024214D4343
:10CA5000009930624D192C621D1C2B1C7AE7C046D0
:10CA60007C2C0020FC2D0020742C0020642C002045
:10CA7000982C0020FD2D00206C2C0020902C0020F4
:10CA8000752C002000100140FEFF7F002F4A13602C
:10CA9000039A934202D1029A002A51D05A1C4DD0D7
:10CAA0002B4A2C48116824225343CB185D682A492D
:10CAB0002A4B0C581B682A4EE21A1202120A3778C7
:10CAC000033200920190002F1ED1D1272548BF00CC
:10CAD000C851403FC851C02280272348BF0252009E
:10CAE0008750076001272F200F600138C046C046DD
:10CAF000C046C046C046C046C046C046C046C04606
:10CB0000C046C046F1D13770009AAA4200D22A1C12
:10CB1000D318A8221B021B0AD2008B50019A8958F5
:10CB2000091B0902090A1C1B24020331240AA14221
:10CB300006D980220D4B92025A6001E0FFF720FBDC
:10CB400000220B4B1A700BB0F0BDC046982C002091
:10CB5000902C002004050000001001407C2C0020D7
:10CB60008C3000200200010000E100E0FCE100E068
:10CB7000752C002070B5274B9A68002A04D02649EE
:10CB80000A780132D2B20A7000245C649C64DC64CE
:10CB90001C655C609C60214B1E68731C38D0204A69
:10CBA000204BD358204A15685D1B2D022D0A2423E3
:10CBB0001E4A73431268D3185A68954214D3AD1AAB
:10CBC000A4181B4A1E6A1268002A08D09869D969FD
:10CBD0009047002806D000210A1C00F019FC9A6931
:10CBE000D8699047731CE2D1124B134A1978137815
:10CBF0008B4205D10133DBB2022B00D1002313702D
:10CC000013780E4A9B009C5080220D4B52035A60B1
:10CC100070BDC046FC100140A0300020982C0020C0
:10CC200000100140040500007C2C0020902C002006
:10CC3000782C0020FC2D0020742C0020642C002077
:10CC4000FCE100E0F0B585B002ABDF1D00233B70D6
:10CC5000404B009001925B680E1CDB05DB0D042548
:10CC6000002B1ED0103BD9B24AB2002A0BDA0F2299
:10CC70000A40083A384B92089200D21803230B401E
:10CC80005268DB0007E092083449C03292005258E3
:10CC900003210B408B40DA40D3B29B09DDB2012B5C
:10CCA00009D0381CFFF7ACFA022801D172B603E0B4
:10CCB000002801D027E01D1C294B2A492A4A187850
:10CCC0000B781288DBB2C0B20024934201D2013348
:10CCD000DCB284420CD00C780B780021DBB293429A
:10CCE00001D20133D9B21F4B1970012D03D112E0CB
:10CCF000012D2BD01D4C62B63878FFF77FFA022346
:10CD0000021C9A4303D000210A1C00F081FB174B40
:10CD100004209C421BD0164BE5001B685D19019B4B
:10CD20002B60009B002B0ED0002E0CD0114B0099D5
:10CD30001888114B44431868321C001901F09CFB01
:10CD4000AE80002003E00020A88000E0042005B0B1
:10CD5000F0BDC04600ED00E018ED00E000E100E0AD
:10CD6000A2300020A42C0020942C0020FFFF000003
:10CD7000F82D0020D4300020702C002007B5064B81
:10CD800000901B8801910920072B04D968460821CF
:10CD9000024AFFF757FF0EBDD430002011C2030036
:10CDA000E023A0220321D205DB00F0B5D150131CF3
:10CDB000A34A02399950A34B89B01B6800AF7B602E
:10CDC000F0237A689B029A4202D00020011C35E1D0
:10CDD00080235B051A698023DB009A42F5D1002489
:10CDE000994B1C70FFF7CCF9984A994B03211A60B4
:10CDF0000322984BFF201A70974B984A1C701360BF
:10CE00005A1DD4771A1C383214701A1C4832147008
:10CE10001A1C5C321470924A1C7511701A1C9149CC
:10CE20006C320A6014701A1C191C6D3214700522C1
:10CE30006E310A70191C84311967191C74310C7019
:10CE4000191C75310C70191C76310A70191CFC31D3
:10CE50009967191C7C310C70191C7D310C70191CE0
:10CE60007E310A701A1D7533FF33D367012280218A
:10CE70007D4B52421A607D4B82321C707C4BFF32DC
:10CE80001C707C4B49039950C52189005A58824334
:10CE90003F3802435A50802252031A60A122C42014
:10CEA0007549D2008C5080001D58744A2A40C02514
:10CEB0002D022A431A50724B0225CA58714B211C6D
:10CEC0001A600823FA18D018102201F045FB082335
:10CED000FA18D0183D61FFF795F9061EA64204D056
:10CEE000301C211C221C00F093FA7868FFF78EF9A1
:10CEF000002800D08AE0644A644B08201A60482267
:10CF0000634B64491A80644A644B1A6000F0D0FC99
:10CF1000041E07D10122624B16201A7000F0CAFCD1
:10CF2000041E01D0201C88E00322C3B293431D439A
:10CF30000C23B881F8183D73FFF766F9061ECFD1B0
:10CF4000584A594B594C1A60594B5A4AA1211360FF
:10CF5000594AA83313600822584BC9001870584B1F
:10CF60001870584B1A801423574A1380574A22606E
:10CF700003222271621DA060A081E0812061A08255
:10CF8000E0826083208320772062D077A21DD07753
:10CF9000E21DD077A0228020D20540035050EA2223
:10CFA000A0210320C905D20088500A1C8020A1219D
:10CFB0004003C9005050E922A0210320C905D20036
:10CFC0008850434A8850434A8E50A1211222237729
:10CFD0002368C9005A5023681949013A5A50A223BC
:10CFE00013212268DB00D150802122683A4B490589
:10CFF000D1502268394BD6502368FC33DE6020794B
:10D0000040B200F037FC7860002802D0311C321C9E
:10D0100069E72079012140B200F02AFC79680028F4
:10D020000CD1C1230421206222689B00D1502079B9
:10D0300040B200F023FC002852D000210A1C52E725
:10D040000C05000014100010A03000207DCD03005E
:10D05000782C00209C2C0020002E0020902C0020FA
:10D06000FD2D00206C2C0020982C0020FC2D002091
:10D07000742C002000E100E000100140FF00FFFFE1
:10D08000040500007C2C002040300020BC30002033
:10D09000B0300020B1D60300F5D20300B830002034
:10D0A000DC31002049C40300D4310020F0310020DD
:10D0B000A82C0020F82D0020702C0020A42C00208B
:10D0C000A2300020D4300020942C002000300040FA
:10D0D000440700004C070000240500005405000030
:10D0E000A02301212268DB00D1500222631DDA77E0
:10D0F000634B80262362A024A125624BE4057603BE
:10D10000E650042000F0AEFE5E4BED0066519F201D
:10D11000E65000F0A7FEFF2000F0A4FE7860FF209C
:10D1200000F0A0FE3860FF2000F09CFE66517B6896
:10D130001D043B681B021D43534B2843984203D0F8
:10D14000524BC018012816D8A1254E4B8020E6501E
:10D1500000F088FE4B4BED0066515020E65000F089
:10D1600081FE484B66510120E65000F07BFE002016
:10D1700000F078FE6651A024802500F025FF414B89
:10D180006D03E405E550C72000F06CFEA123DB0031
:10D19000E55000F001FFFC2380209B021B8840012A
:10D1A0003B8200F0BDFF08238021FA18D018490106
:10D1B000022200F03DFF00F0C5FDFD219922344B15
:10D1C00089029D449200684601F056F98020800152
:10D1D00000F0A6FF8021992268468901920000F0A4
:10D1E00027FF00F0AFFDFE219422CAB08902520051
:10D1F000684601F041F9C020800100F091FFC02194
:10D200009422684689015200802500F011FF00F049
:10D2100099FD2D02281C00F083FF80235B01ED188F
:10D2200094239B029D42F5D11A4B01269D44A123D4
:10D23000DB00E6506420FFF7D9F9124B6420E6507A
:10D24000FFF7D4F9E824C8206D46FFF7CFF9640250
:10D250008022211C5201281C01F00EF980220E4B65
:10D26000281CE118520100F0E3FE80235B01E41862
:10D27000DC239B029C42EBD100F064FDFCE7C0463E
:10D2800009DD03000C0500004125BF0074DA40FFF2
:10D2900098FDFFFF00F0FFFF0070FEFF61DF7047A9
:10D2A00051DF7047802208B55205116918220E48D7
:10D2B00089B203785343C3181A1C9B685069C3187A
:10D2C000D068013B181800F055FF084A031C12688B
:10D2D00001209A4207D300209A4204D1044B1B68D4
:10D2E00058425841C0B208BDDC300020D030002088
:10D2F000A8300020002008B5011C024AFFF7A2FC5C
:10D3000008BDC0468DD60300182208B507490B7822
:10D310005343CB181B79042B02D0FFF7C7F804E066
:10D320000122034B1A70FEF7B7FF08BDDC30002066
:10D33000B230002038B580256D052C69084AA3B2AB
:10D340001468013C5C43FFF7DBF82B69411E9BB27C
:10D350005943044B201C1A68FEF766FF38BDC046CF
:10D36000D0300020D8310020182270B50F49802617
:10D370000B7876055343CB181A1C9C685B6931699E
:10D38000E418D36889B2E418201C00F079FF0D1C62
:10D39000FFF7B6F8336901389BB25843044B411983
:10D3A0001A68201CFEF740FF70BDC046DC3000202C
:10D3B000A830002008B5FFF7A3F8802252051369B2
:10D3C00001389BB25843054B116912691B6889B239
:10D3D00092B259439208FEF727FF08BDD0300020D3
:10D3E00008B5024B1868FFF729F808BDD0300020B7
:10D3F00008B5FFF785F880225205136911699BB2C1
:10D400000138584389B200F0B5FEFFF717F808BDA0
:10D41000FF22494B120470B51A60061C0022A0239B
:10D42000A121DB05C900B24223D0012443485C504E
:10D430000138C046C046C046C046C046C046C04689
:10D44000C046C046C046C046C046F1D13C493B48F4
:10D450005C500138C046C046C046C046C046C046C3
:10D46000C046C046C046C046C046C046F1D11219AB
:10D47000D5E734480138C046C046C046C046C0461D
:10D48000C046C046C046C046C046C046C046F1D1B0
:10D49000012202255A50032400F07EFC6420FFF78D
:10D4A000A5F8013C00F064FC6420FFF79FF8002C15
:10D4B000F2D1FA20FFF79AF8033400F06DFCFA205D
:10D4C000FFF794F8013C00F053FCFA20FFF78EF8C8
:10D4D000002CF2D1FA20FFF789F8033400F05CFC4D
:10D4E0006420FFF783F8013C00F042FC6420FFF762
:10D4F0007DF8002CF2D1FA208000FFF777F8B442D3
:10D500000BD000F049FCFA20FFF770F800F030FC77
:10D51000FA20FFF76BF80134F1E70B48FFF766F8E4
:10D52000012D01D00125B6E7BFF34F8F074A084B05
:10D53000DA60BFF34F8FFEE7E831002090D00300A0
:10D540000C05000020A10700B80B00000400FA053C
:10D5500000ED00E01FB51B4B1878013804282ED8C9
:10D5600000F0FEFD030307161D000122164B5A6250
:10D5700025E0022201AB1A700022144B02921B68B4
:10D580000392934208D10020011C021CFFF740FFC8
:10D59000002201AB1A70F0E70198111C0EE0012285
:10D5A00001AB1A700A49084A0A485158074B0291C0
:10D5B00012581B680392002BE5D00198984705B0DC
:10D5C00000BDC046E431002000400040B4300020DF
:10D5D0003C0500004C05000008B5002804D10020DF
:10D5E000011C021CFFF714FF0029F8D00023036080
:10D5F0000B8008BDF0B5214E85B035686B425D41AA
:10D600001F4BEDB21B681C1C019363425C41E4B2EA
:10D61000002D2FD103A8FFF743FE052808D00028CE
:10D6200002D0291C2A1C16E003983368984700E0B2
:10D630000125002C1BD1134B03A91B880B80124B17
:10D640001F68381CFFF72AFE041E052C09D000288D
:10D6500003D000210A1CFFF7DBFE381C019B984712
:10D6600000E00124002DD3D0002CD1D004E0002D07
:10D6700002D1CDE7002CDED005B0F0BDD4310020C2
:10D68000D0310020B0300020BC30002008B5002987
:10D6900004D00020011C021CFFF7BAFE034B1B78CC
:10D6A000002B01D0FFF7A6FF08BDC046DC310020EB
:10D6B00008B50148FFF7ACFEEFBEADDE37B5254C2F
:10D6C000254BE26A002A35D000222449E2620A781A
:10D6D000D2B2012A16D0022A2CD12148214A006850
:10D6E00098502148214A006801909850204A1068BB
:10D6F000A722D20098501F4A1068A922D200985041
:10D70000032314E0164D17482D681D50164D174879
:10D710002D6801951D5016480568A720C0001D50B2
:10D7200014480568A920C0001D509A6204230B709C
:10D73000FFF710FFA368002B0AD00022054B9A6068
:10D74000064B1A78042A03D101321A70FFF702FF40
:10D7500037BDC046FC40004000400040E43100209E
:10D76000C830002044050000E031002034050000EE
:10D77000A4300020AC30002073B5334BD9680129A8
:10D7800060D1C12231489200825852075AD50022F6
:10D790002F4CDA60638BA21D01339BB26383D37F6E
:10D7A000DBB2002B0BD1D177628B216A92B20029B8
:10D7B00005D001A90B704A80236A01989847A323DA
:10D7C0002268DB00D0582169A38AE28A9BB292B218
:10D7D000002907D09A4205D2E38A9BB25A1C92B222
:10D7E000E282C854A068A589E389228B9BB292B2D9
:10D7F000ADB293420CD22668011E03D00021AB4289
:10D8000000D2C15C134BF150E38901339BB2E38139
:10D81000638B934216D310481049E589FFF7DCFE6D
:10D820000F481049FFF7D8FE0222631DDA77236AFA
:10D83000ADB2002B06D001AB013A1A705D800198A1
:10D84000236A984773BDC046FC300040003000405A
:10D85000F03100201C050000F8310020FC310020D0
:10D86000003200200432002037DF704736DF704777
:10D8700033DF704732DF70472FDF70472EDF70478E
:10D8800008B5094B1B68002B06D09847002809D023
:10D8900000210A1CFFF7BCFD044B1B78002B01D0B4
:10D8A000FFF7A8FE08BDC046B8300020DC310020DC
:10D8B00010DF70472EDF70471822F0B540498026F0
:10D8C0000B7885B05343CB181A1C19695C699B68A7
:10D8D0000291760531690393D3683A4F0193039B14
:10D8E00089B21D19019B201CED1800233B6000F03C
:10D8F000C7FC321C00290AD1336903999BB29942B3
:10D9000008D0002D40D1019B002B4BD102E0029B9F
:10D91000022B08D11169201C89B200F02BFC2A4B84
:10D92000186003232AE03169019B89B2181900F0BD
:10D93000A7FC264B890819603169002D1DD089B2DA
:10D94000281C00F09DFC002917D08026760533693D
:10D950003169281C89B200F00DFC002803D16D420A
:10D96000AD083D6009E034693169281C89B200F0D6
:10D9700087FCA4B2641AA4083C600223144A137002
:10D98000FEF78AFC05B0F0BD029B022BC2D03169C4
:10D99000019B89B2181900F073FC0C4B89081960BF
:10D9A0003169CCE7029B022BB4D03169019B89B26B
:10D9B000181900F065FC054B890819603369DCE72C
:10D9C000DC300020A8300020D0300020D8310020EA
:10D9D000B230002008B51D4B1B78022B2ED0032B34
:10D9E00017D0012B30D10821194A13680B4220D1DE
:10D9F000182218490B785343174ACB1899681268B4
:10DA00008A1A9A6002D1FEF751FD1DE0FEF712FC62
:10DA10001AE008210E4A13680B420AD10F4A136814
:10DA200001331360FFF73EFC002804D1FFF76CFCC4
:10DA30000AE08B431360FEF72FFC05E0084B094A10
:10DA40001B789B009B58984708BDC046B230002009
:10DA5000D8300020DC300020C4300020D03000203E
:10DA6000C030002084E5030013B5021C0B1C081C09
:10DA7000044C097824680C3000945B690024A047AA
:10DA800013BDC046CC30002008B5034B034A1B78B9
:10DA90009B009B58984708BDC030002098E50300C4
:10DAA00008B50823034A116899431160FFF7ECFF9A
:10DAB00008BDC046D830002008B5064B1B681B07C0
:10DAC00005D40122044B1A70FFF7DEFF01E0FFF7D7
:10DAD000E7FF08BDD8300020C030002008B5094A53
:10DAE000136819070AD4990702D501210B43136063
:10DAF0000222054B1A70FFF7C7FF01E0FFF7D0FFC6
:10DB000008BDC046D8300020C030002038B5154DC3
:10DB10002C68230723D4144A136801331360134B72
:10DB200004221B68002B04D1FFF7BCFB002802D0A5
:10DB300002220F4B0CE00F4B1B68002B0CD0012175
:10DB4000221C0B4B0A4002D10C432C6000E0032244
:10DB50001A70FFF799FF04E0FFF7D6FB01E0FFF72B
:10DB60009FFF38BDD8300020D0300020D8310020B1
:10DB7000C0300020A830002008B5054B1B681B07EB
:10DB800002D4FFF7C1FB01E0FFF78AFF08BDC046E2
:10DB9000D8300020F8B508241E4E35682C4024D11A
:10DBA00018221D490B785343CB185A69D8689446FC
:10DBB0009A6880235B051969184B1F68002F17D0DE
:10DBC000131C6344013B181889B200F0D3FA144BBC
:10DBD0001B6883420CD1134B1C6001231D43124B65
:10DBE00035601C70FFF750FF13E0FFF759FF10E09E
:10DBF000FFF758FB002804D000220A4B1A600232BB
:10DC000002E0002F03D00322074B1A70EAE7FFF768
:10DC10007BFBF8BDD8300020DC300020A83000208D
:10DC2000D0300020D8310020C0300020F7B5A0232C
:10DC30008025048841888288DB05AD03002C01D053
:10DC40001D4E01E0A126F6009D518025ED0300291F
:10DC500001D0194E01E0A126F6009D51A023802598
:10DC6000DB052D04002A01D0134E01E0A126F600A9
:10DC70009D51124B1C8059809A80114B1E68002EBA
:10DC800019D0041C00880F49000200F003FBC7B242
:10DC900060880C49000200F0FDFAC5B2A08809496D
:10DCA000000200F0F7FA00220092074AC3B2391CC2
:10DCB00010682A1CB047F7BD0C0500001832002080
:10DCC00024320020FFFF0000EC31002030B50D4C65
:10DCD000227813049D1AFF23020C1A406A43257808
:10DCE000120C0A802A04551B020A1A406A4324783F
:10DCF000120C4A802204121B034053431B0C8B80DE
:10DD000030BDC046002C0020C0B282B0012801D135
:10DD1000014B187002B07047E531002008B50029AA
:10DD200004D10020011C021CFFF772FB002AF8D06E
:10DD3000002BF6D00860411E884180B2108000227E
:10DD40001A8008BD38B5A024A1230125E405DB0015
:10DD5000E550FA20FEF74AFC044BFA20E550FEF7A6
:10DD600045FCE1204000FEF741FC38BD0C050000F9
:10DD700007B500206946FFF7A9FF6846FFF756FF81
:10DD80000022034B1A70034B01321A7007BDC046C4
:10DD9000022C0020012C002007B50A4B1B78002B19
:10DDA00001D0094B00E0094B18686946FFF78EFF68
:10DDB0006846FFF73BFF6322054B1A70054B9C3208
:10DDC0001A7007BDE731002020320020E831002022
:10DDD000022C0020012C002010B51B4A1378111CC6
:10DDE000012B19D1194B1B681B0715D1184BE024C7
:10DDF0001A68F023101C184022420BD1154A1268F1
:10DE00001A4209D1144A154B1A608022144B12028F
:10DE10001A6001E03028F1D00B68DBB2012B12D17F
:10DE20000A4A126812070ED1F021094A12680A4004
:10DE3000402A08D1074A12680A4204D1C12280212F
:10DE4000D200C9058B5010BDE00F00F0E40F00F0C8
:10DE5000E80F00F0EC0F00F0DFFF07C00405004002
:10DE6000186C0040F0B5002687B004AB454C46491D
:10DE7000464ADF1D464B20700E7016703E70D81D4E
:10DE8000C57F0294EDB2019103921C1CB54207D0EC
:10DE9000381CFFF7EBFCB0420CD0311C321C07E001
:10DEA000187940B2FFF7E8FC002803D0291C2A1C8F
:10DEB000FFF7AEFA621DD37F1125022B40D100255A
:10DEC000013BD377A21D6583211CD5772383221CB8
:10DED000231C08310C320E330298FFF71FFF211C60
:10DEE000221C231C1031143216330198FFF716FF41
:10DEF000A168A089E68980B2B6B222680B1EAB4247
:10DF000003D02B1C864200D28B5D224D5351204BF7
:10DF1000AC46DA890025013292B2DA811C8BA2422A
:10DF20000ED21E680C1EAC4203D02C1C824200D2C2
:10DF30008C5C62460025B450DA89013292B2DA81F3
:10DF4000134BDA1DD47FE4B2002C07D03878FFF7EA
:10DF50008BFC00280BD000210A1CA9E7187940B2DD
:10DF6000FFF78CFC002802D0211C221CA0E7002D0A
:10DF700003D1039B1B78002BFBD0019B187807B0C3
:10DF8000F0BDC04628320020E6310020E5310020F7
:10DF9000F03100201C05000010B58022A024094BA0
:10DFA000E4055203E2500520FFF75CFFFF20FFF776
:10DFB00059FFC307FAD48022A1235203DB00E250A9
:10DFC00010BDC0460C05000038B5A0248025054BC7
:10DFD0006D03E405E5500620FFF744FFA123DB00B5
:10DFE000E55038BD0C050000F8B5A0258026041CBE
:10DFF0000F1CFFF7E9FF0D4BED057603EE500220F5
:10E00000FFF730FF2002000EFFF72CFF2004000E68
:10E01000FFF728FFE0B2FFF725FF381CFFF722FFCC
:10E02000A123DB00EE50FFF7B7FFF8BD0C050000A1
:10E03000F0B587B001900C1C0292CB0709D5451CA6
:10E040000178201CFFF7D0FF029B0134013B0293B3
:10E0500001950123029A9A43039252D0A026802769
:10E06000FFF7B2FF2D4BF6057F03F750AD20FFF70A
:10E07000F9FE2002000EFFF7F5FE2004000EFFF768
:10E08000F1FEE0B2FFF7EEFE019B1878FFF7EAFE23
:10E09000019B5878FFF7E6FE039B023B0493A12304
:10E0A000DB00F750FFF778FF019B9D1C1B4B05938E
:10E0B000A0278026049BFF057603002B14D0059B28
:10E0C000AD20FE50FFF7CEFE2878FFF7CBFE687834
:10E0D000FFF7C8FE049B0235023B0493A123DB003B
:10E0E000FE50FFF759FFE3E7A125ED007E51059BA8
:10E0F0000420FE50FFF7B6FE7E51029B039A9B1A46
:10E100000293029B002B06D0039B039A1819019BD4
:10E11000995CFFF769FF07B0F0BDC0460C05000031
:10E1200070B5A0258026041CFFF74EFF0B4BED05B4
:10E130007603EE502020FFF795FE2002000EFFF739
:10E1400091FE2004000EFFF78DFEE0B2FFF78AFE7D
:10E15000A123DB00EE50FFF71FFF70BD0C05000090
:10E1600002B4714649084900095C49008E4402BC6A
:10E170007047C046002243088B4274D303098B4288
:10E180005FD3030A8B4244D3030B8B4228D3030C87
:10E190008B420DD3FF22090212BA030C8B4202D329
:10E1A0001212090265D0030B8B4219D300E0090A51
:10E1B000C30B8B4201D3CB03C01A5241830B8B425A
:10E1C00001D38B03C01A5241430B8B4201D34B0343
:10E1D000C01A5241030B8B4201D30B03C01A5241A8
:10E1E000C30A8B4201D3CB02C01A5241830A8B422D
:10E1F00001D38B02C01A5241430A8B4201D34B0216
:10E20000C01A5241030A8B4201D30B02C01A524179
:10E21000CDD2C3098B4201D3CB01C01A524183092D
:10E220008B4201D38B01C01A524143098B4201D367
:10E230004B01C01A524103098B4201D30B01C01A92
:10E240005241C3088B4201D3CB00C01A524183080C
:10E250008B4201D38B00C01A524143088B4201D339
:10E260004B00C01A5241411A00D201465241104699
:10E270007047FFE701B5002000F0FCF802BDC04682
:10E280000029F7D003B5FFF775FF0EBC4243891A8A
:10E290001847C04603460B437FD4002243088B42F5
:10E2A00074D303098B425FD3030A8B4244D3030B1D
:10E2B0008B4228D3030C8B420DD3FF22090212BAE2
:10E2C000030C8B4202D31212090265D0030B8B425E
:10E2D00019D300E0090AC30B8B4201D3CB03C01A48
:10E2E0005241830B8B4201D38B03C01A5241430B23
:10E2F0008B4201D34B03C01A5241030B8B4201D313
:10E300000B03C01A5241C30A8B4201D3CB02C01A7D
:10E310005241830A8B4201D38B02C01A5241430AF5
:10E320008B4201D34B02C01A5241030A8B4201D3E4
:10E330000B02C01A5241CDD2C3098B4201D3CB018B
:10E34000C01A524183098B4201D38B01C01A52413A
:10E3500043098B4201D34B01C01A524103098B423E
:10E3600001D30B01C01A5241C3088B4201D3CB0029
:10E37000C01A524183088B4201D38B00C01A52410C
:10E3800043088B4201D34B00C01A5241411A00D2BC
:10E3900001465241104670475DE0CA0F00D0494225
:10E3A000031000D34042534000229C4603098B4295
:10E3B0002DD3030A8B4212D3FC22890112BA030A1D
:10E3C0008B420CD3890192118B4208D3890192119F
:10E3D0008B4204D389013AD0921100E08909C30924
:10E3E0008B4201D3CB01C01A524183098B4201D326
:10E3F0008B01C01A524143098B4201D34B01C01A11
:10E40000524103098B4201D30B01C01A5241C30888
:10E410008B4201D3CB00C01A524183088B4201D3F7
:10E420008B00C01A5241D9D243088B4201D34B0012
:10E43000C01A5241411A00D20146634652415B1054
:10E44000104601D34042002B00D549427047634635
:10E450005B1000D3404201B5002000F00BF802BD74
:10E460000029F8D003B5FFF715FF0EBC4243891A07
:10E470001847C0467047C046002310B5934203D0EA
:10E48000CC5CC4540133F9E710BD000003210A48F5
:10E4900002680A430260094802680A4302600849A8
:10E4A000084A094B9B1A03DD043BC858D050FBDCDB
:10E4B00006488047064800472405004054050040B0
:10E4C00048E60300642C0020642C0020D9DD030002
:10E4D000D9C00300FEE7FEE7FEE7FEE7FEE7FEE742
:10E4E000084B10B5041C002B02D0002100E000BF37
:10E4F000054B1868836A002B00D09847201C00F059
:10E5000033F8C04600000000B0E503000E4B70B5C4
:10E5100000251E1C0D4CE41AA410A54204D0AB002B
:10E52000F35898470135F8E700F020F8084B00252C
:10E530001E1C084CE41AA410A54204D0AB00F358EA
:10E5400098470135F8E770BD642C0020642C00204A
:10E55000642C0020642C0020031C8218934202D0FB
:10E5600019700133FAE77047FEE7C046F8B5C046B8
:10E57000F8BC08BC9E467047F8B5C046F8BC08BC5D
:10E580009E467047B9DA0300DDDA03000DDB0300B5
:10E5900079DB030095DB0300F1D30300B5D303005F
:10E5A000E1D3030069D3030035D303004300000027
:04E5B000042C002017
:08E5B40024DBFF7F01000000E1
:10E5BC0060FF63000000000000000000000000008D
:10E5CC00000000000000000000000000000000003F
:10E5DC0000000000ACE5030000000000000000009B
:10E5EC00000000000000000000000000000000001F
:10E5FC00000000000000000000000000000000000F
:10E60C0000000000000000000000000000000000FE
:04E61C0000000000FA
:10E6200000000102030405060708090A0B0C0D0E81
:10E630000F101112131415161718191A1B1C1D1E72
:04E640001F2028006F
:04E6440078563412BE
:020000020000FC
:020000041000EA
:0410140000C0030015
:040000033000E48D58
:00000001FF
