:020000023000CC
:10300000003003003A4B030000000B00670005028C
:0830100004010A0000000000A9
:103018004C48030010B5064C2378002B07D1054B0C
:10302800002B02D0044800E000BF0123237010BD2C
:1030380074700020000000009C4A030008B5084B8B
:10304800002B03D00748084900E000BF0748036881
:10305800002B00D108BD064B002BFBD09847F9E7A1
:10306800000000009C4A0300787000207470002063
:103078000000000009480A4908B5884205D0094AF5
:10308800824202D0121A01F035FA0748074A002195
:10309800121A01F038FA064808BDC0460070002030
:1030A8009C4A03007470002074700020D8720020BD
:1030B800D872002070B500F0EDFF074B00251E1CEC
:1030C800064CE41AA408A54204D0AB00F35898476C
:1030D8000135F8E770BDC046F04703004C480300CF
:1030E80008B500F09FF908BD08B500F0D9F900F05F
:1030F800B1FF08BD08B500F027FB08BD00784342C2
:1031080058417047012303707047106870470000EA
:10311800F0B5012185B0061C00F01AFE051C303DF3
:10312800041C072D27D81749684600F08FFD301C6E
:10313800694600F0F7FD071C684600F041FD002FC6
:1031480001D0ACB20FE01049684600F07FFD301C9A
:10315800694600F0E7FD051C684600F031FD002DCA
:103168000BD0263CA4B2201C032100F0CDFF201C6C
:1031780000F0F3FF03E0012000E00220404205B028
:10318800F0BDC0466048030062480300F0B5012165
:1031980085B0061C00F0DCFD3038041E072C49D829
:1031A8006846311C0322072300F0D6FD68462549EE
:1031B80000F08CFD051C684600F002FD002D10D1C2
:1031C8006846311C0322062300F0C6FD68461E49E6
:1031D80000F07CFD071C684600F0F2FC002F01D1CE
:1031E8002AE001251949684600F030FD301C69467F
:1031F80000F098FD071C684600F0E2FC002F0ED195
:103208001349684600F022FD301C694600F08AFD2B
:10321800061C684600F0D4FC002E0FD00A34A4B275
:10322800201C012100F070FF201C291C00F07CFFED
:10323800012005E0012002E0022000E003204042D6
:1032480005B0F0BD64480300694803006048030006
:10325800624803007FB50121051C00F079FD031CBD
:10326800303B041C072B21D81449684600F0EEFCBB
:10327800281C694600F056FD061C684600F0A0FCB4
:10328800002E15D10E49684600F0E0FC281C69465E
:1032980000F048FD051C684600F092FC002D09D09E
:1032A800201C263880B200F06BFF05E0012002E008
:1032B800032000E00220404204B070BD60480300D3
:1032C80062480300F0B5041C8BB002A8211C03223D
:1032D80000F068FD06A8211C0022022300F03CFD36
:1032E80006A84C4900F0F2FC051C06A800F068FC92
:1032F800002D5DD12A1C06A8211C022300F02CFDFC
:10330800454F06A8391C00F0E1FC051C06A800F092
:1033180057FC002D66D1201C012100F019FD061C68
:10332800303E051C072E6AD83C4906A800F08EFCE2
:1033380006A9201C00F0F6FC019006A800F040FC4D
:10334800019B002B0AD0B6B20121301C00F0DCFE34
:1033580002A800F02FFD81B2301C4CE0304906A8CD
:1033680000F074FC201C06A900F0DCFC061C06A872
:1033780000F026FC002E0BD0263DADB20121281C02
:1033880000F0C2FE02A800F015FD81B2281C32E050
:1033980006A8211C321C022300F0DEFC06A81D49E9
:1033A80000F094FC051C06A800F00AFC002D09D0CA
:1033B8000121132000F0A8FE02A800F0FBFC81B256
:1033C800132018E0211C06A82A1C022300F0C4FCC4
:1033D80006A8391C00F07AFC041C06A800F0F0FBD3
:1033E800002C0ED00121122000F08EFE02A800F061
:1033F800E1FC81B2122000F0DAFE012403E001248E
:1034080000E00224644202A800F0DAFB201C0BB0A2
:10341800F0BDC0466D4803007048030060480300D3
:103428006248030013B5124C1249201C124A00F0DE
:10343800FDF9201C1149124A00F0F8F9201C114925
:10344800114A00F0F3F9201C1049114A00F0EEF976
:103458006A46082313800F4B042201930E496B46DA
:103468000E4800F061F91420282100F095F913BDE9
:10347800093803001931030073480300953103002C
:103488007F4803005D3203008C480300CD320300FF
:10349800974803001331030094700020A3480300E9
:1034A80008B5034B032000211A7800F08AFC08BDF8
:1034B800A470002010B500240E4B0F4A1C70012385
:1034C80013700E4A14700E4A137002220D4B1A70B4
:1034D80000F0E2FD231C221C672100F0E5FD0A4CE8
:1034E8000A49201C00F0B2FB201C0949094A00F0D7
:1034F80021FF10BD90700020A47000209170002062
:10350800937000209270002094700020AB48030054
:10351800C93B03000070002008B5024B1B685B6ABA
:10352800019308BD1481010008B5024B1B685B6854
:10353800019308BDF480010008B5024B1B689B6825
:10354800019308BDF480010008B5024B1B68DB68D5
:10355800019308BDF480010008B5024B1B681B6984
:10356800019308BDF480010008B5024B1B685B6934
:10357800019308BDF480010008B5024B1B689B6AE3
:10358800019308BDF480010008B5024B1B681B6B52
:10359800019308BDF480010008B5024B1B685B6B02
:1035A800019308BDF480010008B5024B1B681B6A33
:1035B800019308BDF080010008B5024B1B685B6AE7
:1035C800019308BDF080010008B5024B1B689B6A97
:1035D800019308BDF080010008B5024B1B68DB6A47
:1035E800019308BDF080010008B5024B1B681B6BF6
:1035F800019308BDF080010008B5024B1B685B6BA6
:10360800019308BDF080010008B5024B1B681B6CD4
:10361800019308BDF080010008B5024B1B68DB6907
:10362800019308BDF880010008B5024B1B681B6AAE
:10363800019308BDF880010008B5024B1B685B6860
:10364800019308BD0481010008B5024B1B689B6803
:10365800019308BD0481010008B5024B1B68DB68B3
:10366800019308BD0481010008B5024B1B689B69E2
:10367800019308BD0481010008B5024B1B685B6A11
:10368800019308BD0481010008B5024B1B689B6AC1
:10369800019308BD0481010008B5024B1B68DB6A71
:1036A800019308BD0481010008B5024B1B681B6B20
:1036B800019308BD0481010008B5024B1B685B6BD0
:1036C800019308BD0481010008B5024B1B689B6B80
:1036D800019308BD0481010008B5024B1B681B6CEF
:1036E800019308BD0481010008B5024B1B685B6C9F
:1036F800019308BD0481010008B5024B1B689B6C4F
:10370800019308BD0481010008B5024B1B685B6882
:10371800019308BDE880010008B5024B1B689B694E
:10372800019308BDE880010008B5024B1B681B68BF
:10373800019308BD0C81010008B5024B1B685B684A
:10374800019308BD0C81010008B5024B1B685B683A
:10375800019308BDE480010008B5024B1B689B6813
:10376800019308BDE48001000022064B06491A7047
:1037780001230B7005490A70054A13700222054B94
:103788001A707047A8700020A9700020A670002049
:10379800A7700020A570002008B5FFF7BDFE08BD82
:1037A8000022064B06491A7001230B7005490A705E
:1037B800054A13700222054B1A707047AD7000203D
:1037C800AE700020AB700020AC700020AA70002002
:1037D8000022064B06491A7001230B7005490A702E
:1037E800054A13700222054B1A707047B270002008
:1037F800B3700020B0700020B1700020AF700020BE
:1038080010B588B0041C684600F020FA694604A880
:1038180000F040FA04A8A047041C04A800F0D0F95E
:10382800684600F0CDF9201C08B010BDF0B5102492
:1038380085B0071C0E1C151C6846221C002100F0D0
:1038480062FE221C6846002100F05DFE00206B46E7
:103858006946021C1C80029703960195FFF76CFFCE
:1038680005B0F0BD0022064B06491A7001230B7003
:1038780005490A70054A13700222054B1A707047F1
:10388800B7700020B8700020B5700020B670002016
:10389800B47000200022064B06491A7001230B70F1
:1038A80005490A70054A13700222054B1A707047C1
:1038B800BC700020BD700020BA700020BB700020D2
:1038C800B97000207047F8B5061C151C0C1C8F1821
:1038D800BC4206D0336821789B68301C9847013475
:1038E800F6E7281CF8BD08B50022007CFFF75CFE4F
:1038F80008BD08B50021007CFFF75EFE08BD08B5CD
:103908000021007CFFF760FE08BD08B50021007C9F
:10391800FFF762FE08BD08B50021007CFFF764FED2
:1039280008BD10B5041CFFF7E5FB201C10BD000006
:10393800FA23002210B5041C9B008360054B4260EB
:10394800083303600174081C111CFFF75DFE201C7E
:1039580010BDC046B848030008B50021007CFFF739
:103968004BFE08BD0022064B06491A7001230B7056
:1039780005490A70054A13700222054B1A707047F0
:10398800C1700020C2700020BF700020C0700020ED
:10399800BE700020704710B5041CFFF7ABFB201C5D
:1039A80010BDF8B50E1C0024C51D071D2978301C54
:1039B8000A2200F09CF82418BD4208D0002C04D03C
:1039C800301C2E2100F05CF82418013DEEE7201C85
:1039D800F8BD10B502AC24781B02234312041A4325
:1039E80009061143416010BD37B5041C06A80578C7
:1039F8000448009508302060201CFFF7EAFF201CCF
:103A08003EBDC046E04803000022064B06491A7036
:103A180001230B7005490A70054A13700222054BF1
:103A28001A707047C6700020C7700020C47000204C
:103A3800C5700020C3700020F8B5071C0C1C0025B9
:103A48008E18B4420CD03B6821789B68381C984784
:103A58000134002801DB2D18F3E7002D00D1051CE7
:103A6800281CF8BD38B5041C081E08D00D1C00F031
:103A780064FD2368021CDB68201C291C984738BD9C
:103A880008B503689B68984708BDF0B58BB06B46CE
:103A9800151C00220533061C0F1CDA77012D00D8EF
:103AA8000A2509AC291C381C00F000FE011C6943DA
:103AB800791AC9B20B1C3733013CDBB2092901D88A
:103AC8003031CBB22370071EECD1301C211CFFF71C
:103AD800C9FF0BB0F0BD08B5002A04D10368C9B20C
:103AE8009B68984702E0D2B2FFF7CFFF08BD08B540
:103AF800FFF7F1FF08BD00000022064B06491A70C7
:103B080001230B7005490A70054A13700222054B00
:103B18001A707047CB700020CC700020C97000204C
:103B2800CA700020C8700020704710B5041CFFF749
:103B3800E1FA201C10BD0000054B10B5041C036001
:103B48000171081CFFF768FD0023201CA36010BD4D
:103B58000049030008B50079FFF766FD08BD0000BD
:103B68000022064B06491A7001230B7005490A709A
:103B7800054A13700222054B1A707047D070002056
:103B8800D1700020CE700020CF700020CD700020B2
:103B98000022064B06491A7001230B7005490A706A
:103BA800054A13700222054B1A707047D570002021
:103BB800D6700020D3700020D4700020D27000206E
:103BC80010B5041C0068FFF7BFFD201C10BD10B520
:103BD800041C0068002801D0FFF7B6FD002323600D
:103BE800A360636010BD38B5041C0D1C006801316A
:103BF800FFF7B2FD031E01D0012028C438BD10B55F
:103C08000368002B02D043688B4209D2041CFFF7DB
:103C1800EAFF002805D0A368002B01D122681370A1
:103C2800012010BD70B50E1C111C041C151CFFF7DB
:103C3800E6FF002803D1201CFFF7C9FF04E0A560B8
:103C48002068311C00F071FC201C70BD38B50023C1
:103C5800041C0D1E03604360836003739D4207D0FC
:103C6800081C00F06AFC291C021C201CFFF7DAFF64
:103C7800201C38BD10B50B1C041E8C4208D00968E6
:103C8800002903D09A68FFF7CDFF01E0FFF79FFFF7
:103C9800201C10BD002310B5041C03604360836022
:103CA8000373FFF7E7FF201C10BD38B5041C0D1E79
:103CB80008D0081C00F041FC291C021C201CFFF73E
:103CC800B1FF01E0FFF783FF201C38BD08B583680A
:103CD800002B04D1012000290DD00B7808E0002921
:103CE80002D103681B7803E0006800F014FC031C91
:103CF80058425841C0B208BD38B583688D685C1B0E
:103D08000023A2420CD804689C4209D00968994251
:103D180006D0A0182A1C00F017FC43424341DBB22E
:103D2800181C38BD08B5836800229C468B689C45E2
:103D380002D3FFF7E1FF021C101C08BD82680023B4
:103D4800914203D202689A4200D0535C181C704713
:103D580008B5FFF7F3FF08BDF7B5071C0E1C151CC7
:103D68001C1C9A4201D9251C141C381C0C49FFF74D
:103D78006DFFB3689D4211D89C4200D91C1C336862
:103D8800381C1B191A78019200221A7033685919C5
:103D9800FFF78BFF6A46336812791A55381CFEBD47
:103DA800B14803000B1C10B5041C9B68FFF7D4FF37
:103DB800201C10BD08B50368181E01D000F086FB52
:103DC80008BD08B5D2B20023FFF7A6FC08BD000065
:103DD800002008B5074B084A187001231370074ADA
:103DE8001070074A13700222064B1A70FFF78CFCFA
:103DF80008BDC046DA700020DB700020D8700020B3
:103E0800D9700020D77000200022064B06491A708E
:103E180001230B7005490A70054A13700222054BED
:103E28001A707047DF700020E0700020DD700020FD
:103E3800DE700020DC700020024B1A68024B1A600A
:103E48007047C04604700020E47000200022064B32
:103E580006491A7001230B7005490A70054A137048
:103E68000222054B1A707047EB700020EC7000209E
:103E7800E9700020EA700020E87000200022064B5C
:103E880006491A7001230B7005490A70054A137018
:103E98000222054B1A707047F0700020F170002064
:103EA800EE700020EF700020ED7000207047417424
:103EB800704708B5007CFFF7E7FB08BD08B5007C34
:103EC800FFF7E2FB08BD08B5007CFFF7EDFB08BD76
:103ED80008B5007CFFF7E0FB08BD08B5007CFFF7DC
:103EE800EBFB08BD10B5041CFFF704F9201C10BD3E
:103EF80070B5447C051C0E1C002C06D1007CFFF715
:103F0800EBFB002801DC201C03E0287C311CFFF7B8
:103F1800B3FB70BD38B5041C081C00216160FA2190
:103F28008900A1600121054D207408352560617460
:103F3800111C1A1CFFF798FB201C38BD38490300D8
:103F480008B5007CFFF7C0FB08BD000070B5012470
:103F58000C4E0D4D33681C4012D1301CFFF7CEF8C3
:103F680000280DD0211C094A094B281CFFF7D2FF55
:103F7800301CFFF7C7F8281C0649074A00F0DAF991
:103F8800281C70BD8C710020F470002090710020F6
:103F980008710020B53E03000070002001747047CE
:103FA800704708B50020FFF74FFB08BD08B5012092
:103FB800FFF74AFB08BD08B5FFF796FB08BD08B533
:103FC800FFF73AFB08BD38B5051C0C1CFFF78CFB46
:103FD800002802DC287C002803D0201CFFF73CFBCB
:103FE800012038BD08B5FFF787FB08BD10B5041CD4
:103FF800FFF780F8201C10BD00234360FA239B00C4
:104008008360034B08330360012303747047C04681
:104018006849030038B50B4D0B4C2B68DB070FD4F0
:10402800281CFFF76BF800280AD0201CFFF7E4FFD4
:10403800281CFFF767F8201C0449054A00F07AF9A4
:10404800201C38BD2872002014720020A93F0300EC
:104058000070002008B50D4B002B06D0FFF7DAFFE3
:1040680003681B69984700280CDC094B002B0CD00F
:10407800FFF76CFF03681B699847002805DD00E01F
:1040880000BF02E000E000BFEFE708BD000000004D
:10409800000000007047000008B5024B1B681B6851
:1040A800019308BDD880010008B5024B1B685B6806
:1040B800019308BDD880010010B5041C1148FFF712
:1040C80049FD002805D0231C0D3B022B01D80020F8
:1040D80016E000F0C1F8FFF73FFC002801D0012CE2
:1040E800F5D9FFF733FFFFF72BFF002803D0231C78
:1040F800123B012BEBD900201723A3424041C0B249
:1041080010BDC0466072002038B517280BD8FF29AB
:1041180009D00D1C041CFFF7CFFF002803D0201C7A
:10412800291CFFF709FA38BD38B5041C0D1CFFF728
:104138000BFAFF2810D000280ED0831EDBB2012B0B
:104148000AD9062808D0201CFFF7B6FF002803D09C
:10415800201C291CFFF700FA38BD10B5041CFFF716
:10416800F3F90438C0B2012801D8002007E0201C68
:10417800FFF7A2FF0028F8D0201CFFF7F5F910BDC3
:1041880010B5041E092C01D80A34A4B2201CFFF76C
:1041980093FF002801D1002008E0201C0321FFF72D
:1041A800C3F90328F7D1201CFFF7EEF910BD38B585
:1041B800041C0D1CFFF780FF00281BD0201C0421C5
:1041C800FFF7B2F9042804D1201C291CFFF7D4F901
:1041D80010E0201C0221FFF7A7F902280AD1201CB1
:1041E800FFF7B2F9012801D0042803D1E9B2201C55
:1041F800FFF7D2F938BD00000022064B06491A70B5
:1042080001230B7005490A70054A13700222054BF9
:104218001A7070472F720020307200202D72002013
:104228002E7200202C7200200022064B06491A70BC
:1042380001230B7005490A70054A13700222054BC9
:104248001A707047347200203572002032720020D4
:10425800337200203172002070B501240B4E0C4DD2
:1042680033681C4010D1301CFEF748FF00280BD0E3
:10427800211C281CFFF75CFB301CFEF743FF281CA1
:104288000449054A00F056F8281C70BD3872002011
:104298003C720020CD38030000700020002313B5C5
:1042A800064C191C1A1C0093201CFFF79DFB201CB0
:1042B8000349044A00F03EF813BDC046507200207E
:1042C8009D390300007000200021F8B50124022266
:1042D8000F4B104E1970104B301C1C700F4B19707F
:1042E8000F4B1C700F4B1A70FFF726FC0E4F0F4D2B
:1042F800391C2A1C301C00F01DF80D4E211C301CE6
:10430800FFF71AFC301C391C2A1C00F013F8F8BD02
:104318005B720020607200205C72002059720020DD
:104328005A72002058720020313B030000700020B0
:104338006C72002008B5031C081C191C00F0CCF88E
:1043480008BD00000123244A1168194200D11360F6
:10435800224A1168194201D1012313600123204A1E
:104368001168194200D113601E4A1168194201D11F
:104378000123136001231C4A1168194200D11360FC
:104388001A4A1168194201D1012313600123184AFE
:104398001168194200D11360164A1168194201D1F7
:1043A800012313600123144A1168194200D11360D4
:1043B800124A1168194201D1012313600123104ADE
:1043C8001168194200D113600E4A1168194201D1CF
:1043D800012313607047C046A4720020A072002019
:1043E8009C72002098720020947200209072002025
:1043F8008C72002088720020847200208072002055
:104408007C720020787200200123244A1168194226
:1044180000D11360224A1168194201D101231360A7
:104428000123204A1168194200D113601E4A1168FD
:10443800194201D10123136001231C4A1168194252
:1044480000D113601A4A1168194201D1012313607F
:104458000123184A1168194200D11360164A1168DD
:10446800194201D1012313600123144A116819422A
:1044780000D11360124A1168194201D10123136057
:104488000123104A1168194200D113600E4A1168BD
:10449800194201D1012313607047C046D47200202D
:1044A800D0720020CC720020C8720020C472002094
:1044B800C0720020BC720020B8720020B4720020C4
:1044C800B0720020AC720020A872002008B500214C
:1044D8000A2200F0DDF808BD054B10B5041C181EB3
:1044E80005D0131C02200A1C211C00E000BF10BDCF
:1044F80000000000002310B5934203D0CC5CC454E4
:104508000133F9E710BD031C8218934202D01970D9
:104518000133FAE7704702780B78002A03D001309C
:1045280001319A42F7D0D01A7047031C0A7801313A
:104538001A700133002AF9D170470023C25C013395
:10454800002AFBD1581E7047002330B59A420DD07F
:10455800013AC45CCD5CAC4202D1934202D1251C25
:10456800631B03E00133002CF3D1F8E7181C30BDBE
:10457800F0B51E1C444B87B01B68059002930B1CBA
:10458800039101921C78029A5D1C12195078082236
:10459800104001D02B1CF5E72D2C04D19D1C5C7814
:1045A8000123009304E000902B2C01D15C789D1C22
:1045B800002E02D0102E0AD160E0302C5CD12022CF
:1045C8002B789343582B52D110266C780235009FD4
:1045D800311C7B1E9F412D4BFF18381C00F0ECF856
:1045E800381C0491311C00F061F80022071C131CD0
:1045F800029909194978480701D5303C07E003209A
:10460800084017D03721012800D02031641AB4425D
:1046180010DA511C0BD0BB4207D802D1049A94423D
:1046280003DC73430122E31801E0012252422C7893
:104638000135DDE7181C511C0BD10098059A431E63
:104648009841124BC01822231360019B002B0AD1FA
:1046580017E00099002900D05842019B002B10D088
:10466800039B002A00D06B1E019A136009E03024D6
:10467800002EACD10826AAE70A26A8E7302CA6D136
:104688009DE707B0F0BDC04608700020FFFFFF7F20
:1046980038B5051C0C1C131C034A291C1068221C65
:1046A800FFF766FF38BDC0466C7000200022430843
:1046B8008B4274D303098B425FD3030A8B4244D3E2
:1046C800030B8B4228D3030C8B420DD3FF22090224
:1046D80012BA030C8B4202D31212090265D0030BE3
:1046E8008B4219D300E0090AC30B8B4201D3CB03D9
:1046F800C01A5241830B8B4201D38B03C01A52411B
:10470800430B8B4201D34B03C01A5241030B8B421C
:1047180001D30B03C01A5241C30A8B4201D3CB0207
:10472800C01A5241830A8B4201D38B02C01A5241EC
:10473800430A8B4201D34B02C01A5241030A8B42EF
:1047480001D30B02C01A5241CDD2C3098B4201D307
:10475800CB01C01A524183098B4201D38B01C01A85
:10476800524143098B4201D34B01C01A52410309FC
:104778008B4201D30B01C01A5241C3088B4201D3AB
:10478800CB00C01A524183088B4201D38B00C01A58
:10479800524143088B4201D34B00C01A5241411A7F
:1047A80000D20146524110467047FFE701B500208C
:1047B80000F00CF802BDC0460029F7D003B5FFF79A
:1047C80075FF0EBC4243891A1847C0467047C04659
:1047D800F8B5C046F8BC08BC9E467047F8B5C04658
:1047E800F8BC08BC9E46704745300300BD34030042
:1047F80071370300A9370300D93703006D38030068
:104808009D3803006D390300113A0300013B030092
:10481800693B0300993B0300D93D0300113E0300A7
:10482800413E0300553E0300853E0300014203005C
:1048380031420300A5420300D14203004D43030067
:10484800114403007D300300BD300300E93003004C
:10485800F130030000000000440041004849474887
:10486800004C4F57005458005258006469676974E7
:10487800616C72656164006469676974616C777200
:1048880069746500616E616C6F677265616400616F
:104898006E616C6F677772697465007665727369AB
:1048A8006F6E00322E322E353000000000000000FE
:1048B8000000000000000000CD3803002B39030081
:1048C800EF380300CF380300FB3803000739030033
:1048D800133903001F390300000000000000000026
:1048E800AB3903009D3903009F3903000000000025
:1048F8000000000000000000313B0300333B0300D0
:104908005A00252B3033643A253032750025592D4D
:10491800256D2D25645425483A254D3A2553257A89
:104928000061736374696D65000000000000000099
:104938000000000000000000B53E0300ED3E03004B
:10494800F93E0300413A0300C53E0300D93E030087
:10495800CF3E0300E33E0300B73E0300BB3E030027
:104968000000000000000000A93F0300F53F03001D
:10497800CF3F0300413A0300C73F0300AB3F0300AA
:10498800B53F0300ED3F0300BF3F0300A53F030011
:104998000020202020202020202028282828282007
:1049A80020202020202020202020202020202020FF
:1049B8002088101010101010101010101010101067
:1049C8001004040404040404040404101010101057
:1049D8001010414141414141010101010101010121
:1049E8000101010101010101010101011010101073
:1049F80010104242424242420202020202020202F3
:104A08000202020202020202020202021010101046
:104A1800200000000000000000000000000000006E
:104A2800000000000000000000000000000000007E
:104A3800000000000000000000000000000000006E
:104A4800000000000000000000000000000000005E
:104A5800000000000000000000000000000000004E
:104A6800000000000000000000000000000000003E
:104A7800000000000000000000000000000000002E
:104A8800000000000000000000000000000000001E
:044A980000430000D7
:104A9C0000000000294903009849030000000000B1
:104AAC0000000000000000000000000000000000FA
:104ABC00000000000000000000000000994A030004
:104ACC0000000000000000000000000000000000DA
:104ADC0000000000000000000000000000000000CA
:104AEC0000000000000000000000000000000000BA
:104AFC000000000000000000000000000C7000200E
:044B0C001D30030055
:104B1000FFFFFFFF6700000001020304050607080E
:104B2000090A0B0C0D0E0F1011121314151617187D
:0A4B3000191A1B1C1D1E1F2028006F
:044B3A007856341263
:040000033000301881
:00000001FF
