:020000023000CC
:10C00000807F0020D9F2030021F3030023F3030013
:10C010000000000000000000000000000000000020
:10C0200000000000000000000000000025F30300F5
:10C03000000000000000000027F3030029F30300C4
:10C040002BF303002BF30300A5D7030095D50300C2
:10C050000DE3030000000000DDD503002BF3030017
:10C060002BF3030099D503002BF303002BF30300FC
:10C070002BF303002BF303002BF303002BF303003C
:10C080002BF3030035D903002BF303002BF303003C
:10C0900081DA030019D703003DCE03002BF3030020
:10C0A0002BF303002BF3030000000000000000004E
:10C0B0000000000000000000000000000000000080
:10C0C00000C00300C4F70300000006006700020080
:10C0D0000000000000000000164B002B00D1144BA4
:10C0E0009D46402292029A1A924600218B460F46A4
:10C0F0001348144A121A03F055F90F4B002B00D0C5
:10C1000098470E4B002B00D09847002000210400D8
:10C110000D000D48002802D00C4800E000BF03F0DD
:10C120001BF92000290000F0DFF903F0FFF8C046FA
:10C1300000000800807F00200000000000000000D8
:10C14000CC320020CC3200200000000000000000B3
:10C1500018DF704760DF704713DF70470F4A70B514
:10C16000151C137804780130002C15D00C4B1A786C
:10C17000012AFBD11A78D2B2012A08D11E780949C6
:10C18000022E00D08A60084A8C5002221A7002786F
:10C19000231C0130141CE7E72B7070BD6C2C0020B1
:10C1A00044310020002000401C050000F0B5AA4BDF
:10C1B00091B000AFF8629D4400206B46011CFF2245
:10C1C000BB6202F073F93423F81801F0ADFA0028CD
:10C1D000F9D13523F81801F0A7FA0028F9D1362350
:10C1E000F81801F0A1FA0028F9D13723F81801F066
:10C1F0009BFA0028F9D13423FB181B78041C1A067B
:10C200003523FB181B781B0413433722BA18127806
:10C2100013433622BA181278120213437B628F4BF3
:10C22000FA6A18808E4B1A608E4B1A607B6A1D0565
:10C230006A1E95411B0B5D198B4B1D60AC4206D0ED
:10C24000FB6A2003C01802F019FB0134F6E7302224
:10C250000823BA18D01885497A6A02F0EFFC302218
:10C260000823BA18D018FFF779FF8148FFF776FF47
:10C27000FE6AFB6A7A6AF31A934200D3E4E07B6AAF
:10C28000FA6A9B189D1B8023DB009D4200D91D1C70
:10C29000FF200021021C02F009F90024AC4207DA59
:10C2A000BB6A181901F040FA43424341E418F5E72C
:10C2B0000020FF22011C02F0F9F86B466A467B6001
:10C2C000EB1DDB08DB00D31A9D46BB60F3070CD5E2
:10C2D000BB6A301C0133BB61BB6A197802F0AAFA51
:10C2E000731C7B616B1E3B6203E0BB6A3D627E6137
:10C2F000BB6101233A6A9A43FA615FD002F060FAA7
:10C300008024A0235B4ADB0524029C50AD2002F070
:10C310009DF97B691802000E02F098F97B691804F8
:10C32000000E02F093F9387D02F090F9BB6918789D
:10C3300002F08CF9BB69587802F088F9FB69A022F9
:10C34000023BFB60A123D205DB00D45002F020FAAF
:10C35000BB69A02402333B61FB68E405002B1AD0C3
:10C360008022444B1202E250AD2002F06FF93B698B
:10C37000187802F06BF93B69587802F067F9FB68AE
:10C380008022023BFB60A1231202DB00E25002F09C
:10C39000FFF93B69DDE7A1238022DB001202E250B6
:10C3A000344B0420E25002F051F9A1238022DB003B
:10C3B0001202E2503B6AFA699B1A3B623B6A002B0D
:10C3C00008D0FA697B6994466344181CBB69995C80
:10C3D00002F030FAB868311C2A1C02F001FA2A1C5B
:10C3E000B86AB96802F012FC1E4B1A68002806D120
:10C3F000AA181A60194A1388013313800DE0140B30
:10C400002403201C1C6002F039FA154B291C186803
:10C41000201A02F079FA114B18807B6830229D4671
:10C420000823BA18D01811492A1C02F007FC302240
:10C430000823BA18D018FFF791FE0F48FFF78EFEB9
:10C440008023DB00F61814E7FF200022011C02F015
:10C450002DF8BD4611B0F0BD00FCFFFFC02C002040
:10C4600060300020CC2C0020C42C00204CF50300B0
:10C4700050F503000C0500004FF5030038B5144CCF
:10C4800004252278131CAB4321D002281DD0032899
:10C490001DD1104B1B681B0717D40F490B680133C4
:10C4A0000B60032B04D0022A0CD100F0FFFC0EE03D
:10C4B00018220A4B0D2019785143C918043100F095
:10C4C000D9FC257000F034FD01E000F085FF38BD97
:10C4D000B430002048310020B83000205431002012
:10C4E00037DF704736DF70478022F0B5C04BD2058A
:10C4F000D1588BB0B12901D10021D150A0260325FC
:10C50000BC4BF605F550043BF550BB4BA127F5504D
:10C510008023FF001B03F3518023DB02F3518023B0
:10C520009B02F351B54B1B680093F023009A9B02CA
:10C530009A4202D00020011C57E180235B051A6952
:10C540008023DB009A42F5D10024AD4B1C7001F032
:10C5500059FAAC4AAC4BAD491A60AD4BAD4A1D70AF
:10C56000AD4BFF2013605A1DD4771A1C383214705B
:10C570001A1C483214701A1C5C321470A74A1C70C2
:10C5800015701A1C6C320A6014701A1C191C6D325A
:10C59000147005226E310A70191C84311967191C38
:10C5A00074310C70191C75310C70191C76310A70BD
:10C5B000191CFC319967191C7C310C70191C7D31D8
:10C5C0000C70191C7E310A701C751A1D7533FF33EF
:10C5D000D3670122924B52421A60924B80221C7008
:10C5E000914BC5211C70C023904D52035B00EA5053
:10C5F00089006B5883433F3803436B502A608C4A51
:10C600000439D45168588B4B0340C02000020343C7
:10C610006B50894B211CD258884B06A81A60884B56
:10C62000884AF250102202F0BDFE022306A80693AB
:10C63000FFF78EFD0295061EA64200D1C0E0BBE0CA
:10C64000814A824B08201A604822814B81491A8016
:10C65000814A824B1A6000F009FC041E00D0B8E049
:10C6600001257F4B16201D7000F002FC041E00D037
:10C67000AFE004AB049005900543181C1D70FFF754
:10C6800069FD002800D097E0764A774B1A60774B17
:10C69000774A1360774AA83313600822764B1870E4
:10C6A000764B1870764B1A80764B0C321A80764B8C
:10C6B000764A18705870764B002402211C705C601A
:10C6C000D9601C615C619C6018339342F4D1802175
:10C6D000704B49051C604A690B696F4D98B2931EF7
:10C6E00043436E4AA026136004226D4B80271C60D2
:10C6F0006C4BF6051C609C60DC601C619C61DC611D
:10C70000694B3F021C60694B69481C70694B1C6097
:10C71000694B1C60694B1A60694BAB62694B1A70BC
:10C720002A1C2B1D2C63AC86EC86AC63AC87EC8793
:10C73000DC87AB1CDC87644B44321470AC641C7027
:10C740002B1C4D331C702B1C4E331C70A123DB00A3
:10C75000F75003233350A120C0003750E520C0001C
:10C7600033505A483350E723DB00F4500F23A12005
:10C7700013700A22AB6AC0001A50AB6A5448013ADF
:10C780001A50A2230E20AA6ADB00D050AB6A514A8D
:10C790009950AA6A504BD450AB6AFC33DC60494BC9
:10C7A000187840B201F034FE494B01900093494B98
:10C7B0000393031EA3420FD0211C221C01F03CFC5A
:10C7C0000098FFF7C9FC002800D139E7311C321C62
:10C7D000F4E7201C002108E03A4B0121187840B210
:10C7E00001F014FE041E79D001990A1CE6E7C04648
:10C7F0001C0500004C070000440700001410001046
:10C80000F2300020A5DF0300383100201C31002069
:10C81000C82C002024310020D02C0020F030002033
:10C82000283100202E310020F330002000E100E00C
:10C8300000100140FF00FFFF04050000343100201C
:10C840001C0700000C000300742C00206430002042
:10C85000B630002099CD030025E00300A830002069
:10C86000513100207DC40300E8300020102F00204B
:10C8700018310020303100202D3100202C310020D3
:10C88000483200202031002054310020483200205E
:10C8900058310020BC2C00206C320020702C00206D
:10C8A000A4300020C43000204C310020B4300020DF
:10C8B0003C070000B8300020E43000204831002060
:10C8C0000040004098320020B832002024070000C9
:10C8D0000C0500002405000054050000C1230421BC
:10C8E000A864AA6A9B00D150D04B187840B201F0DE
:10C8F00093FD002800D05FE7A0230121AA6ADB0096
:10C90000D1500222CA4B04201A70CA4BAB64009B60
:10C91000F75001F09BFEA123DB00F750009B9F2006
:10C92000F75001F093FEFF2001F090FE051CFF2060
:10C9300001F08CFE041CFF2001F088FEA123DB0027
:10C94000F7502D042402BC4B2C432043984203D0C3
:10C95000BA4BC01801281AD8A0248025A126009B14
:10C96000E4052D02F600E550802001F06FFEA55190
:10C97000009B5020E55001F069FEA551009B01206D
:10C98000E55001F063FE002001F060FEA551A223F6
:10C99000A0220125DB00D205D458E4092C4000D0A8
:10C9A00000E1A748211C021C01F080FD2E1CA44FB1
:10C9B000A023A222DB05D200995880220A401AD176
:10C9C000632E04DC1D2E04DD171C9D4C01E09C4FE2
:10C9D0003C1C002D03D00020011C021C02E0211C85
:10C9E0003A1C974801F062FD012364205D40F6186F
:10C9F00000F076FEDCE7632E06DD8020E821C00132
:10CA0000490201220023F4E01E2E00DCF3E0202284
:10CA100004A90A7000228B498B480A708B49A12611
:10CA2000086001218A48494201808020F6004000C8
:10CA30009851E4200324C0001C50E6240C20E4009C
:10CA400018510824009D834B834F5C51834C18512F
:10CA5000039C83481851A0200424C000DA511C50C4
:10CA60008048C2600262D8598446012065468543E9
:10CA7000DD51A225ED0099515951724D9860186011
:10CA80002870794D287801302870C2208000195014
:10CA9000C121843889005850C02302995B00CC50D2
:10CAA000C021029B89005858704B0340C0200004ED
:10CAB000034302984350FF20029B011C1C6001F0BD
:10CAC000F5FC04A800F030FE0028FAD1F022920212
:10CAD0001168674B0B40802189058B4200D1654A64
:10CAE00004AB1B78722B51D004D8652B57D0662B22
:10CAF0000ED050E0752B47D0762B4CD152895E4931
:10CB000006A802F09BF806A8FFF728FB5B4843E065
:10CB100084208002FFF74AFB8420800201F0CEFED1
:10CB20000028CED0564B1C68564B1B68E41A837BFA
:10CB3000022B07D18420211C0022013B800201F03E
:10CB4000DBFA19E08020400001F098FE80200121EE
:10CB5000400001F06FFE02202102090EFF3001F0BB
:10CB600069FE81202104090E400001F063FE0420CB
:10CB7000E1B2FF3001F05EFEBFF34F8F424A434BFC
:10CB8000DA60BFF34F8FFEE7C02000E08020800115
:10CB9000FFF70CFB95E73E48FFF7E0FA91E700F05E
:10CBA000F1FD28E0802106AC201C49002A1C01F080
:10CBB00017FE2678012E1ED10221201CFF31321CC7
:10CBC00001F00EFE81212778201C4900321C01F063
:10CBD00007FE04212578201CFF31321C01F000FEE5
:10CBE00000228420131C21783F042D023D43294359
:10CBF000800201F081FA274D286800F05FFE2B6863
:10CC00001B68013300D189E0234C627A207AA37A31
:10CC1000120202431B0413431A1CE37A1B0613433C
:10CC2000FF2293433AD106943BE0C046983200205D
:10CC3000B832002059E403004125BF0074DA40FFF8
:10CC4000550200004431002095E40300F430002038
:10CC5000022C0020002000406C050000140500009C
:10CC600000509D00FC200040002C0020FFFF00FF32
:10CC70000000F12FC0C003004CF5030050F5030085
:10CC8000CC2C0020603000200400FA0500ED00E00C
:10CC900052F503000830000000FC030006A800F075
:10CCA000E1FD069A1378012B38D1002356889E4265
:10CCB00015D0296890681D4B081881420FD00F7855
:10CCC0005BBA9BB27B401A1CDBB21B0953401A03B0
:10CCD00053409BB2DAB2520153400131EDE7B34207
:10CCE0001CD1627A207AA37A120202431B041343F6
:10CCF0001A1CE37A1B061343FF22934301D10694C7
:10CD000002E006A800F0AEFD069B1A78A52A05D021
:10CD10001B79AA2B02D0286800F0D0FDBFF34F8FFB
:10CD2000034A044BDA60BFF34F8FFEE7FFFF0000BA
:10CD30000400FA0500ED00E061DF704751DF704745
:10CD4000802208B55205116918220E4889B203786D
:10CD50005343C3181A1C9B685069C318D068013B21
:10CD6000181801F0D1FD084A031C126801209A42EC
:10CD700007D300209A4204D1044B1B685842584103
:10CD8000C0B208BD54310020A4300020B0300020D3
:10CD900028DF704729DF704708B5014801F04CF9DA
:10CDA000EFBEADDEF0B5214E85B035686B425D411A
:10CDB0001F4BEDB21B681C1C019363425C41E4B243
:10CDC000002D2FD103A8FFF7B9FF052808D00028B0
:10CDD00002D0291C2A1C16E003983368984700E00B
:10CDE0000125002C1BD1134B03A91B880B80124B70
:10CDF0001F68381CFFF7A0FF041E052C09D000286F
:10CE000003D000210A1C01F017F9381C019B984738
:10CE100000E00124002DD3D0002CD1D004E0002D5F
:10CE200002D1CDE7002CDED005B0F0BDE830002007
:10CE300068300020B63000206430002008B5094B6F
:10CE40001B68002B06D09847002809D000210A1C37
:10CE500001F0F2F8044B1B78002B01D0FFF7A2FF82
:10CE600008BDC046A83000205131002010DF7047B7
:10CE70002EDF70470B1C37B5021CD86809780328D1
:10CE800002D10748046802E0064C00010459181C4E
:10CE9000054D0C302D6800955B69A04737BDC04635
:10CEA0004C310020C4300020EC30002008B5034B8A
:10CEB000034A1B789B009B58984708BDAC30002064
:10CEC000DCF6030008B50823034A11689943116092
:10CED000FFF7ECFF08BDC0464831002008B5064BFF
:10CEE0001B681B0705D40122044B1A70FFF7DEFFF5
:10CEF00001E0FFF7E7FF08BD48310020AC3000201B
:10CF000008B5094A136819070AD4990702D50121FF
:10CF10000B4313600222054B1A70FFF7C7FF01E0B5
:10CF2000FFF7D0FF08BDC04648310020AC300020DC
:10CF3000F0B52C4B85B01878032850D801F0DAFCF6
:10CF4000020E114B0023284A1360284A1360284B15
:10CF50005B78002B43D000F0F7F840E000F0CAF90E
:10CF60003DE0244C802723687F0501930123019A2B
:10CF70009A431823029222601D4A15785D43551981
:10CF80006B6903933969181C89B201F0BDFC1A4B17
:10CF9000061C1860A868039B39691818013889B203
:10CFA00001F0B2FC864203D10223029A134303E04C
:10CFB0000323019A9A43131C2360104B1A68104BE9
:10CFC000002A03D121680232114200D000221A70D7
:10CFD000FFF76CFF03E0084B186800F01DF905B07F
:10CFE000F0BDC046B4300020B8300020E43000204E
:10CFF0005431002048310020A4300020BC300020F3
:10D00000AC3000201822F0B5494980260B7885B055
:10D010005343CB18181C1A69464C01921201A218EE
:10D020005D69D76894689B68760531697C43039392
:10D03000C36852680093039BA2185C19009B3E4F83
:10D04000E418002389B23B60281C029201F0E2FC44
:10D05000321C00290BD1336903999BB2994209D044
:10D06000029B9C4248D1009B002B53D102E0019BC4
:10D07000032B08D11169281C89B201F045FC2F4B04
:10D080001860032332E03169009B89B2581901F01E
:10D09000C1FC2B4B89081960029B31699C4224D04A
:10D0A00089B2201C01F0B6FC00291ED080256D0538
:10D0B0002969029889B201F027FC2E690090B1B26B
:10D0C000201C01F021FC009B834204D1029B1C1B0D
:10D0D000A4083C6009E02B692969201C89B29DB233
:10D0E00001F098FC6D1AAD083D600223154A1370DB
:10D0F000FFF71EFF05B0F0BD019B032BBAD03169CD
:10D10000009B89B2581901F085FC0D4B8908196004
:10D110003169C5E7019B032BACD03169009B89B213
:10D12000581901F077FC064B890819603369DCE770
:10D1300054310020C4300020B0300020A430002042
:10D14000BC300020B4300020182208B50A490B7802
:10D150005343CB189968094A11601B79032B08D0F7
:10D16000042B06D0012B06D1054A1370FFF7E0FE11
:10D1700001E0FFF747FF08BD54310020EC300020EC
:10D18000B4300020F8B5124D9C466E7804240A2E67
:10D190001CD02C78A419092C00DD0A3C18277C43EC
:10D1A0002C192071201C0830A261021C083288C989
:10D1B00088C26346A3600024069B01364360054B8A
:10D1C0006E701B78A34201D1FFF7BEFF201CF8BD93
:10D1D00054310020B430002008B5002814D01128A4
:10D1E00005D10823094A11680B4313600CE018228B
:10D1F000074B19785143C9180431FFF73BFE04224D
:10D20000044B1A70FFF794FE08BDC0464831002059
:10D2100054310020B430002008B5FFF7B9FDFFF706
:10D22000DBFF08BD08B5024B1868FFF7F5FF08BD26
:10D23000A4300020802208B5520553691069116995
:10D2400080B2584389B201F05FFBFFF7E5FF08BDEC
:10D2500008B5FFF79FFDFFF7BFFF08BD08B58023A6
:10D260005B0518695A691969054B80B21B6889B258
:10D27000013B5843034B51431A68FFF7E9FF08BDD0
:10D28000A4300020BC300020182270B50D490B7866
:10D290005343CB181A1C9D685B69ED18D368ED18D1
:10D2A00080235B051969281C89B25C691E6901F03D
:10D2B000B1FBB6B27443044B281C09191A68FFF776
:10D2C000C7FF70BD54310020B0300020802310B55E
:10D2D0005B055C69186919691A69054B80B21B689E
:10D2E00089B292B2604359439208FFF7B1FF10BD73
:10D2F000A4300020F8B51823154A80261478760546
:10D300005C431419271C231C3169A26889B20837B1
:10D310001033104D8A4210D931697C6888B2111AD5
:10D320003269F8689B68201892B240189208591820
:10D33000FFF78EFF33699BB207E07968F8689208BF
:10D3400008189968FFF784FFA3682B60F8BDC046F2
:10D3500054310020E430002038B51824114D00204D
:10D360002978614349190431FFF784FD29780022A7
:10D370004C432B19181C02241A719A601C615A61C3
:10D380009A61C2606B780131013B6B70CBB20A2BA2
:10D3900001D02B7000E02A70034B1A70FFF7C8FD14
:10D3A00038BDC04654310020B4300020182208B5E2
:10D3B00007490B785343CB181B79042B02D0FFF796
:10D3C000CBFF04E00122034B1A70FFF7B1FD08BD4B
:10D3D00054310020B430002008B51D4B1B78022BBF
:10D3E0002ED0032B17D0012B30D10821194A1368F6
:10D3F0000B4220D1182218490B785343174ACB18F7
:10D40000996812688A1A9A6002D1FFF7A5FF1DE099
:10D41000FFF770FF1AE008210E4A13680B420AD189
:10D420000F4A136801331360FFF78AFC002804D108
:10D43000FFF7BCFF0AE08B431360FFF779FD05E0BF
:10D44000084B094A1B789B009B58984708BDC0466B
:10D45000B43000204831002054310020E430002056
:10D46000A4300020AC300020C8F6030010B5174CE3
:10D4700023681B0726D4164A136801331360154B23
:10D4800004221B68002B04D1FFF75AFC002803D0AC
:10D490000222114B1A700FE0104B1B68002B0ED0AC
:10D4A00023680120191C0C4A014003D10343236067
:10D4B000117001E003231370FFF7F8FC04E0FFF79D
:10D4C00075FF01E0FFF7FEFC10BDC04648310020AB
:10D4D000A4300020BC300020AC300020B030002050
:10D4E00008B5054B1B681B0702D4FFF75FFF01E07F
:10D4F000FFF7E8FC08BDC04648310020F8B5082415
:10D500001E4E35682C4024D118221D490B785343F8
:10D51000CB185A69D86894469A6880235B051969C4
:10D52000184B1F68002F17D0131C6344013B1818B9
:10D5300089B201F0E9F9144B1B6883420CD1134BFB
:10D540001C6001231D43124B35601C70FFF7AEFCBD
:10D5500013E0FFF7B7FC10E0FFF7F2FB002804D060
:10D5600000220A4B1A60023202E0002F03D003228D
:10D57000074B1A70EAE7FFF719FFF8BD48310020A2
:10D5800054310020B0300020A4300020BC300020F6
:10D59000AC3000207047000010B50024201C0D4B5B
:10D5A0005030E21892001368800080B2002B0CD03B
:10D5B000C12309499B00C95880235B02A34019423B
:10D5C00003D000231360191C98470134042CE5D1C3
:10D5D00010BDC0465024001000900040F8B5012254
:10D5E0000025394B1968012908D1C1213748890024
:10D5F0004158114202D000211543196034490433C7
:10D6000052008B42EED1334B00241A68012A08D114
:10D610001C6080231B061D43A022A223D205DB0031
:10D62000D4582B0702D1002D4DDA16E00127002631
:10D630003D420DD0254AB3009918A222D200885845
:10D640008958254AC0048903C00E890F9B58984702
:10D6500001367F00042EEBD1E5E71F4A131C34335B
:10D6600019784BB201332ED0C9B2C023081C98439D
:10D6700013181B7D5BB29B009E58002E23D0A02266
:10D680000127D20583009B18E0228740D2009D58D5
:10D690008909AD03AD0F274202D0022D13D102E05C
:10D6A000032D10D103E003290CD10C1C02E0032947
:10D6B00008D102249F58094D24043D409D509D5897
:10D6C0002C439C50B047F8BD006100400060004012
:10D6D000106100407C6100406C300020FFFFFCFFC7
:10D6E00082B00190019B002B12D0019B0948013BA5
:10D6F00001930138C046C046C046C046C046C04639
:10D70000C046C046C046C046C046C046F1D1E9E763
:10D7100002B07047E70300000121024A13784B4032
:10D7200013707047C030002010B5064A064C1188AF
:10D730000523A14203D0063B017013800023181C6F
:10D7400010BDC046022C0020FFFF0000021C4378E1
:10D75000180293781B04034310781843D3781B06F0
:10D760001843704713DF704711DF704708B5082969
:10D7700004D00020011C021C00F05EFC036840681D
:10D78000984708BD00220121044B1A70044BD96050
:10D790005960A021C9005A507047C046443100204A
:10D7A0000020004013B52A4C2A4BE268002A14D00E
:10D7B000C12292009958042211420ED00021E1604A
:10D7C000A321C9005B582449DBB20B8069460B7169
:10D7D000224B0A701B6868469847236A1D49002B34
:10D7E0001DD0C1239B00CB581B0618D50022184B17
:10D7F0001A621B4A1378DBB2002B10D0022B04D91B
:10D80000032B0CD1FFF7BEFF09E00123CB6013709F
:10D810006A4602331370114B68461B689847A26A28
:10D820000C4B002A13D0C12292009A5892050ED5B3
:10D830000021074A684691629021C9005A585A50FF
:10D84000022369460B70054B01921B68984713BD74
:10D85000FC20004000200040022C0020F43000207A
:10D860004431002070B5134C061C201C124D237847
:10D87000A2782B70E37808301B0213436B80237966
:10D880002B71FFF763FFA860201C0C30FFF75EFFD1
:10D89000E860201C1030FFF759FF2861201C14306D
:10D8A000FFF754FF6861201C1830FFF74FFFA86195
:10D8B000356070BD00FC0300FC300020F8B5FFF7B8
:10D8C00053FF002810D1184B1A68012383401A42D5
:10D8D00001D01649CB6701302028F6D1144C2068BE
:10D8E000FFF740FF002803D000210A1C00F0A4FB32
:10D8F0002368186880F308885868FF2464B2EFF33F
:10D900000585002D01D1A6460047251C061C2127B0
:10D910003FBAF0B40024002500260027F0B4F92017
:10D9200040B20047F8BDC04600E100E004E100E07D
:10D930000830000070B5274B9A68002A04D02649A9
:10D940000A780132D2B20A7000245C649C64DC6400
:10D950001C655C609C60214B1E68731C38D0204A9B
:10D96000204BD358204A15685D1B2D022D0A242315
:10D970001E4A73431268D3185A68954214D3AD1ADD
:10D98000A4181B4A1E6A1268002A08D09869D9692F
:10D990009047002806D000210A1C00F04DFB9A6930
:10D9A000D8699047731CE2D1124B134A1978137847
:10D9B0008B4205D10133DBB2022B00D1002313705F
:10D9C00013780E4A9B009C5080220D4B52035A60E4
:10D9D00070BDC046FC100140F2300020283100200C
:10D9E00000100140040500003431002024310020E3
:10D9F000383100202E310020F33000203C3100204F
:10DA0000FCE100E08022D221184B9202DA67184B29
:10DA1000184A89005A5040395A5001212F22596022
:10DA2000101C0138C046C046C046C046C046C0466D
:10DA3000C046C046C046C046C046C046F1D1996007
:10DA400000230D49101C0B600138C046C046C0467B
:10DA5000C046C046C046C046C046C046C046C04696
:10DA6000C046F1D1054A13707047C04604E100E09A
:10DA7000001001400200010034310020F830002085
:10DA8000F0B5B549B54A0B68B5488BB0039300783B
:10DA90001378984211D00133DBB2022B00D100235E
:10DAA00013701378AF4A9B009B589C46039B6344BA
:10DAB0001B021B0A0B60012301E000239C46049318
:10DAC000A94B1B680893A94B1B780193A84B1B68B3
:10DAD0000993A84B1F68A84B1B780793019B0293DF
:10DAE000029B013BDBB20293FF2B61D0029BDC0067
:10DAF000099B1C19227863789342F1D01823534371
:10DB0000A07801326168D2B2801ACB18411E8841D8
:10DB1000197840420240022904D00329EBD1924BEC
:10DB20001B6839E024215B685943059379180B7D04
:10DB30000693002BDFD08C4B1E68351C301C6B1CF1
:10DB400027D0059B9D4205D024236B43FB18281C3E
:10DB50001D6AF4E7A8420FD124237343FB181B6A04
:10DB6000814D2B60013307D10125844B9D60002539
:10DB7000794B1D60069B0793242358430D6A381880
:10DB80004E680562681C04D06B43FB185868861900
:10DB90005E6000230B75AEE7591C06D024214B4371
:10DBA0000021FB1819751B6AF6E76F490B60A2E7A5
:10DBB0006A46714B127F1A706B4B049A1B68002ADD
:10DBC00008D1089A01279B1A5A1E9341DBB202938F
:10DBD0007F422CE001270020664A7F4215685A1CCC
:10DBE00021D024225A43AA1851688C4506D25E4897
:10DBF00003606346C91A5160012317E06446401868
:10DC0000641A0021A446146951601175166A8C4289
:10DC100007D017621F1C0399D46041180902090A32
:10DC20009160331CDBE7504A1360023302934E4B82
:10DC30001B680593504B1B780693019B013BDBB29D
:10DC40000193FF2B00D19DE0494A019B1268DB0044
:10DC5000D3187A1C07D0242246497A430968BC4667
:10DC60008A18176A29E01A7859789142E5D0182164
:10DC700051435868013241189878D2B21A709042D4
:10DC800001D100221A704A6894463A4A10680A780C
:10DC9000012ADED16446233262438218107D0028B7
:10DCA000D7D18C689460CC68D4600C6914614969E0
:10DCB000D1610699002900D09060274995680968CC
:10DCC0002F4E681A0002000AD468B04202D8001928
:10DCD000506009E0491B0902090A8C4202D9641A02
:10DCE000546001E0002151600021242064469160CD
:10DCF000D16001311175023911621E4A4443156821
:10DD0000194A2C191268511C0AD050432818466829
:10DD1000616803960492B1420CD8711A4160226284
:10DD2000624611490A6094E7006A891B0492461C06
:10DD30000AD0021C2420504328184668B142F3D868
:10DD4000761A4660101C049A616024214A43AD187B
:10DD5000624620622A627CE7343100202E310020A6
:10DD6000F33000203C31002028310020F03000202A
:10DD70001C31002024310020F1300020001001402F
:10DD8000FEFF7F002F4B059A1B68934202D1029A37
:10DD9000002A51D05A1C4DD02B4A2C4811682422FD
:10DDA0005343CB185D682A492A4B0C581B682A4EEE
:10DDB000E21A1202120A3778033201920290002FFF
:10DDC0001ED1D1272548BF00C851403FC851C022AD
:10DDD00080272348BF0252008750076001272F2069
:10DDE0000F600138C046C046C046C046C046C04667
:10DDF000C046C046C046C046C046C046F1D1377096
:10DE0000019AAA4200D22A1CD318A8221B021B0A7C
:10DE1000D2008B50029A8958091B0902090A1C1B5F
:10DE200024020331240AA14206D980220D4B92021A
:10DE30005A6001E0FFF7E6FD00220B4B1A700BB0B1
:10DE4000F0BDC04628310020243100200405000028
:10DE50000010014034310020F830002002000100A1
:10DE600000E100E0FCE100E0F1300020F0B585B019
:10DE700002ABDF1D00233B70404B009001925B68BA
:10DE80000E1CDB05DB0D0425002B1ED0103BD9B288
:10DE90004AB2002A0BDA0F220A40083A384B92089D
:10DEA0009200D21803230B405268DB0007E092086F
:10DEB0003449C0329200525803210B408B40DA4063
:10DEC000D3B29B09DDB2012B09D0381CFEF70AFB47
:10DED000022801D172B603E0002801D027E01D1C02
:10DEE000294B2A492A4A18780B781288DBB2C0B22B
:10DEF0000024934201D20133DCB284420CD00C786E
:10DF00000B780021DBB2934201D20133D9B21F4B0F
:10DF10001970012D03D112E0012D2BD01D4C62B6DA
:10DF20003878FEF7DDFA0223021C9A4303D0002161
:10DF30000A1C00F081F8174B04209C421BD0164BA2
:10DF4000E5001B685D19019B2B60009B002B0ED028
:10DF5000002E0CD0114B00991888114B44431868BF
:10DF6000321C001900F061FEAE80002003E00020AA
:10DF7000A88000E0042005B0F0BDC04600ED00E040
:10DF800018ED00E000E100E02C3100202D310020F0
:10DF900020310020FFFF000018310020483200200F
:10DFA0003031002007B5064B00901B8801910920F5
:10DFB000072B04D968460821024AFFF757FF0EBD18
:10DFC000483200206DD7030010B51049104A0B7875
:10DFD00012789A4219D00F480B780A780488D2B286
:10DFE000DBB20020944201D90132D0B20A4A087053
:10DFF00010880A4A58431268DB001018084A126851
:10E00000D31899881B689847DFE710BD2C31002092
:10E010002D310020203100204832002030310020F6
:10E0200018310020002008B5011C024AFFF71EFF2E
:10E0300008BDC046E9E20300FF2270B5061C0225B8
:10E04000294B12041A60032400F086FA6420FFF7BB
:10E0500047FB013C00F0A0FA6420FFF741FB002CD5
:10E06000F2D1FA20FFF73CFB033400F075FAFA20F6
:10E07000FFF736FB013C00F08FFAFA20FFF730FB88
:10E08000002CF2D1FA20FFF72BFB033400F064FAE6
:10E090006420FFF725FB013C00F07EFA6420FFF7C7
:10E0A0001FFB002CF2D1FA208000FFF719FBB442CD
:10E0B0000BD000F051FAFA20FFF712FB00F06CFAD7
:10E0C000FA20FFF70DFB0134F1E70848FFF708FBE2
:10E0D000012D01D00125B6E7BFF34F8F044A054B50
:10E0E000DA60BFF34F8FFEE750320020B80B00001C
:10E0F0000400FA0500ED00E0F0B5051C002089B031
:10E1000002AF141C0E1CFF22011CFB6000F0CEF9B4
:10E11000002C02D08023DB01F61804225C4C08207E
:10E120002368134264D05B4B101C1A68002A5FD12D
:10E1300003323A61584A281C1A6000F0BFFBFB68A2
:10E14000002B04D1837B022B01D100209DE00368CA
:10E15000281CFB607B6100F0B1FB0028F5D0802318
:10E160004268DB029A42F0D84C4B02689A42ECD9E2
:10E170008389672BE9D10122494B38691A7003283A
:10E180000AD17B691A1CFB60024005D11023009262
:10E19000F918331CFEF7F6FFFFF716FF23685B073D
:10E1A000FAD5404B5B78BB60002BF5D1FFF70CFF35
:10E1B00080236A465B051B69BC689BB20733DB089A
:10E1C000DB00D31A9D4602AB7A60FB60B44244D2B6
:10E1D00080235B051A69291C92B2F86800F000FBE5
:10E1E00080235B0519692A4B1B685B0704D4082050
:10E1F00000210A1CFFF720FFFB68002B3FD03A6983
:10E20000032A3ED18BB2002B3BD0F8680143114268
:10E2100039D1144237D17969114234D10D32009489
:10E22000B9180120FA68FEF7ADFF0028E0D1B86008
:10E23000FFF7CAFE164B1B685B0702D5194B5B78CC
:10E24000BB60BB68002BF3D18022520513699BB2DF
:10E25000ED1813699BB2E418B8E78020400000F085
:10E260000DFB80200021400000F0E4FA0020011C9A
:10E27000021C00F01BF97B6801209D4605E00E2082
:10E28000B6E70720B4E71020B2E7BD4607B0F0BDFF
:10E29000483100204C310020A9E20300FF7F01003B
:10E2A000503100205431002008B5032903D1002249
:10E2B000054B1A7006E0002A04D00021101C0A1C2D
:10E2C000FFF7BAFE08BDC0465031002008B500284F
:10E2D00004D10020011C021CFFF7AEFE0029F8D07B
:10E2E000002303600B8008BD08B5002904D000207E
:10E2F000011C021CFFF7A0FE034B1B78002B01D072
:10E30000FEF750FD08BDC0465131002073B5354BB6
:10E31000D868012865D1C122334992008A58520732
:10E320005FD50022314CDA60211C221DD38F4D3184
:10E3300001339BB2D3870B78DBB2002B0BD1087073
:10E34000D28FA16C92B2002905D001A90B704A802E
:10E35000A36C01989847A323A26ADB00D058A16B55
:10E36000A38FE28F9BB292B2002907D09A4205D2C6
:10E37000E38F9BB25A1C92B2E287C854A21C206B56
:10E38000A58EE38ED28F9BB292B2ADB293420CD2E5
:10E39000A66A011E03D00021AB4200D2C15C144B1F
:10E3A000F150E38E01339BB2E386231DDB8F934252
:10E3B00017D310481049E58EFFF788FF0F48104922
:10E3C000FFF784FF231C02224C331A70A36CADB2FA
:10E3D000002B06D001AB013A1A705D800198A36C46
:10E3E000984773BDFC400040004000406C32002064
:10E3F0001C0500009C320020A0320020A432002026
:10E40000A832002037DF704736DF704733DF7047B0
:10E4100032DF70472FDF70472EDF704730B50D4C6D
:10E42000227813049D1AFF23020C1A406A432578B0
:10E43000120C0A802A04551B020A1A406A432478E7
:10E44000120C4A802204121B034053431B0C8B8086
:10E4500030BDC046042C0020C0B282B0012801D1DA
:10E46000014B187002B070474A32002008B50029ED
:10E4700004D10020011C021CFFF7DEFD002AF8D0A9
:10E48000002BF6D00860411E884180B21080002227
:10E490001A8008BD08B50378022B01D0012B04D1E6
:10E4A000002140680A1CFFF7C7FD08BD30B5A02356
:10E4B0008024DB052403002801D00F4D01E0A125B5
:10E4C000ED005C518024E402002901D00A4D01E0F6
:10E4D000A125ED005C51A0238024DB05A402002AC5
:10E4E00001D0054D01E0A125ED005C51034B1880E2
:10E4F00059809A8030BDC0460C050000583200207B
:10E50000F7B5041C00886188A288FFF7CFFF0F4B86
:10E510001F68002F18D020880D49000200F084FAEF
:10E52000C6B260880A49000200F07EFAC5B2A0882F
:10E530000749000200F078FA00220092054AC3B2AF
:10E54000311C10682A1CB847F7BDC0466432002051
:10E55000FFFF00005432002007B50A4B1B78002B48
:10E5600001D0094B00E0094B18686946FFF756FFD8
:10E570006846FFF7C5FF6322054B1A70054B9C32B6
:10E580001A7007BD4C32002060320020503200204B
:10E59000062C0020052C002007B500206946FFF757
:10E5A0003DFF6846FFF7ACFF0022034B1A70034B98
:10E5B00001321A7007BDC046062C0020052C002031
:10E5C00010B51B4A1378111C012B19D1194B1B686C
:10E5D0001B0715D1184BE0241A68F023101C1840B3
:10E5E00022420BD1154A12681A4209D1144A154B1E
:10E5F0001A608022144B12021A6001E03028F1D018
:10E600000B68DBB2012B12D10A4A126812070ED135
:10E61000F021094A12680A40402A08D1074A1268C4
:10E620000A4204D1C1228021D200C9058B5010BDFD
:10E63000E00F00F0E40F00F0E80F00F0EC0F00F046
:10E64000DFFF07C004050040186C0040F0B587B03C
:10E6500004AB4A4CDF1D4A4B20700026181C494968
:10E66000494A0E7016703E704E3005780294EDB235
:10E67000019103921C1CB54207D0381CFFF7C4FE61
:10E68000B0420DD0311C321C08E02C33187840B257
:10E69000FFF7C0FE002803D0291C2A1CFFF7CCFC82
:10E6A000221C4C3213781125022B44D10025013B4A
:10E6B0001370221DD587221C4D321570A21CD387E2
:10E6C000211C221C231C3031343236330298FFF7D0
:10E6D000CDFE211C221C231C38313C323E330198D4
:10E6E000FFF7C4FE216BA08EE68E80B2B6B2A26A9E
:10E6F0000B1EAB4203D02B1C864200D28B5D234DF8
:10E7000053511F4BAC46DA8E9C1C013292B2DA8612
:10E71000E48F0025A2420ED29E6A0C1EAC4203D0AA
:10E720002C1C824200D28C5C62460025B450DA8EEA
:10E73000013292B2DA86124B1A1C4E321478E4B2CD
:10E74000002C07D03878FFF75DFE00280CD00021A0
:10E750000A1CA3E72C33187840B2FFF75DFE0028AF
:10E7600002D0211C221C99E7002D03D1039B1B78AA
:10E77000002BFBD0019B187807B0F0BD6832002059
:10E780006C3200204B3200204A3200201C05000071
:10E7900010B58022A024094BE4051202E2500520A6
:10E7A000FFF754FFFF20FFF751FFC307FAD4802281
:10E7B000A1231202DB00E25010BDC0460C05000090
:10E7C00038B5A0248025054B2D02E405E550062030
:10E7D000FFF73CFFA123DB00E55038BD0C0500002E
:10E7E000F8B5161CA02580220F1C114B1202ED0556
:10E7F000EA50041C0320FFF729FF3802000EFFF740
:10E8000025FF3804000EFFF721FFF8B2FFF71EFFC7
:10E81000A619B44205D0FF20FFF718FF207001347D
:10E82000F7E78022A1231202DB00EA50F8BDC046C0
:10E830000C050000F8B5A0258026041C0F1CFFF76E
:10E84000BFFF0D4BED053602EE500220FFF7FEFE36
:10E850002002000EFFF7FAFE2004000EFFF7F6FE7E
:10E86000E0B2FFF7F3FE381CFFF7F0FEA123DB0058
:10E87000EE50FFF78DFFF8BD0C05000070B5A02528
:10E880008026041CFFF79CFF0B4BED053602EE5073
:10E890002020FFF7DBFE2002000EFFF7D7FE20044A
:10E8A000000EFFF7D3FEE0B2FFF7D0FEA123DB009E
:10E8B000EE50FFF76DFF70BD0C050000802200B523
:10E8C000C1B0011C52006846FFF78AFF6B46DB7837
:10E8D00000201A066B469B781B041343044A13401E
:10E8E00080229205934200D1C030684441B000BDFF
:10E8F0000000F12F02B4714649084900095C490043
:10E900008E4402BC7047C046002243088B4274D339
:10E9100003098B425FD3030A8B4244D3030B8B4220
:10E9200028D3030C8B420DD3FF22090212BA030C29
:10E930008B4202D31212090265D0030B8B4219D30A
:10E9400000E0090AC30B8B4201D3CB03C01A52412A
:10E95000830B8B4201D38B03C01A5241430B8B4272
:10E9600001D34B03C01A5241030B8B4201D30B035B
:10E97000C01A5241C30A8B4201D3CB02C01A524182
:10E98000830A8B4201D38B02C01A5241430A8B4245
:10E9900001D34B02C01A5241030A8B4201D30B022E
:10E9A000C01A5241CDD2C3098B4201D3CB01C01A48
:10E9B000524183098B4201D38B01C01A5241430952
:10E9C0008B4201D34B01C01A524103098B4201D340
:10E9D0000B01C01A5241C3088B4201D3CB00C01AAD
:10E9E000524183088B4201D38B00C01A5241430825
:10E9F0008B4201D34B00C01A5241411A00D201464A
:10EA0000524110467047FFE701B5002000F0FCF8C6
:10EA100002BDC0460029F7D003B5FFF775FF0EBC55
:10EA20004243891A1847C04603460B437FD400224D
:10EA300043088B4274D303098B425FD3030A8B4292
:10EA400044D3030B8B4228D3030C8B420DD3FF22FC
:10EA5000090212BA030C8B4202D31212090265D0CA
:10EA6000030B8B4219D300E0090AC30B8B4201D37D
:10EA7000CB03C01A5241830B8B4201D38B03C01AC4
:10EA80005241430B8B4201D34B03C01A5241030B3B
:10EA90008B4201D30B03C01A5241C30A8B4201D3EC
:10EAA000CB02C01A5241830A8B4201D38B02C01A97
:10EAB0005241430A8B4201D34B02C01A5241030A0E
:10EAC0008B4201D30B02C01A5241CDD2C3098B42F3
:10EAD00001D3CB01C01A524183098B4201D38B0170
:10EAE000C01A524143098B4201D34B01C01A524113
:10EAF00003098B4201D30B01C01A5241C3088B4258
:10EB000001D3CB00C01A524183088B4201D38B0042
:10EB1000C01A524143088B4201D34B00C01A5241E4
:10EB2000411A00D201465241104670475DE0CA0FBB
:10EB300000D04942031000D34042534000229C467B
:10EB400003098B422DD3030A8B4212D3FC22890185
:10EB500012BA030A8B420CD3890192118B4208D35B
:10EB6000890192118B4204D389013AD0921100E0BD
:10EB70008909C3098B4201D3CB01C01A52418309D1
:10EB80008B4201D38B01C01A524143098B4201D3FE
:10EB90004B01C01A524103098B4201D30B01C01A29
:10EBA0005241C3088B4201D3CB00C01A52418308A3
:10EBB0008B4201D38B00C01A5241D9D243088B42F9
:10EBC00001D34B00C01A5241411A00D2014663469C
:10EBD00052415B10104601D34042002B00D5494200
:10EBE000704763465B1000D3404201B5002000F03F
:10EBF0000BF802BD0029F8D003B5FFF715FF0EBCD6
:10EC00004243891A1847C0467047C04630B50024B1
:10EC1000944208D0035D651C0C5DA34201D0181B13
:10EC200002E02C1CF4E7002030BD002310B5934215
:10EC300003D0CC5CC4540133F9E710BD0EB410B559
:10EC40009DB002A9029008610B4882248860486147
:10EC5000012040421FABC881084804CBA4000068D3
:10EC600001938C8100F06CF80023029A13701DB0A0
:10EC700010BC08BC03B01847FFFFFF7F682C0020C2
:10EC8000F0B58E6885B0071C0C1C03920193B3424B
:10EC900045D390238A89DB001A423DD003250969B8
:10ECA000236801985B1A029363695D43EB0F5D195A
:10ECB000029B6D1001331B189D4200D21D1C381C95
:10ECC00053050FD5291C00F0BDFB061E13D0029A78
:10ECD0002169FFF7AAFFA289184B13408022134332
:10ECE000A38111E02A1C00F0C6FA061E0CD1381CC4
:10ECF000216900F061FB0C23402201203B60A389C5
:10ED000040421343A38117E0029B2661F618266058
:10ED10006561019EED1AA560019BB34200D2019E80
:10ED2000321C2068039900F092FA0020A3689B1B14
:10ED3000A36023689E19266005B0F0BD7FFBFFFF2E
:10ED4000F0B59FB0029005938B890E1C171C1B0613
:10ED500010D50B69002B0DD1402100F073FB306002
:10ED60003061002804D10C23029A01381360D0E0EE
:10ED700040237361002306AD6B6120336B76103343
:10ED8000AB763C1C2378002B03D1E31B049312D0F9
:10ED900003E0252BF9D00134F4E7049B0298311CE1
:10EDA0003A1CFFF76DFF431C00D1ACE06A69049B7D
:10EDB000944663446B612378002B00D1A3E00122C9
:10EDC000002352426A6002A95432521801342B6067
:10EDD000EB60AB601370AB654F4F2178381C052298
:10EDE00000F02AFA002808D0C01B01278740381CF1
:10EDF0002B68013418432860EEE72B68DA0604D547
:10EE00005322202102A8121811701A0704D5532288
:10EE10002B2102A81218117022782A2A01D0099BEE
:10EE20000EE0059A111D12680591002A01DB099276
:10EE300004E05242EA60022213432B60013409E0ED
:10EE40002278303A092A04D80A214B4301349B180E
:10EE5000F6E7099323782E2B18D163782A2B09D152
:10EE6000059B02341A1D1B680592002B0DDA012345
:10EE70005B420AE0002301342278303A092A04D8A0
:10EE80000A214B4301349B18F6E70793234F21785F
:10EE9000381C032200F0D0F9002807D0C01B4027FF
:10EEA0008740381C2B6801341843286021781C489F
:10EEB0000622671C297600F0BFF9002812D0194BF2
:10EEC000002B06D10722059B073393430833059394
:10EED00014E005AB00930298291C321C124B00E091
:10EEE00000BF07E005AB00930298291C321C0E4BB3
:10EEF00000F08AF80390039B013304D06B69039AF6
:10EF00009B186B613DE7B3890B985B0601D5012027
:10EF100040421FB0F0BDC046F0F60300F6F6030015
:10EF2000FAF603000000000081EC0300F7B5171C9F
:10EF300001930A698B6800900C1C934200DA131C41
:10EF4000221C3B6043321278002A01D001333B601F
:10EF500023689B0602D53B6802333B600625236885
:10EF60001D401ED0231C43331B785A1E9341226838
:10EF700092061CD53020E1184031C870211C5A1C63
:10EF800045310978A21840320233D1700FE0221CBB
:10EF90000123009801991932089EB047431C0ED0F6
:10EFA0000135E3683A689B1A9D42F0DBDAE7221CE0
:10EFB000009801994332089DA847431C02D10120C3
:10EFC000404220E006232068E1683A6803400025BB
:10EFD000042B03D18D1AEB43DB171D40A368226974
:10EFE000934201DD9B1AED180027AF420ADA221C7A
:10EFF0000123009801991A32089EB047431CDED0C5
:10F000000137F2E70020FEBDF0B58BB006920A1C76
:10F0100043320793059004920A7E0C1C109B6E2AC3
:10F0200000D1A8E011D8632A22D009D8002A00D143
:10F03000B2E0582A00D0C2E045310A707C4A4FE065
:10F04000642A1DD0692A1BD0B9E0732A00D1A7E039
:10F0500009D86F2A29D0702A00D0B0E02022096890
:10F060000A43226037E0752A1FD0782A33D0A6E001
:10F070000E1C1A684236111D196013683370A1E026
:10F0800021681A68080606D4490604D5111D1960BE
:10F090000023D55E02E0111D19601568002D3BDAD2
:10F0A0002D23049A6D42137036E021681A68080611
:10F0B00006D4490604D51568111D1960ADB202E0E9
:10F0C000111D196015685A4B227E03930A276F2A77
:10F0D0001DD108271BE0221C782145321170554AAA
:10F0E00019680392081D226818600D68100602D482
:10F0F000500600D5ADB2D30702D520231A432260B3
:10F100001027002D03D1202322689A432260231C5C
:10F11000002243331A7002E00A27454B03936368C9
:10F12000A360002B03DB0422216891432160002DA2
:10F1300002D1049E002B0ED0049E281C391CFFF720
:10F1400069FC039B013E5B5C281C3370391CFFF794
:10F15000DBFB051EF1D1082F09D12368DB0706D59B
:10F1600063682269934202DC3023013E3370049BC2
:10F170009B1B23612BE009681A68080607D449061F
:10F1800005D5111D19601368A28A1A8004E0111DAB
:10F190001960136862691A600023049E236116E0F7
:10F1A0001A68111D196016680021301C626800F091
:10F1B00043F8002801D0801B6060636803E0261CD0
:10F1C00042363270012323610023049A1370079B97
:10F1D00005980093211C069B09AAFFF7A7FE431C74
:10F1E00002D10120404221E0236905980699321C92
:10F1F000079DA847431CF4D023689B0705D4099BAF
:10F20000E068984212DA181C10E00025E368099AB9
:10F210009B1A9D42F3DA221C0123059806991932A4
:10F22000079EB047431CDCD00135EFE70BB0F0BDC3
:10F2300001F7030012F70300C9B28218904204D00C
:10F2400003788B4202D00130F8E70020704710B5F8
:10F25000814208D28B18984205D29B1A013A09D3F1
:10F26000995C8154FAE70023934203D0CC5CC454E8
:10F270000133F9E710BDF8B5061C0C1C151C00295C
:10F2800004D1111C00F0DEF8041C18E0002A03D1A0
:10F2900000F092F82C1C12E000F013F8A8420ED2F5
:10F2A000301C291C00F0CEF8071E07D0211C2A1C98
:10F2B000FFF7BBFC301C211C00F07EF83C1C201C1E
:10F2C000F8BD0B1F1A68101F002A04DA89180439C8
:10F2D0000B68D0180438704703210A4802680A43B3
:10F2E0000260094802680A4302600849084A094B5B
:10F2F0009B1A03DD043BC858D050FBDC064880470E
:10F30000064800472405004054050040C8F70300A4
:10F310006C2C00206C2C0020C1E50300D9C0030038
:10F32000FEE7FEE7FEE7FEE7FEE7FEE7084B10B567
:10F33000041C002B02D0002100E000BF054B186820
:10F34000836A002B00D09847201C00F033F8C04699
:10F350000000000028F703000E4B70B500251E1CAE
:10F360000D4CE41AA410A54204D0AB00F358984702
:10F370000135F8E700F0DEF8084B00251E1C084CAC
:10F38000E41AA410A54204D0AB00F3589847013505
:10F39000F8E770BD6C2C00206C2C00206C2C002039
:10F3A0006C2C0020031C8218934202D01970013388
:10F3B000FAE77047FEE7C04630B500293ED0043971
:10F3C0000B68002B00DAC9181D4A1368141C002BA7
:10F3D00002D14B60116031E099420DD208680A18E1
:10F3E0009A4203D11368C3180B6053684B602160C5
:10F3F00024E08A4203D8131C5A68002AF9D11D68F8
:10F400005C198C420BD10968691858181960904230
:10F4100014D110685268091819605A600EE08C42C5
:10F4200002D90C23036009E008680C18944203D148
:10F4300014685268001908604A60596030BDC046BF
:10F44000C0320020032370B5CC1C9C430834051C3B
:10F450000C2C01D20C2405E0002C03DA0C23002034
:10F460002B6042E08C42F9D3204A1368101C191C0F
:10F47000002913D00A68121B0DD40B2A02D90A6086
:10F480008B181FE08B4202D15A6802601BE04A6869
:10F490005A600B1C17E00B1C4968E9E7144E3368EF
:10F4A000002B03D1281C00F025F83060281C211CFB
:10F4B00000F020F8031C421CD0D00322C61C964347
:10F4C00086420AD11C60181C07210B301A1D884384
:10F4D000821A0AD05142995007E0311A281C00F0D4
:10F4E00009F8431CBAD0331CECE770BDC0320020D1
:10F4F000BC32002038B50023064C051C081C2360D4
:10F5000000F00AF8431C03D12368002B00D02B60C5
:10F5100038BDC046C8320020044A1368002B03D00F
:10F5200018181060181C7047014BF9E7C43200200E
:10F53000D0320020F8B5C046F8BC08BC9E467047E3
:10F54000F8B5C046F8BC08BC9E4670472564000D5F
:10F550000A005573652074686520666F6C6C6F7760
:10F56000696E6720636F6D6D616E64733A20202051
:10F57000202020202020202020202020202020208B
:10F58000202020202020202020202020202020207B
:10F590002020200A202066202D207570646174656B
:10F5A000206669726D7761726520202020202020FE
:10F5B000202020202020202020202020202020204B
:10F5C0002020202020202020202020202020200A51
:10F5D000202075202D20757064617465207075621F
:10F5E0006C6963206B65792020202020202020205A
:10F5F000202020202020202020202020202020200B
:10F60000202020202020202020202020200A202010
:10F6100072202D2075706461746520707269766146
:10F620007465206B65792020202020202020202058
:10F6300020202020202020202020202020202020CA
:10F640002020202020202020202020200A2020658B
:10F65000202D206578697420616E6420626F6F745C
:10F66000202020202020202020202020202020209A
:10F67000202020202020202020202020202020208A
:10F680002020202020200A202076202D2076657240
:10F6900073696F6E20202020202020202020202031
:10F6A000202020202020202020202020202020205A
:10F6B000202020202020202020200A202068202D0B
:10F6C0002068656C70200A00DDCE030001CF0300C6
:10F6D0006DD40300E1D40300FDD4030035D2030050
:10F6E000CDD2030025D2030089D203005DD20300EE
:10F6F000232D302B2000686C4C006566674546471B
:10F70000003031323334353637383941424344459D
:10F71000460030313233343536373839616263640C
:0CF720006566004300000000082C00207B
:08F72C00ACC9FF7F01000000E1
:10F734000100FFFF60FF6300000000000000000004
:10F7440000000000000000000000000000000000B5
:10F75400000000000000000023F703000000000088
:10F764000000000000000000000000000000000095
:10F774000000000000000000000000000000000085
:10F784000000000000000000000000000000000075
:0CF794000000000000000000082C002015
:10F7A00000000102030405060708090A0B0C0D0EF0
:10F7B0000F101112131415161718191A1B1C1D1EE1
:04F7C0001F202800DE
:04F7C400785634122D
:020000020000FC
:020000041000EA
:0410140000C0030015
:040000033000F2D9FE
:00000001FF
